:020000040800F2
:1000000040E60120610200089B2D0008932D0008A6
:10001000972D0008DD0A0008754A0008000000005E
:10002000000000000000000000000000A101000826
:10003000110B000800000000FD010008D544000875
:100040008502000885020008850200088502000874
:100050008502000885020008850200088502000864
:100060008502000885020008850200088502000854
:100070008502000885020008850200088502000844
:100080008502000885020008850200088502000834
:100090008502000885020008850200088502000824
:1000A0008502000885020008850200088502000814
:1000B0008502000885020008FD440008850200084A
:1000C00085020008850200088502000885020008F4
:1000D00085020008654A00088502000885020008BC
:1000E00085020008850200088502000885020008D4
:1000F00085020008850200088502000885020008C4
:1001000085020008850200088502000885020008B3
:1001100085020008850200088502000885020008A3
:100120008502000885020008850200088502000893
:10013000E10A0008CD0B00088502000885020008CE
:100140008502000885020008850200088502000873
:100150008502000885020008850200088502000863
:100160008502000885020008850200088502000853
:1001700085020008850200088502000800000000D2
:100180008502000885020008DFF810D000F0B8FBF7
:1001900000480047FDE70008AFF3008040E601207B
:1001A0002C4B19680868B0E8F04F80F30988BFF35A
:1001B0006F8F4FF0000080F311887047000000003F
:1001C00008480068006880F308884FF0000080F35A
:1001D000148862B661B6BFF34F8FBFF36F8F00DF35
:1001E00000BF00BF08ED00E0DFF80C00016841F43B
:1001F00070010160704700BF88ED00E0EFF30980F7
:10020000BFF36F8F134B1A681EF0100F08BF20ED5D
:10021000108A20E9F04F106009B44FF0500080F3CD
:100220001188BFF34F8FBFF36F8F1BF029FD4FF085
:10023000000080F3118809BC19680868B0E8F04F25
:100240001EF0100F08BFB0EC108A80F30988BFF3CE
:100250006F8F7047E0020020EFF3058070470000C9
:100260000948016841F47001016008488047084866
:100270000047FEE7FEE7FEE7FEE7FEE7FEE7FEE7F4
:10028000FEE7FEE7FEE7000088ED00E0E944000835
:10029000890100082DE9F05F0546002092469B4643
:1002A00088460646814640241BE02846414647468C
:1002B000224600F075FA53465A46C01A914110D3AF
:1002C00011461846224600F05CFA2D1A67EB010829
:1002D0004F4622460120002100F053FA17EB000997
:1002E0004E41201EA4F10104DFDC484631462A4677
:1002F0004346BDE8F09F000000487047D404020860
:10030000A0F14101192900D8203070470649074A59
:100310000868504343F239021044086040087047AF
:100320000149086070470000600300206D4EC6411F
:1003300010B5431A934209D28318881803E010F8C5
:10034000011D03F8011D521EF9D210BD40EA010340
:100350009B0703D009E008C9121F08C0042AFAD27B
:1003600003E011F8013B00F8013B521EF9D210BD29
:10037000D2B201E000F8012B491EFBD270470022E7
:10038000F6E710B513460A4604461946FFF7F0FF94
:10039000204610BD10B5044604E00B7800F8013B80
:1003A00003B1491C521EF8D2204610BD421C10F861
:1003B000011B0029FBD1801A704730B5044600208C
:1003C000034600E05B1C934203D2E05CCD5C401B23
:1003D000F8D030BD2DE9FE4F804681EA0300C00F02
:1003E0000C46009021F0004123F00045B8EB0200DC
:1003F000A94105D24046214690461C460B4602467E
:1004000023F00040104347D0270DC7F30A00C3F381
:100410000A510290401A019040286BDAC3F313008E
:1004200040F4801B0098924620B10023D2EB030ACF
:1004300063EB0B0B01985946C0F14002504600F0A7
:10044000A0F906460D4650465946019A00F0B8F903
:1004500010EB08006141002487EA115284EAE77337
:100460001A4340D0009A62B3019A012A4FEA075218
:1004700015DC001B61EB02014FF0004202EA07525B
:10048000CDE90042001C41F5801132462B4600F0B8
:10049000B8F903B0BDE8F08F40462146F9E7001BEC
:1004A00061EB0201001C41F5801300185B4120182C
:1004B000A2F5001747EB030140EAD570B6196D416C
:1004C00011E06D084FEA360645EAC0754FEA07525B
:1004D000001B61EB0201001C41F5801149084FEA45
:1004E00030000019514132462B4603B0BDE8F04FB1
:1004F00000F078B90098012240000023D0EB0202FE
:1005000063EBE073009821464FEAE074B8EB00001B
:1005100061EB0401E9E783F000435BE781F0004110
:1005200058E72DE9FE4F81EA030404F0004421F06E
:10053000004100944FF0000B23F0004350EA010407
:100540005ED052EA03045BD0C3F30A54C1F30A55E8
:100550002C44A4F2F3340194A0FB0254C1F3130120
:1005600041F48011C3F3130343F4801301FB0244ED
:1005700000FB034E840A970A44EA815447EA8357F2
:10058000A4FB076802958D0A05FB07854FEA932CAB
:1005900004FB0C542705029D4FEA065847EA16371C
:1005A000B5EB08056EEB070C870E920E47EA811734
:1005B00042EA8312A7FB0201B6EB0B0164EB0004D5
:1005C0002B0D43EA0C335E1844EB1C50DA465146BF
:1005D000E7FB0201C5F313044FEA0B3343EA14535C
:1005E0004FEA0432019C43EA0603A4F10C0402948E
:1005F000009CCDE900B400F004F903B0BDE8F08F31
:1006000000200146F9E72DE9F04D81EA030404F0EA
:10061000004B21F0004514464FF0000A23F0004142
:1006200050EA050220D054EA01021DD0C5F30A5752
:100630000246C5F31303C1F31300C1F30A5640F495
:10064000801543F48013A7EB0608101BD64608F26A
:10065000FD3873EB050002D308F1010801E09218A0
:100660005B41B8F1000F03DA00200146BDE8F08DD0
:1006700000204FF48011064684460EE0171B73EBF2
:10068000050705D3121B63EB050306434CEA010C77
:1006900049084FEA300092185B4150EA0107EDD15A
:1006A00052EA030012D082EA040083EA05010843FB
:1006B00005D0101BAB4106D20122002306E0002228
:1006C0004FF0004302E06FF0010253101AEB0600F6
:1006D0004CEB085110EB0A0041EB0B01BDE8F04D6B
:1006E00000F080B80EB540F2334102910021CDE90F
:1006F00000110A460B4600F084F803B000BDC1F3B8
:100700000A5210B5C1F3130140F2FF3341F48011D6
:100710009A4201DA002010BD40F233439A42A2F21D
:10072000334203DC524200F03BF810BD904010BD54
:1007300000F0004230F000400AD0C10D01F56071B8
:10074000C0F3160042EA0151C20840071143704746
:1007500000200146704730B50B460146002020229C
:10076000012409E021FA02F59D4205D303FA02F5BE
:10077000491B04FA02F52844151EA2F10102F1DC1E
:1007800030BD202A04DB203A00FA02F10020704735
:100790009140C2F1200320FA03F3194390407047BF
:1007A000202A04DB203A21FA02F00021704721FAC6
:1007B00002F3D040C2F1200291400843194670472D
:1007C000202A06DBCB17203A41FA02F043EAE07315
:1007D00006E041FA02F3D040C2F120029140084302
:1007E0001946704710B5141E73F1000408DA401C56
:1007F00041F1000192185B411A4301D120F0010040
:1008000010BD2DE9F04D92469B4611B1B1FA81F22F
:1008100002E0B0FA80F220329046FFF7B2FF0446C1
:100820000F4640EA0A0041EA0B0153465A46084384
:1008300013D0114653EA010019D0C8F140025046C6
:10084000FFF7AEFF05460E46504659464246FFF7B3
:1008500098FF084305D0012004E020463946BDE852
:10086000F08D0020054346EAE0762C4337430A9892
:100870006305E40AA0EB08000022FD0A44EA47549D
:100880000A3002D500200146E9E701051019694147
:10089000DDE9084500196941BDE8F04DA2E7C1F363
:1008A0000A52C1F3130140F2FF3341F480119A421E
:1008B00002DA00200146704740F233439A42A2F226
:1008C000334202DC5242FFF76BBFFFF75ABF000012
:1008D00030B5041E71F1000404DB4FF000444042C7
:1008E00064EB0101141E73F1000405DB1C464FF09C
:1008F0000043524263EB0403994208BF904230BD6B
:10090000064C074D06E0E06840F0010394E807005C
:1009100098471034AC42F6D3FFF73AFC540902086A
:100920007409020870B58C1810F8015B15F0070304
:1009300001D110F8013B2A1106D110F8012B03E078
:1009400010F8016B01F8016B5B1EF9D12B0705D480
:100950000023521E0DD401F8013BFAE710F8013BC9
:10096000CB1A921C03E013F8015B01F8015B521EE5
:10097000F9D5A142D8D3002070BD000055494A687E
:1009800022F440324A604A6843681A434A60026867
:10099000526822F4807203685A60026853680269E0
:1009A00043EA022203685A600268526822F04072E9
:1009B00003685A600268526883681A4303685A6081
:1009C0000268926822F4006203689A600268926882
:1009D000C3681A4303689A603F4B826A9A4218D0F0
:1009E0000268926822F0706203689A6002689268F6
:1009F000836A1A4303689A600268926822F0405240
:100A000003689A6002689268C36A1A4303689A602E
:100A10000BE00268926822F0706203689A600268D4
:100A2000926822F0405203689A600268926822F04D
:100A3000020203689A6002689368027E43EA4202F7
:100A400003689A602022125CA2B10268526842F4E4
:100A5000006203685A600268526822F460420368C8
:100A60005A6002685368426A521E43EA423203687F
:100A70005A6005E00268526822F4006203685A6016
:100A80000268D26A22F470020368DA620268D36AEA
:100A9000828B521E43EA02520368DA62026892684D
:100AA00022F4007203689A600268936890F830201C
:100AB00043EA422203689A600268926822F48062E4
:100AC00003689A6002689368426943EA8222036875
:100AD0009A607047002301400100000F00BFFEE74D
:100AE0000948006800F0200060B101200749087043
:100AF00000BF05480830006840F020000249083176
:100B0000086000BF70470000046402405C000020E1
:100B10007047016801F58051896921F0020201687E
:100B200001F580518A617047016801F5805189693A
:100B300041F00202016801F580518A617047016845
:100B400001F58051896921F40052016801F5805155
:100B50008A617047016801F58051896941F400524A
:100B6000016801F580518A617047000008B50849A5
:100B70000968C9084FF47A72B1FBF2F14143009160
:100B800000BF00BF00994A1E00920029F9D108BD9C
:100B90000000002038B5044600200090206800F5D1
:100BA0008050806940F48011206800F58050816198
:100BB000206800F58050806900900120FFF7D6FF83
:100BC0000099206800F58050816138BD10B50A4950
:100BD000886A07F083FD08B10DF0D0FC4FF4803136
:100BE0000548006800F580504161402102480068D6
:100BF00000F58050416110BD2005002030B503464E
:100C00001479557944EA0520084C0C442064D478C2
:100C10002406957844EA0544557844EA0524157875
:100C200044EA0500014C0C44606430BD0080024081
:100C300070B5AEB004460E46002526B14FF40061F3
:100C4000E160C900A16000201190129013901490EF
:100C500015901690E06918B94FF48060179001E084
:100C6000002017904FF400701890002019901A90EF
:100C70001B901C901D9040201E9000201F902090E3
:100C800021902290239024902590269080202790D8
:100C90000020289029902A902B902C902D9020684D
:100CA000056871480540DDE91101084313990843BF
:100CB00014990843A16808431599084316990843F5
:100CC000E16808431799084318990843199908439C
:100CD0001A9908431B99084305432068056020685A
:100CE0000568012000F068FA20680560DDE91C0154
:100CF00008431E9908431F990843209908432199E6
:100D000008432299084323990843216848602068D2
:100D10004568012000F050FA206845602498216859
:100D2000886025982168C860206885694FF6417001
:100D30000540DDE9261040EA014028990843299939
:100D400008432A9908432B99084305432068856185
:100D500020688569012000F02FFA20688561DDE9AF
:100D60002C0108432168C8612068C569012000F092
:100D700023FA2068C561002001904FF000700290B6
:100D8000002003904FF4001004900020059006907E
:100D90000790089004200990C0050A9040120B901B
:100DA00080010C9040120D9080200E9000200F903A
:100DB0001090206800F5805085692C480540DDE9D9
:100DC000010108430399084304990843059908431E
:100DD0000699084307990843089908430999084365
:100DE0000543206800F580508561206800F580503B
:100DF0008569012000F0E0F9206800F580508561E8
:100E0000DDE90A0108430C9908430D9908430E993E
:100E100008430F9940EA81001099084340F400010B
:100E2000206800F580500160206800F5805005685A
:100E3000012000F0C1F9206800F580500560A0692C
:100E4000012809D1206800F58050C069084908438D
:100E5000216801F58051C861002120466269FFF7D1
:100E6000CDFE2EB070BD00000F8120FF233FDEF8C5
:100E70004000010038B5044600200090206800685A
:100E800020F00400216808602068006800900120BC
:100E9000FFF76CFE00982168086038BD38B504463D
:100EA000002000902068006840F00400216808607D
:100EB0002068006800900120FFF758FE0098216824
:100EC000086038BD38B504460020009020680068EE
:100ED00020F0080021680860206800680090012068
:100EE000FFF744FE00982168086038BD38B5044615
:100EF000002000902068006840F008002168086029
:100F00002068006800900120FFF730FE00982168FB
:100F1000086038BD70B504461D460023B5F5804F06
:100F200013D154F822300C480340D1E9000640EABE
:100F300006108E6840EA06208E8940EA06408E69D7
:100F40003043034344F8223003E06FF0704044F82C
:100F50002200002070BD00000000F0CF10B5034655
:100F60000022086853F8202012480240D1E9010409
:100F70002043CC6820430C6920434C6920438C6992
:100F80002043CC6920430C6A20434C6A20438C6A7E
:100F90002043CC6A2043CC6B20430C6B204302439C
:100FA0008868082801D142F04002086843F82020F0
:100FB000002010BD8000F0FF30B503460024501C17
:100FC00053F8204004F04044D1E9000540EA051000
:100FD0008D6840EA05208D8940EA0545088A401E53
:100FE00045EA0055087D801E45EA00608D6928436A
:100FF0000443501C43F82040002030BD70B5044627
:1010000000250CB9012070BD1549A06A884200D0A6
:1010100000BF206C30B9204600F024F80020606446
:1010200084F83C00206C00F0100088B9206C20F49B
:10103000885040F0020020642046FFF79FFC00200B
:101040006064206C20F0020040F00100206400E0A9
:10105000012500BF002084F83C0000BF2846D2E7ED
:101060000100000F10B586B004461B492068884275
:1010700030D100BF00BF002000901848006840F445
:101080008070164908600846006800F4807000907F
:1010900000BF00BF00BF00BF00BF002000900F488E
:1010A0001438006840F001000C4914390860084603
:1010B000006800F00100009000BF00BF00BF2020CA
:1010C0000190032002900020039001A9044800F041
:1010D00089FD00BF06B010BD002001404438024029
:1010E0000000024070B50446A56D00F09BFE064668
:1010F00094F83500022808D08020606500BF0020E9
:1011000084F8340000BF012070BD2068006820F022
:101110001600216808602068406920F0800021687E
:101120004861206C08B9A06C28B12068006820F0E4
:101130000800216808602068006820F0010021682C
:1011400008600FE000F06EFE801B05280AD9202001
:10115000606500BF002084F8340000BF032084F8DD
:101160003500D1E72068006800F001000028E9D1CF
:1011700094F85C103F208840A86000BF002084F8ED
:10118000340000BF012084F835000020BCE7014690
:1011900091F83500022803D080204865012070476F
:1011A000052081F835000868006820F001000A6811
:1011B00010600020F3E7000070B5044600F032FE36
:1011C00006462546681C10B104480078054400BF57
:1011D00000F028FE801BA842FAD370BD400000201A
:1011E00070B504460D461646002200BF94F845002F
:1011F000012801D1022070BD012084F8450000BF04
:10120000022084F84400A56200221FE005EB421191
:101210004FF00040086044F2F4504860C2EBC21046
:1012200000EB400006EB80008860A069012803D134
:10123000486820F000404860581E904204D905EBF1
:1012400042102030C86000E0CD60521C9A42DDD3CD
:10125000206800F58050C560012084F8440000BF7C
:10126000002084F8450000BF00BFC4E770B5044605
:101270000D461646002200BF94F84500012801D112
:10128000022070BD012084F8450000BF022084F8D0
:101290004400E56200221BE005EB42114FF4801090
:1012A0000860C2EBC21000EB400006EB80008860D3
:1012B000E06918B9086840F440000860581E904280
:1012C00004D905EB42102030C86000E0CD60521C0C
:1012D0009A42E1D3206800F580500561012084F82E
:1012E000440000BF002084F8450000BF00BFC8E7ED
:1012F0000146002200BF91F84500012801D10220DB
:101300007047012081F8450000BF022081F84400A9
:10131000886A006800F00040002838D1886A0068B8
:1013200000F48070F0B1886B401C8863886B0128E2
:1013300001D1886A08638B6A4B63886A0068C0F3CE
:101340000D40021FCA63086B83680B64886AC0681B
:101350008862012081F8440000BF002081F8450028
:1013600000BFCDE7886A006800F4007048B1886A61
:10137000086300234B6301238B63886AC06888621B
:1013800005E0886B401C8863886AC0688862012019
:1013900081F8440000BF002081F8450000BF012013
:1013A000AEE700002DE9FC41044600250020019035
:1013B0009D4E0027804614B90120BDE8FC8194F8B9
:1013C000440028B9002084F84500204600F03AF98E
:1013D00000BF002000909548006840F48040934989
:1013E00008600846006800F48040009000BF00BF1D
:1013F0008F48006820F400008D49086008460068A6
:10140000216A08438A490860206800F58050006816
:1014100040F00101206800F58050016000F002FDFD
:1014200007460FE000F0FEFCC01BB0F5FA7F09D9BB
:10143000032084F8440000BF002084F8450000BF6A
:101440000320BAE7206800F58050006800F0010032
:101450000028E7D12068056925F01C0500F05EFE34
:1014600006467448864205D37348864202D245F048
:1014700008051AE07048864205D36B48864202D2BE
:1014800045F00C0511E06848864203D36B4886425C
:1014900000D20AE06948864205D36948864202D2F2
:1014A00045F0040501E045F01005206805614FF4A2
:1014B00000420021204600F04DFB48B14FF00108EA
:1014C00041462046FFF7B4FB012084F8440074E74E
:1014D000FF20FFF771FE6068002871D000F0A2FCC9
:1014E000074600BF01AA0121204600F0F9F900F0EB
:1014F00099FCC01B41F2883188420FD94FF0010896
:1015000041462046FFF794FB012084F8440000BFC9
:10151000002084F8450000BF03204EE7019800F04A
:1015200004000428DED182020021204600F012FBD4
:1015300048B14FF0010841462046FFF779FB0120F2
:1015400084F8440039E700F06DFC074600BF01AAAB
:101550000121204600F0C4F900F064FCC01B41F2F8
:10156000883188420FD94FF0010841462046FFF7E5
:101570005FFB012084F8440000BF002084F8450090
:1015800000BF032019E7019800F020002028DED1D9
:1015900001AA1121204600F0A3F948B14FF001083B
:1015A00041462046FFF744FB012084F8440004E74D
:1015B000019800F4005020B14FF40061E16002E0B6
:1015C0000EE00021E16044F21001019808408842D9
:1015D00002D10021A1601EE04FF48041A1601AE019
:1015E000E068C0F3CF00A168C1F34F0140EA0102F7
:1015F0000021204600F0AEFA48B14FF00108414604
:101600002046FFF715FB012084F84400D5E640F69C
:10161000FF70FFF7D1FD41462046FFF709FB01208F
:1016200084F844000020C8E6008793034438024051
:1016300004380140002D3101C00E160200E1F5050D
:1016400080D1F00810B586B0044600BF00BF00206E
:1016500000909E48006840F001009C4908600846E0
:10166000006800F00100009000BF00BF00BF00BF95
:1016700000BF002000900846006840F001000860AC
:101680000846006800F00100009000BF00BF00BFE6
:1016900000BF00BF002000900846006840F0010035
:1016A00008600846006800F00100009000BF00BF1D
:1016B00000BF00BF00BF002000900846006840F057
:1016C000040008600846006800F00400009000BFB5
:1016D00000BF00BF00BF00BF0020009008460068A8
:1016E00040F0040008600846006800F00400009024
:1016F00000BF00BF00BF00BF00BF00200090084631
:10170000006840F0040008600846006800F004002B
:10171000009000BF00BF00BF00BF00BF00200090CE
:101720000846006840F0400008600846006800F085
:101730004000009000BF00BF00BF00BF00BF0020FE
:1017400000900846006840F04000086008460068C5
:1017500000F04000009000BF00BF00BF00BF00BF0E
:10176000002000900846006840F0400008600846ED
:10177000006800F04000009000BF00BF00BF00BF45
:1017800000BF002000900846006840F480700860A8
:101790000846006800F48070009000BF00BF00BFE2
:1017A00000BF00BF002000900846006840F00070B5
:1017B00008600846006800F00070009000BF00BF9D
:1017C00000BF002000900846006840F0806008607C
:1017D0000846006800F08060009000BF00BF00BFB6
:1017E000002000900846006840F00060086008464D
:1017F000006800F00060009000BF00BF00BF022042
:101800000190029000200390032004900B2005908B
:1018100001A92F4800F0E6F90420019001A92C4805
:1018200000F0E0F98020019001A9294800F0DAF9E0
:101830000220019001A9274800F0D4F9102001905E
:1018400001A9244800F0CEF92020019001A92148E7
:1018500000F0C8F94FF40060019001A91E4800F0A3
:10186000C1F94FF40050019001A91B4800F0BAF9EA
:101870004FF48040019001A9174800F0B3F9082007
:10188000019001200290002003900320049001A900
:10189000124800F0A7F900BF002208210F4800F00D
:1018A000B5FA00BF322003F0D1FD00BF01220821AC
:1018B0000A4800F0ABFA00BF002206213D2000F0EC
:1018C00018FB3D2000F005FB06B010BD303802408B
:1018D000000002400008024000180240000C0240D4
:1018E0002DE9F04104460E4617460025A84694F817
:1018F0004400822802D10220BDE8F081822084F8D1
:1019000044002068056905F01C05208A4FF47841E1
:1019100001EAC0200543481100EA8610054325F07E
:10192000020545F001052068056100F07BFA80465C
:1019300012E000F077FAA0EB0800B0F5803F09D381
:10194000012084F8440000BF002084F8450000BF57
:101950000320D1E72068056905F001000028E8D1DF
:101960002068406980B23860012084F8440000207B
:10197000C2E710B5044600BF94F84500012801D124
:10198000022010BD012084F8450000BF022084F829
:1019900044002046FFF7AAFA2046FFF77FFA2046C8
:1019A000FFF7F8F82046FFF7D5F82046FFF7BCF818
:1019B000012084F8440000BF002084F8450000BFE7
:1019C00000BFDEE710B5044600BF94F845000128CB
:1019D00001D1022010BD012084F8450000BF022083
:1019E00084F844002046FFF7AAF82046FFF791F854
:1019F0002046FFF73FFA2046FFF7CCF82046FFF7D6
:101A000061FA012084F8440000BF002084F84500FA
:101A100000BF00BFDEE770B50246002300250024AA
:101A200000BF92F84500012801D1022070BD0120BD
:101A300082F8450000BF022082F8440049B9012025
:101A400082F8440000BF002082F8450000BF01205A
:101A5000ECE7D06A006800F0004048B1122082F83C
:101A6000440000BF002082F8450000BF0120DDE7F0
:101A700040F2F450814208D9B1FBF0F3B1FBF0F62B
:101A800000FB161010B15B1C00E00123012B13D1E9
:101A9000D06A006840F04050D66A3060C1F30C0054
:101AA000D66A7060D06A006840F00040D66A306044
:101AB000D06AC068D06232E000242EE0D06A0068AC
:101AC00020F04050D66A30602CB9D06A006840F0EF
:101AD0008050D66A306040F2F450D66A7060581E6A
:101AE000A04210D1D06A006840F00050D66A306041
:101AF000581EC0EBC01000EB4000A1EB8005C5F301
:101B00000C00D66A7060D06A006840F00040D66A67
:101B10003060D06AC068D062641C9C42CED310682A
:101B200000F58050406900F0040048B104261068B8
:101B300000F5805046610026106800F58050466030
:101B4000012082F8440000BF002082F8450000BF59
:101B500000BF6BE72DE9F04104460E46174600250D
:101B6000A84694F84400422802D10220BDE8F08142
:101B7000422084F844002068056905F01C05208A8D
:101B80004FF4784101EAC0200543481100EA86106D
:101B9000054345F0020545F00105B8B221684861EA
:101BA0002068056100F03EF9804612E000F03AF945
:101BB000A0EB0800B0F5803F09D3012084F8440071
:101BC00000BF002084F8450000BF0320CEE7206856
:101BD000056905F001000028E8D1012084F84400DF
:101BE0000020C3E7F8B502460B460025002400207C
:101BF0000021DEE0012606FA01F51E6806EA05046A
:101C0000AC4275D11E7906F00306012E04D01E7970
:101C100006F00306022E13D190684F000326BE4043
:101C2000B0434F00DE68BE403043906050680126EC
:101C30008E40B0431E79C6F300168E40304350608C
:101C40001E7906F00306032E09D0D0684F00032644
:101C5000BE40B0434F009E68BE403043D0601E7906
:101C600006F00306022E13D1CF0802F1200656F823
:101C700027004E07F70E0F26BE40B0434F07FF0E5A
:101C80001E69BE403043CF0802F1200646F8270007
:101C900010684F000326BE40B0431E7906F00306CD
:101CA0004F00BE40304310605E6806F08056B6F1CB
:101CB000805F7DD100BF00260096404E366846F416
:101CC00080463E4F3E603E46366806F480460096AB
:101CD00000BF00BF3A4E8F0856F827008E07370F17
:101CE0000F26BE40B043374EB24202D1002624E058
:101CF0005EE0354EB24201D101261EE0334EB242C3
:101D000001D1022619E0324EB24201D1032614E07D
:101D1000304EB24201D104260FE02F4EB24201D123
:101D200005260AE02D4EB24201D1062605E02C4ED2
:101D3000B24201D1072600E008268F073F0FBE40C0
:101D400030431F4E8F0846F82700264E3068A043C8
:101D50005E6806F48036B6F5803F00D12043214E00
:101D60003060361D3068A0435E6806F40036B6F574
:101D7000003F00D120431B4E361D3060361D3068B9
:101D8000A0435E6806F48016B6F5801F00D120439C
:101D9000144E08363060361D3068A0435E6806F485
:101DA0000016B6F5001F00D120430E4E0C363060F1
:101DB000491C1029FFF41EAFF8BD00004438024052
:101DC00008380140000002400004024000080240C0
:101DD000000C0240001002400014024000180240B3
:101DE000001C0240003C0140024613690B400BB14D
:101DF000012000E00020704710B5426921EA02038B
:101E000002EA010443EA0443836110BD0AB181611F
:101E100001E00B048361704701480068000C7047C3
:101E2000002004E0014800687047000038000020EE
:101E3000034800680349097808440149086070476D
:101E4000380000204000002010B50D48006840F424
:101E500000700B4908600846006840F48060086024
:101E60000846006840F480700860032000F080F8A5
:101E70000F2000F007F800F02BF8002010BD000044
:101E8000003C024070B504460E4800784FF47A7169
:101E9000B1FBF0F00C490968B1FBF0F5284600F001
:101EA0009BFC08B1012070BD102C07D200222146F6
:101EB000501E00F01EF80548046001E00120F2E722
:101EC0000020F0E740000020000000203C0000203F
:101ED000704701460846002809DB00F01F03012275
:101EE0009A4043099B0003F1E023C3F8002100BF9F
:101EF00070472DE9F05F80460D461646002702F038
:101F0000DFFD074639462A46334601F00700C0F197
:101F1000070ABAF1040F02D94FF0040A01E0C0F138
:101F2000070AD14600F1040ABAF1070F02D24FF0B6
:101F3000000A01E0A0F1030AD4464FF0010A0AFAB0
:101F400009FAAAF1010A0AEA020A0AFA0CFA4FF09F
:101F5000010B0BFA0CFBABF1010B0BEA030B4AEA8A
:101F60000B042146404602F0B3FDBDE8F09F00009F
:101F700000BF00F00702064B19684FF6FF03194037
:101F8000044B0B4343EA0221014B196000BF704729
:101F90000CED00E00000FA0570B504460D460CB9E2
:101FA000012070BD5848006800F00700A84209D21F
:101FB00055490D700846006800F00700A84201D09E
:101FC0000120EEE7207800F0020002281DD12078E1
:101FD00000F00400042805D14C48006840F4E050AB
:101FE0004A490860207800F00800082805D14748D1
:101FF000006840F46040454908604448006820F0AB
:10200000F000A168084341490860207800F0010011
:10201000A8B36068012807D13C4808380068C0F3BD
:102020004040B8B90120BCE76068022802D060686F
:10203000032807D1354808380068C0F3406048B924
:102040000120AEE7314808380068C0F3400008B905
:102050000120A6E72D48006820F0030061680843CE
:102060002A490860FFF7DEFE064609E0FFF7DAFEC0
:10207000801B41F28831884202D9032091E707E0B2
:102080002248006800F00C006168B0EB810FEDD1D0
:102090001D48006800F00700A84209D91A490D70D0
:1020A0000846006800F00700A84201D0012078E748
:1020B000207800F00400042807D11448006820F4B8
:1020C000E050E168084311490860207800F00800FA
:1020D000082808D10D48006820F46040216940EAD2
:1020E000C1000A49086000F03FF808490968C1F3D7
:1020F0000311074A515CC840064908600648006859
:10210000FFF7C0FE00204CE7003C024008380240C8
:10211000E4D20108000000203C00002001480068D3
:10212000704700000000002000B5FFF7F7FF0449EA
:102130000968C1F38221034A515CC84000BD000018
:1021400008380240F4D2010800B5FFF7E7FF044960
:102150000968C1F34231034A515CC84000BD000028
:1021600008380240F4D201082DE9F0470024002588
:102170000026A1462548006800F00C0020B1042884
:1021800005D008283AD105E0DFF8849039E0DFF87F
:10219000849036E01D48001F006800F03F041B4893
:1021A000001F006800F4800078B11A481749091F21
:1021B0000968C1F38811A0FB017001462246002383
:1021C0003846FEF767F805460EE011480F49091F2B
:1021D0000968C1F38811A0FB017001462246002363
:1021E0003846FEF757F805460848001F0068C0F358
:1021F0000140401C4600B5FBF6F902E0DFF8109004
:1022000000BF00BF4846BDE8F08700000838024024
:102210000024F40000127A00F8B504460CB901203D
:10222000F8BD207800F00100002874D0F94800685B
:1022300000F00C0004280DD0F648006800F00C00F7
:10224000082813D1F348001F006800F48000B0F59F
:10225000800F0BD1EF4808380068C0F340400028D9
:1022600059D06068002856D10120D9E700BF6068C6
:10227000B0F5803F08D1E7480838006840F4803066
:10228000E449083908601EE06068B0F5A02F0DD160
:10229000E0480838006840F48020DE4908390860CA
:1022A0000846006840F4803008600CE0D9480838DF
:1022B000006820F48030D749083908600846006873
:1022C00020F48020086000BF606890B1FFF7AAFD8D
:1022D000054606E0FFF7A6FD401B642801D9032050
:1022E0009EE7CC4808380068C0F340400028F1D091
:1022F00011E0FFF797FD054606E0FFF793FD401B51
:10230000642801D903208BE7C24808380068C0F36D
:1023100040400028F1D1207800F0020002285FD16F
:10232000BC48006800F00C0058B1BA48006800F0E2
:102330000C0008281CD1B748001F006800F480007A
:10234000B0B9B44808380068C0F3400020B1E06874
:10235000012801D0012063E7AE480838006820F06A
:10236000F800216940EAC100AA490839086037E04D
:10237000E06800B30120A8490860FFF753FD054657
:1023800006E0FFF74FFD401B022801D9032047E775
:10239000A04808380068C0F340000028F1D09D48EC
:1023A0000838006820F0F800216940EAC100994926
:1023B0000839086014E0002097490860FFF732FDF3
:1023C000054606E0FFF72EFD401B022801D9032039
:1023D00026E7904808380068C0F340000028F1D193
:1023E000207800F0080008282CD16069A8B10120ED
:1023F0008A490860FFF716FD054606E0FFF712FD63
:10240000401B022801D903200AE782486C3000688B
:10241000C0F340000028F1D014E000207F4908609C
:10242000FFF700FD054606E0FFF7FCFC401B022815
:1024300001D90320F4E677486C300068C0F340000F
:102440000028F1D1207800F00400042870D1002782
:1024500070483830006800F0805090B900BF00200C
:1024600000906C483830006840F08050694938313D
:1024700008600846006800F08050009000BF00BF70
:1024800001276748006800F48070B0B964480068AC
:1024900040F4807062490860FFF7C4FC054606E01E
:1024A000FFF7C0FC401B022801D90320B8E65C48B6
:1024B000006800F480700028F2D000BFA0680128F6
:1024C00008D154486830006840F001005149683133
:1024D00008601DE0A06805280DD14E4868300068EE
:1024E00040F004004B49683108600846006840F03D
:1024F000010008600CE047486830006820F00100E7
:102500004449683108600846006820F0040008600B
:1025100000BFA068A8B1FFF785FC054609E0FFF7FA
:1025200081FC401B41F28831884202D9032077E6C2
:1025300026E0384868300068C0F340000028EED03C
:1025400013E0FFF76FFC054608E0FFF76BFC401B4C
:1025500041F28831884201D9032061E62D48683074
:102560000068C0F340000028EFD1012F07D12948AF
:102570003830006820F0805026493831086000BFAC
:10258000A069002845D02348006800F00C00082806
:102590005DD0A069022845D100201F490866FFF7D9
:1025A00041FC054606E0FFF73DFC401B022801D92F
:1025B000032035E6174808380068C0F3406000285B
:1025C000F1D1D4E907010843616A40EA811101228F
:1025D000A06AC2EB500041EA00412C20005D41EAB4
:1025E00000600C49091F086001200B490866FFF7CD
:1025F00019FC054606E0FFF715FC401B022801D92F
:1026000003200DE6034808380068C0F34060002846
:10261000F1D049E00838024000004742800E4742AE
:1026200000700040002021490866FFF7FBFB0546CB
:1026300006E0FFF7F7FB401B022801D90320EFE576
:102640001B480068C0F340600028F2D12CE0A0696C
:10265000012800D1E4E51648001D0668A06901289C
:1026600020D006F48001E06981421BD106F03F01D1
:10267000206A814216D147F6C0703040616AB0EBE3
:10268000811F0FD106F440310122A06AC2EB500035
:10269000B1EB004F06D106F070612C20005DB1EB6C
:1026A000006F01D00120BBE50020B9E500004742E2
:1026B0000038024070B504460E4615460CB901209C
:1026C00070BD94F8490028B9002084F848002046DD
:1026D00000F01CF804F108012068FEF73FFC3146C9
:1026E000A2682068FEF768FC2946236BD4E9010242
:1026F000FEF710FCA168206850F8210040F00100AE
:10270000A268216841F822000020D9E710B586B000
:10271000044600BF002000902248006840F00100FD
:10272000204908600846006800F00100009000BFE2
:1027300000BF00BF002000901A480838006840F031
:1027400008001849083908600846006800F00800C9
:10275000009000BF00BF00BF002000900846006846
:1027600040F0100008600846006800F0100000907B
:1027700000BF00BF4CF203700190022002900120C4
:102780000390022004900C20059001A90648FFF751
:1027900029FA4FF68070019001A90448FFF722FA48
:1027A00006B010BD38380240000C02400010024054
:1027B000042808D14FF0E021096941F004014FF0ED
:1027C000E022116107E04FF0E021096921F00401E6
:1027D0004FF0E0221161704770B504462546681E2F
:1027E000B0F1807F01D301200FE0681E4FF0E0219F
:1027F00048610F214FF0FF3002F06AF900204FF0DE
:10280000E021886107200861002070BD10B50446F2
:102810000CB9012010BD94F83D0028B9002084F8BF
:102820003C00204600F025F8022084F83D00211DE0
:10283000206801F085FE012084F8460000BF84F87E
:102840003E0001213F200155402001554120015506
:1028500000BF00BF012084F84200432001554420FE
:1028600001554520015500BF012084F83D0000209E
:10287000D0E77047014691F83D00012801D00120C2
:102880007047022081F83D000868C06840F00100F0
:102890000B68D8601A4B086898421BD00868B0F1E2
:1028A000804F17D0174B0868984213D0164B086812
:1028B00098420FD0154B086898420BD0144B08680B
:1028C000984207D0134B0868984203D0124B08680F
:1028D00098420CD10868806800F00702062A0CD0E4
:1028E0000868006840F001000B68186005E008689F
:1028F000006840F001000B6818600020C0E700008D
:10290000000001400004004000080040000C0040AE
:10291000000401400040014000180040704770472B
:102920002DE9F84F0446206805682068C6682068CD
:1029300047694FF00009CA4605F00F09B9F1000FC9
:102940000AD105F0200038B106F0200020B1204661
:1029500001F0BFFEBDE8F88FB9F1000F72D007F0AB
:10296000010018B906F4907000286BD005F0010042
:1029700030B106F4807018B1206C40F00100206482
:1029800005F0040030B107F0010018B1206C40F0F0
:102990000200206405F0020030B107F0010018B118
:1029A000206C40F00400206405F0080048B106F0F7
:1029B000200010B907F0010018B1206C40F00800A9
:1029C0002064206C70B305F0200028B106F02000D0
:1029D00010B1204601F07DFE20684069C0F3801AE6
:1029E000206C00F0080010B9BAF1000F23D0204687
:1029F00001F044FE2068406900F04000402816D1F4
:102A00002068406920F0400021684861A06B50B107
:102A10005648A16B0865A06BFEF7B9FB10B1A06B1F
:102A2000016D88470CE02046FFF779FF08E020465B
:102A3000FFF775FF04E02046FFF771FF00202064D8
:102A400088E7FFE7206B012879D105F01000002806
:102A500075D006F01000002871D000BF0020009053
:102A600020680068009020684068009000BF00BFA8
:102A70002068406900F04000402839D1A06B006810
:102A800040681FFA80F8B8F1000F30D0A08D4045A3
:102A90002DDDA4F82E80A06BC069B0F5807F1FD01B
:102AA0002068C06820F480702168C8602068406990
:102AB00020F00100216848612068406920F0400052
:102AC00021684861202084F83E00002020632068AF
:102AD000C06820F010002168C860A06BFEF702FB00
:102AE000A08DE28D801A81B22046FFF717FF31E7F3
:102AF000A08DE18D401A1FFA80F8E08DE8B1B8F1A1
:102B0000000F1AD02068C06820F490702168C86057
:102B10002068406920F0010021684861202084F885
:102B20003E00002020632068C06820F0100021686B
:102B3000C86041462046FFF7F1FE0BE7FFE705F0CE
:102B4000800030B106F0800018B1204601F059FF36
:102B500000E705F0400030B106F0400018B1204613
:102B600001F0A7FDF6E600BFF4E6000069460008A4
:102B700010B504460CB9012010BDA06900B100E0F9
:102B800000BF94F83D0028B9002084F83C0020469E
:102B900000F028F8242084F83D002068C06820F464
:102BA00000502168C860204601F0F2FD20680069ED
:102BB00020F49040216808612068406920F02A00D4
:102BC000216848612068C06840F400502168C860EE
:102BD00000202064202084F83D0084F83E0000207E
:102BE000CAE7000010B586B004462E492068884226
:102BF00055D100BF00BF002000902B48006840F076
:102C00001000294908600846006800F01000009094
:102C100000BF00BF00BF00BF00BF002000902248DF
:102C20001438006840F001001F4914390860084654
:102C3000006800F00100009000BF00BF00BF00BFAF
:102C400000BF002000900846006840F001000860C6
:102C50000846006800F00100009000BF00BF00BF00
:102C60004815019002200290012003900220049058
:102C70000720059001A90D48FEF7B4FF4FF48060CE
:102C800001900720059001A90848FEF7ABFF252019
:102C9000FFF71FF9032211462520FFF72AF906B096
:102CA00010BD000000100140443802400000024006
:102CB00070B504460D46164694F83E00202816D1FD
:102CC00005B10EB9012070BD00BF94F83C00012889
:102CD00001D10220F7E7012084F83C0000BF00206A
:102CE000206332462946204601F068FEEBE70220C9
:102CF000E9E7000010B504462049206888423BD12E
:102D00001F48008800F4004088BB1D48008800F47C
:102D1000804070B11B4800780A2803D00020184971
:102D2000088024E01648008840F4004014490880D8
:102D30001DE0144800780D2806D11148008840F4A1
:102D400080400F49088012E00E4800780C4909883D
:102D5000C1F30D010C4A505409480088401C084931
:102D6000088008460088C72801DD0020088001226D
:102D700004490648FFF79CFF10BD00000010014009
:102D80003400002036000020640300202C040020C2
:102D9000704700BFFEE700BFFEE770477CB5064600
:102DA0000D46002412E0042C01D2012100E0002194
:102DB00005F1140050F8210004F00301C1F10301F2
:102DC000C900C840C0B20DF80400641C082CEAD346
:102DD00001221CA1284601F03DFB04E001221AA1BA
:102DE000284601F037FBA88A00F4FC70B0F5E07FBC
:102DF000F4D108226946284601F02CFB00240AE0A1
:102E0000A00855F8200004F00301C1F10301C90036
:102E1000C8403055641C142CF2D30024402105F125
:102E20001C00FDF7ACFA14212846FDF7A8FA002093
:102E30006861A8610090019005F11C01284600F02E
:102E40001BF87CBD80000000000000000749016005
:102E5000074941600549C94381600549C943C160CB
:102E60000449016100228261426170470123456784
:102E700089ABCDEFF0E1D2C32DE9F04F91B081469F
:102E80008A4601AC402251462046FDF751FAD9F856
:102E90000050D9F80460D9F80870D9F80C80D9F836
:102EA00010B020780006216840EA112000F0FF21D0
:102EB00020880002226840EA126000F0FF100143FF
:102EC00087EA0800304080EA080008442160FE4993
:102ED0000844690141EAD56108448344B00740EAE7
:102EE000960620790006616840EA112000F0FF2173
:102EF000A0880002626840EA126000F0FF100143FF
:102F000086EA07002840784008446160EE4908449A
:102F10004FEA4B1141EADB6108448044A80740EACC
:102F20009505207A0006A16840EA112000F0FF21F3
:102F300020890002A26840EA126000F0FF100143FD
:102F400085EA060000EA0B0070400844A160DE49F3
:102F500008444FEA481141EAD861084407444FEA5F
:102F60008B7040EA9B0B207B0006E16840EA112051
:102F700000F0FF21A0890002E26840EA126000F040
:102F8000FF1001438BEA050000EA0800684008448E
:102F9000E160CD490844790141EAD761084406441B
:102FA0004FEA887040EA9808207C0006216940EAD0
:102FB000112000F0FF21208A0002226940EA1260FD
:102FC00000F0FF10014388EA0B00384080EA0B0054
:102FD00008442161BC490844710141EAD6610844B2
:102FE0000544B80740EA9707207D0006616940EA7A
:102FF000112000F0FF21A08A0002626940EA1260FD
:1030000000F0FF10014387EA0800304080EA080022
:1030100008446161AC490844690141EAD56108444A
:103020008344B00740EA9606207E0006A16940EA84
:10303000112000F0FF21208B0002A26940EA1260FB
:1030400000F0FF10014386EA07002840784008445A
:10305000A1619D4908444FEA4B1141EADB610844F4
:103060008044A80740EA9505207F0006E16940EA10
:10307000112000F0FF21A08B0002E26940EA1260FB
:1030800000F0FF10014385EA060000EA0B007040E3
:103090000844E1618C4908444FEA481141EAD8618B
:1030A000084407444FEA8B7040EA9B0B94F82000D9
:1030B0000006216A40EA112000F0FF21208C000266
:1030C000226A40EA126000F0FF1001438BEA05001B
:1030D00000EA08006840084421627B4908447901FD
:1030E00041EAD761084406444FEA887040EA9808EC
:1030F00094F824000006616A40EA112000F0FF21E4
:10310000A08C0002626A40EA126000F0FF100143E6
:1031100088EA0B00384080EA0B00084461626A4983
:103120000844710141EAD66108440544B80740EA01
:10313000970794F828000006A16A40EA112000F0E1
:10314000FF21208D0002A26A40EA126000F0FF1009
:10315000014387EA0800304080EA08000844A16281
:1031600059490844690141EAD56108448344B007DC
:1031700040EA960694F82C000006E16A40EA112025
:1031800000F0FF21A08D0002E26A40EA126000F028
:10319000FF10014386EA0700284078400844E162B6
:1031A000494908444FEA4B1141EADB610844804435
:1031B000A80740EA950594F830000006216B40EA24
:1031C000112000F0FF21208E0002226B40EA1260E5
:1031D00000F0FF10014385EA060000EA0B00704092
:1031E00008442163384908444FEA481141EAD8614C
:1031F000084407444FEA8B7040EA9B0B94F8340074
:103200000006616B40EA112000F0FF21A08E000251
:10321000626B40EA126000F0FF1001438BEA050088
:1032200000EA0800684008446163274908447901BE
:1032300041EAD761084406444FEA887040EA98089A
:1032400094F838000006A16B40EA112000F0FF213D
:10325000208F0002A26B40EA126000F0FF100143D1
:1032600088EA0B00384080EA0B000844A163164945
:103270000844710141EAD66108440544B80740EAB0
:10328000970794F83C000006E16B40EA112000F03B
:10329000FF21A08F0002E26B40EA126000F0FF10F5
:1032A000014387EA0800304080EA08000844E163EF
:1032B00005490844690141EAD56108448344B007DF
:1032C00040EA9606216A01E09979825A606B48408B
:1032D000A1684840216848404100226A606B504024
:1032E000A26850402268504041EAD07186EA070047
:1032F0002840784008442160FE4908444FEA4B11B9
:1033000041EADB6108448044A80740EA9505616A08
:10331000A06B4840E1684840616848404100626AEB
:10332000A06B5040E26850406268504041EAD07162
:1033300085EA060000EA0B00704008446160ED4930
:1033400008444FEA481141EAD861084407444FEA6B
:103350008B7040EA9B0BA16AE06B484021694840B2
:10336000A16848404100A26AE06B50402269504089
:10337000A268504041EAD0718BEA050000EA0800DB
:1033800068400844A160DB490844790141EAD761FB
:10339000084406444FEA887040EA9808E16A2068C9
:1033A000484061694840E16848404100E26A20685D
:1033B000504062695040E268504041EAD07188EA6A
:1033C0000B00384080EA0B000844E160C94908441A
:1033D000710141EAD66108440544B80740EA9707FD
:1033E000216B60684840A16948402169484041001C
:1033F000226B60685040A26950402269504041EA07
:10340000D07186EA070080EA080008442161BA49C1
:103410000844690141EAD56108448344B00740EAA1
:103420009606616BA0684840E16948406169484080
:103430004100626BA0685040E269504062695040B0
:1034400041EAD07185EA0600784008446161AA49E2
:1034500008444FEA4B1141EADB6108448044A80765
:1034600040EA9505A16BE0684840216A4840A1699F
:1034700048404100A26BE0685040226A5040A26977
:10348000504041EAD0718BEA050070400844A161C8
:10349000994908444FEA481141EAD8610844074471
:1034A0004FEA8B7040EA9B0BE16B20694840616AF0
:1034B0004840E16948404100E26B20695040626A3F
:1034C0005040E269504041EAD07188EA0B00684000
:1034D0000844E16188490844790141EAD761084418
:1034E00006444FEA887040EA9808216860694840BD
:1034F000A16A4840216A4840410022686069504002
:10350000A26A5040226A504041EAD07187EA08001E
:1035100080EA0B000844216277490844710141EABE
:10352000D66108440544B80740EA97076168A06976
:103530004840E16A4840616A484041006268A069C9
:103540005040E26A5040626A504041EAD07186EAD7
:10355000070080EA0800084461626749084469017D
:1035600041EAD56108448344B00740EA9606A16861
:10357000E0694840216B4840A16A48404100A26888
:10358000E0695040226B5040A26A504041EAD0713D
:1035900085EA060078400844A162574908444FEA8A
:1035A0004B1141EADB6108448044A80740EA9505D5
:1035B000E168206A4840616B4840E16A4840410048
:1035C000E268206A5040626B5040E26A504041EA33
:1035D000D0718BEA050070400844E1624649084416
:1035E0004FEA481141EAD861084407444FEA8B701A
:1035F00040EA9B0B2169606A4840A16B4840216BFF
:10360000484041002269606A5040A26B5040226BE2
:10361000504041EAD07188EA0B00684008442163B9
:1036200035490844790141EAD761084406444FEA24
:10363000887040EA98086169A06A4840E16B484098
:10364000616B484041006269A06A5040E26B5040A3
:10365000626B504041EAD07187EA080080EA0B00B3
:103660000844616324490844710141EAD661084471
:103670000544B80740EA9707A169E06A4840216815
:103680004840A16B48404100A269E06A504022686E
:103690005040A26B504041EAD07186EA070080EAB0
:1036A00008000844A16314490844690141EAD5614E
:1036B00008448344B00740EA9606E169206B48401D
:1036C00061684840E16B48404100E269206B50402E
:1036D00062685040E26B504041EAD07185EA0600D2
:1036E00078400844E163044908444FEA4B1141EA39
:1036F000DB6103E09979825AA1EBD96E08448044DA
:10370000A80740EA9505216A606B4840A1684840D7
:10371000216848404100226A606B5040A2685040D6
:103720002268504041EAD0718BEA0500704008449D
:103730002160FE4908444FEA481141EAD861084433
:1037400007444FEA8B7040EA9B0B616AA06B4840CC
:10375000E1684840616848404100626AA06B50409F
:10376000E26850406268504041EAD07188EA0B003C
:10377000684008446160ED490844790141EAD76135
:10378000084406444FEA887040EA9808A16AE06B52
:10379000484021694840A16848404100A26AE06B66
:1037A000504022695040A268504041EAD07187EAF7
:1037B000080080EA0B000844A160DC49084471015C
:1037C00041EAD66108440544B80740EA9707E16A30
:1037D0002068484061694840E16848404100E26A29
:1037E0002068504062695040E268504041EAD07120
:1037F00086EA070080EA08000844E160CB490844F3
:10380000690141EAD56108448344B00740EA96065D
:10381000216B60684840A1694840216948404100E7
:10382000226B60685040A26950402269504041EAD2
:10383000D07185EA0600784008442161BB490844FC
:103840004FEA4B1141EADB6108448044A80740EA93
:103850009505616BA0684840E1694840616948404E
:103860004100626BA0685040E2695040626950407C
:1038700041EAD0718BEA0500704008446161AB49B0
:1038800008444FEA481141EAD861084407444FEA26
:103890008B7040EA9B0BA16BE0684840216A48406E
:1038A000A16948404100A26BE0685040226A504044
:1038B000A269504041EAD07188EA0B006840084490
:1038C000A1619A490844790141EAD7610844064454
:1038D0004FEA887040EA9808E16B20694840616AC5
:1038E0004840E16948404100E26B20695040626A0B
:1038F0005040E269504041EAD07187EA080080EA0E
:103900000B000844E16189490844710141EAD6612C
:1039100008440544B80740EA9707216860694840B1
:10392000A16A4840216A48404100226860695040CD
:10393000A26A5040226A504041EAD07146EA07002C
:1039400000EA080006EA07021043084421627849A9
:103950000844690141EAD56108448344B00740EA5C
:1039600096066168A0694840E16A4840616A48403B
:1039700041006268A0695040E26A5040626A50406B
:1039800041EAD07145EA0600384005EA06021043D4
:1039900008446162664908444FEA4B1141EADB6121
:1039A00008448044A80740EA9505A168E0694840BA
:1039B000216B4840A16A48404100A268E06950403C
:1039C000226B5040A26A504041EAD0714BEA050098
:1039D00030400BEA050210430844A16254490844F0
:1039E0004FEA481141EAD861084407444FEA8B7016
:1039F00040EA9B0BE168206A4840616B4840E16AFD
:103A000048404100E268206A5040626B5040E26AE0
:103A1000504041EAD07148EA0B00284008EA0B0206
:103A200010430844E16242490844790141EAD76100
:103A3000084406444FEA887040EA98082169606AA1
:103A40004840A16B4840216B484041002269606AB0
:103A50005040A26B5040226B504041EAD07147EA7F
:103A6000080000EA0B0007EA08021043084421633B
:103A70002F490844710141EAD66108440544B8075A
:103A800040EA97076169A06A4840E16B4840616B72
:103A9000484041006269A06A5040E26B5040626B4E
:103AA000504041EAD07146EA070000EA080006EA01
:103AB00007021043084461631D490844690141EA53
:103AC000D56108448344B00740EA9606A169E06ADC
:103AD000484021684840A16B48404100A269E06A23
:103AE000504022685040A26B504041EAD07145EAF4
:103AF0000600384005EA060210430844A1630C4959
:103B000008444FEA4B1141EADB6108448044A807AE
:103B100040EA9505E169206B484061684840E16BE7
:103B200048404100E269206B504003E0A1EBD96EB0
:103B3000DCBC1B8F62685040E26B504041EAD071A0
:103B40004BEA050030400BEA050210430844E163EC
:103B5000FE4908444FEA481141EAD8610844074445
:103B60004FEA8B7040EA9B0B216A606B4840A1686A
:103B70004840216848404100226A606B5040A2687A
:103B800050402268504041EAD07148EA0B0028407A
:103B900008EA0B02104308442160EC49084479010B
:103BA00041EAD761084406444FEA887040EA980821
:103BB000616AA06B4840E168484061684840410044
:103BC000626AA06B5040E26850406268504041EA2F
:103BD000D07147EA080000EA0B0007EA0802104328
:103BE00008446160D9490844710141EAD66108443A
:103BF0000544B80740EA9707A16AE06B484021698D
:103C00004840A16848404100A26AE06B50402269E8
:103C10005040A268504041EAD07146EA070000EAED
:103C2000080006EA070210430844A160C749084497
:103C3000690141EAD56108448344B00740EA960629
:103C4000E16A2068484061694840E16848404100B5
:103C5000E26A2068504062695040E268504041EAA0
:103C6000D07145EA0600384005EA060210430844D0
:103C7000E160B64908444FEA4B1141EADB61084470
:103C80008044A80740EA9505216B60684840A16917
:103C90004840216948404100226B60685040A26959
:103CA00050402269504041EAD0714BEA0500304053
:103CB0000BEA0502104308442161A44908444FEA75
:103CC000481141EAD861084407444FEA8B7040EA42
:103CD0009B0B616BA0684840E169484061694840BE
:103CE0004100626BA0685040E269504062695040F8
:103CF00041EAD07148EA0B00284008EA0B02104361
:103D00000844616191490844790141EAD761084456
:103D100006444FEA887040EA9808A16BE068484082
:103D2000216A4840A16948404100A26BE0685040C8
:103D3000226A5040A269504041EAD07147EA080027
:103D400000EA0B0007EA080210430844A1617F491A
:103D50000844710141EAD66108440544B80740EAC5
:103D60009707E16B20694840616A4840E169484033
:103D70004100E26B20695040626A5040E269504065
:103D800041EAD07146EA070000EA080006EA0702A5
:103D900010430844E1616D490844690141EAD56175
:103DA00008448344B00740EA9606216860694840A9
:103DB000A16A4840216A4840410022686069504039
:103DC000A26A5040226A504041EAD07145EA06009A
:103DD000384005EA06021043084421625B49084462
:103DE0004FEA4B1141EADB6108448044A80740EAEE
:103DF00095056168A0694840E16A4840616A4840A9
:103E000041006268A0695040E26A5040626A5040D6
:103E100041EAD0714BEA050030400BEA050210433D
:103E200008446162494908444FEA481141EAD861AF
:103E3000084407444FEA8B7040EA9B0BA168E06995
:103E40004840216B4840A16A48404100A268E069AF
:103E50005040226B5040A26A504041EAD07148EA7B
:103E60000B00284008EA0B0210430844A1623749BE
:103E70000844790141EAD761084406444FEA887052
:103E800040EA9808E168206A4840616B4840E16A6E
:103E900048404100E268206A5040626B5040E26A4C
:103EA000504041EAD07147EA080000EA0B0007EAF7
:103EB000080210430844E16224490844710141EAC0
:103EC000D66108440544B80740EA97072169606A4B
:103ED0004840A16B4840216B484041002269606A1C
:103EE0005040A26B5040226B504041EAD07186EAAC
:103EF000070080EA08000844216315490844690165
:103F000041EAD56108448344B00740EA96066169F6
:103F1000A06A4840E16B4840616B484041006269DB
:103F2000A06A5040E26B5040626B504041EAD07151
:103F300085EA0600784008446163054908444FEA71
:103F40004B1141EADB610844804403E0DCBC1B8F79
:103F5000D6C162CAA80740EA9505A169E06A48404F
:103F600021684840A16B48404100A269E06A504086
:103F700022685040A26B504041EAD0718BEA0500A4
:103F800070400844A163FE4908444FEA481141EAE1
:103F9000D861084407444FEA8B7040EA9B0BE16903
:103FA000206B484061684840E16B48404100E2694D
:103FB000206B504062685040E26B504041EAD07143
:103FC00088EA0B0068400844E163ED490844790140
:103FD00041EAD761084406444FEA887040EA9808ED
:103FE000216A606B4840A168484021684840410010
:103FF000226A606B5040A26850402268504041EAFB
:10400000D07187EA080080EA0B0008442160DC498F
:104010000844710141EAD66108440544B80740EA02
:104020009707616AA06B4840E16848406168484072
:104030004100626AA06B5040E268504062685040A4
:1040400041EAD07186EA070080EA0800084461600E
:10405000CB490844690141EAD56108448344B0076B
:1040600040EA9606A16AE06B484021694840A16891
:1040700048404100A26AE06B504022695040A2686B
:10408000504041EAD07185EA060078400844A160BA
:10409000BB4908444FEA4B1141EADB6108448044C4
:1040A000A80740EA9505E16A2068484061694840F0
:1040B000E16848404100E26A20685040626950402F
:1040C000E268504041EAD0718BEA05007040084434
:1040D000E160AB4908444FEA481141EAD86108441D
:1040E00007444FEA8B7040EA9B0B216B60684840A5
:1040F000A1694840216948404100226B60685040F6
:10410000A26950402269504041EAD07188EA0B0010
:104110006840084421619A490844790141EAD7611D
:10412000084406444FEA887040EA9808616BA0682A
:104130004840E1694840616948404100626BA068BD
:104140005040E26950406269504041EAD07187EACC
:10415000080080EA0B000844616189490844710144
:1041600041EAD66108440544B80740EA9707A16BC5
:10417000E0684840216A4840A16948404100A26B7C
:10418000E0685040226A5040A269504041EAD07134
:1041900086EA070080EA08000844A16178490844DB
:1041A000690141EAD56108448344B00740EA9606B4
:1041B000E16B20694840616A4840E169484041003C
:1041C000E26B20695040626A5040E269504041EA27
:1041D000D07185EA060078400844E16168490844E6
:1041E0004FEA4B1141EADB6108448044A80740EAEA
:1041F0009505216860694840A16A4840216A4840A5
:104200004100226860695040A26A5040226A5040D2
:1042100041EAD0718BEA0500704008442162584998
:1042200008444FEA481141EAD861084407444FEA7C
:104230008B7040EA9B0B6168A0694840E16A484086
:10424000616A484041006268A0695040E26A50409B
:10425000626A504041EAD07188EA0B006840084425
:10426000616247490844790141EAD761084406443C
:104270004FEA887040EA9808A168E0694840216BDD
:104280004840A16A48404100A268E0695040226B62
:104290005040A26A504041EAD07187EA080080EAA3
:1042A0000B000844A16236490844710141EAD66115
:1042B00008440544B80740EA9707E168206A484087
:1042C000616B4840E16A48404100E268206A504022
:1042D000626B5040E26A504041EAD07186EA0700C2
:1042E00080EA08000844E16225490844690141EA7E
:1042F000D56108448344B00740EA96062169606AA4
:104300004840A16B4840216B484041002269606AE7
:104310005040A26B5040226B504041EAD07185EA78
:104320000600784008442163154908444FEA4B11C0
:1043300041EADB6108448044A80740EA95056169C9
:10434000A06A4840E16B4840616B484041006269A7
:10435000A06A5040E26B5040626B504041EAD0711D
:104360008BEA0500704008446163054908444FEA40
:10437000481141EAD861084407444FEA8B7001E0D4
:10438000D6C162CA40EA9B0BA169E06A4840216835
:104390004840A16B48404100A269E06A5040226851
:1043A0005040A26B504041EAD07188EA0B0068404F
:1043B0000844A16326490844790141EAD7610844C9
:1043C00006444FEA887040EA9808E169206B48404B
:1043D00061684840E16B48404100E269206B504011
:1043E00062685040E26B504041EAD07187EA0800B1
:1043F00080EA0B000844E16315490844710141EA71
:10440000D66108440544B80740EA9707D9F8000088
:104410002844C9F80000D9F804003044C9F8040061
:10442000D9F808003844C9F80800D9F80C0040440D
:10443000C9F80C00D9F810005844C9F81000002041
:104440008346804607460646054611B0BDE8F08F14
:10445000D6C162CA2DE9F047044689461546C846CA
:10446000A08AC0F3C507606900EBC5006061B0EBCE
:10447000C50F02D2A069401CA061A06900EB557174
:10448000A16178193F281AD9C7F14006324604F1D4
:104490001C01C8194146FBF74BFF04F11C012046E3
:1044A000FEF7EAFC05E008EB06012046FEF7E4FC17
:1044B000403606F13F00A842F5D3002700E0002671
:1044C000AA1B08EB060104F11C03D819FBF730FF07
:1044D000BDE8F08710B5FDF7ABFC18F0D1FA012864
:1044E00001D017F001FD10BD0348006840F47000D2
:1044F000014908607047000088ED00E010B50E48E3
:104500000068C06800F0010078B10C490869804774
:10451000002009490968486200BF6420064909680B
:10452000C86264210448C16000BF6FF00100024905
:104530000968086110BD0000B8060020AC0000202A
:1045400010B50268294B98420ED0B0F1804F0BD0C5
:10455000274B984208D0274B984205D0264B9842CB
:1045600002D0264B984203D122F070024B681A43C6
:104570001E4B984220D0B0F1804F1DD01C4B98426A
:104580001AD01C4B984217D01B4B984214D01B4B8F
:10459000984211D01A4B98420ED01A4B98420BD029
:1045A000194B984208D0194B984205D0184B9842A5
:1045B00002D0184B984203D122F44072CB681A43C0
:1045C00022F080034C6943EA040202608B68C362F4
:1045D0000B688362054B984202D0084B984201D188
:1045E0000B6903630123436110BD0000000001401B
:1045F0000004004000080040000C0040000401409E
:1046000000400140004401400048014000180040C3
:10461000001C00400020004010B504460648007809
:10462000401C0549087000231A46194603480068D3
:1046300017F04CFD10BD0000290000201C000020D8
:1046400010B5044606480078401C05490870002350
:104650001A4619460348006817F038FD10BD0000DF
:10466000280000201800002070B50546AC6B002023
:10467000E085E0842046FEF752F970BD0168C96804
:1046800021F490710268D1600168496921F001014B
:1046900002685161016B012905D10168C96821F0E7
:1046A00010010268D160202180F83E1000210163D2
:1046B000704710B504462068C06820F040002168AB
:1046C000C860202084F83D002046FEF761FB0020F2
:1046D00010BD70B5044694F83E00222856D1A0685B
:1046E000B0F5805F0CD1206950B90025A66A20681A
:1046F0004068C0F308003080A06A801CA06215E00A
:10470000A56A0026A068B0F5805F03D0A06828B92C
:10471000206918B920684068287004E02068406863
:1047200000F07F002870A06A401CA062E08D401E4F
:1047300080B2E08540BB2068C06820F0200021687E
:10474000C8602068C06820F480702168C860206854
:10475000406920F0010021684861202084F83E0073
:10476000206B01280AD12068C06820F01000216861
:10477000C860A18D2046FEF7D1F802E02046FEF782
:10478000B9FA0020206370BD0020FCE70220FAE7A0
:104790002DE9F84F04462068006920F44050E16894
:1047A0000843216808612169A068084361690843DA
:1047B000E169084300902068C06849F20C618843B1
:1047C000009908432168C8602068406920F440705F
:1047D000A16908432168486176492068884203D06E
:1047E00075492068884203D1FDF7AEFC814602E09E
:1047F000FDF79AFC8146E069B0F5004F6CD10220CC
:104800006168A0FB015003461920A9FB0070014616
:104810002A463846FBF73EFD6421B0FBF1F04FEA33
:10482000001A02206168A0FB01510B461920A9FB68
:1048300000712A463846FBF72DFD83460220616849
:10484000A0FB015003461920A9FB00712A463846F7
:10485000FBF720FD6421B0FBF1F000EBC00101EBA0
:104860000010ABEB8000322101EBC0006421B0FBF3
:10487000F1F000F0F8000AEB400A02206168A0FBAA
:10488000015003461920A9FB007001462A4638460C
:10489000FBF700FD834602206168A0FB0150034640
:1048A0001920A9FB00712A463846FBF7F3FC642166
:1048B000B0FBF1F000EBC00101EB0010ABEB8000AE
:1048C000322101EBC0006421B0FBF1F000F00700E1
:1048D0005044216888606AE004206168A0FB0150B0
:1048E00003461920A9FB007001462A463846FBF70B
:1048F000D1FC824604206168A0FB015003461920C8
:10490000A9FB007001462A463846FBF7C3FC642128
:10491000B0FBF1F000EBC00101EB0010AAEB80004E
:10492000322101EB00106421B0FBF1F000F0F00A3D
:1049300004206168A0FB017003461920A9FB005107
:104940003A462846FBF7A6FC6421B0FBF1F00AEBDF
:10495000001A04206168A0FB01510B461920A9FB35
:1049600000712A463846FBF795FC834604206168AF
:10497000A0FB015003461920A9FB007001462A46FE
:104980003846FBF787FC6421B0FBF1F000EBC00177
:1049900001EB0010ABEB8000322101EB0010642131
:1049A000B0FBF1F000F00F00504421688860BDE8D2
:1049B000F88F0000001001400014014010B50346BC
:1049C00099629A85DA8500201864222083F83E00D7
:1049D00000BF002083F83C0000BF1868C06840F4A6
:1049E00080701C68E0601868406940F001001C6835
:1049F00060611868C06840F020001C68E06000201A
:104A000010BD014691F83D00212828D18868B0F5F5
:104A1000805F0BD1086948B90A6A1088C0F30800A2
:104A20000B685860086A801C086205E00B6A581C15
:104A3000086218780B685860C88C401E80B2C88421
:104A400058B90868C06820F080000B68D860086812
:104A5000C06840F040000B68D8600020704702201A
:104A6000FCE7000010B50248FDF75AFF10BD00003A
:104A70002C04002000BFFEE70FB4054B10B503A9BE
:104A8000044A029800F00AF910BC5DF814FB00001B
:104A90004D8A0008300000200FB4084B10B504A95F
:104AA00002AA039800F0FAF8044602A9002000F0D8
:104AB00078FC204610BC5DF814FB0000A3530008EE
:104AC00002480068C0F30220704700000CED00E0CF
:104AD00010B5002804DB0A07130E054A135406E03C
:104AE0000A07140E034A00F00F031B1FD45410BD15
:104AF00000E400E018ED00E002E008C8121F08C161
:104B0000002AFAD170477047002001E001C1121F4E
:104B1000002AFBD1704700002DE9FF5F82B0002121
:104B2000DDE90430020DDDF840B0034318D044F64F
:104B30001050A2F2FF3242431514119801281FD0E1
:104B4000A5EB0B00401C5FEA000A4FF000064E4F39
:104B5000DFF83891B046504615D5CAF1000413E08D
:104B6000119801244AA3012801D16FEA0B01029890
:104B7000119AC0E90031C0E9024206B0BDE8F09FD9
:104B8000CBF10000DFE704460021404A491842EB20
:104B90000450CDE9001012E0E00707D032463B4652
:104BA00040464946FBF7BDFC8046894632463B46B7
:104BB00010461946FBF7B5FC06460F466410002C5C
:104BC000EAD1DDE90401DDE90023BAF1000F06DADC
:104BD000FBF7A7FC42464B46FBF7A3FC05E0FBF7BF
:104BE00012FD42464B46FBF70EFD04460E460022E0
:104BF000284BFBF76DFE03D84FF0FF30014607E06E
:104C00000022254B20463146FBF7E4FBFBF747FE2D
:104C1000102409E0002C0ADB0A220023FBF73AFBF0
:104C2000039B30321A55641E50EA0102F2D1641C13
:104C3000039AC4F111031444119A012A03D00122EA
:104C400008430DD10AE0084304D000204FF0110BB7
:104C5000119072E7A3EB0B056D1E0DE05B4504DDC3
:104C60004FF0000205F1010504E003DA4FF0000205
:104C7000A5F10105002AECD002981199C0E9023192
:104C8000C0E9004579E70000000014400000F03F53
:104C9000300000000000F0430000E03F2DE9FF4F2E
:104CA00095B09A46884606460025EEE1252877D13C
:104CB00000242746F94A0121039400E0044316F832
:104CC000013F203B01FA03F01042F7D130782A2847
:104CD00011D06FF02F033078A0F13002092A16D8D6
:104CE000039A44F0020402EB820203EB42021044F6
:104CF000761C0390EFE758F8042B0392002A03DA9E
:104D0000504244F40054039044F00204761C30787E
:104D10002E2816D116F8010F44F004042A280DD0CD
:104D20006FF02F023078A0F13003092B09D807EB80
:104D3000870302EB4303C718761CF3E758F8047B9C
:104D4000761C30786C280FD006DC4C2817D06828E9
:104D50000DD06A2814D104E0742810D07A280FD11D
:104D60000DE044F400140AE044F4801401E044F43B
:104D700040147278824202D104F58014761C761CAD
:104D8000307866280BD013DC582877D009DC00284F
:104D900075D04528F6D04628F4D047281AD193E19B
:104DA00018E0632835D0642879D0652812D18BE1CA
:104DB000702873D008DC6728F1D069286FD06E287E
:104DC0000DD06F2806D1ACE073282CD0752874D094
:104DD000782853D05246179990476D1C54E1C4F37C
:104DE0000250022809D003280DD0D8F8001004285A
:104DF0000DD00D6008F1040846E1D8F80010EA175C
:104E0000C1E90052F6E7D8F800100D80F2E70D7006
:104E1000F0E718F8041B8DF8001000208DF8010051
:104E2000EB46012003E058F804BB4FF0FF30610768
:104E30004FF0000102D40DE009F101018946B942A9
:104E40000FDA8145F8DB1BF809100029F4D108E0DE
:104E500009F1010189468142FADB1BF8091000299A
:104E6000F6D103985346A0EB090721463846179A16
:104E700000F080FA284400EB090507E044E008E16F
:104E80000DE01BF8010B524617999047B9F1010943
:104E9000F7D2534621463846179AF2E039E00A2104
:104EA000C4F302524FF0000B0091022A06D058F8CA
:104EB000040BC117032A09D00AE023E008F1070018
:104EC00020F00702F2E80201904605E000B2C117A7
:104ED000042A01D140B2C117002906DA0A4600218E
:104EE000404261EB02012D2202E0220504D52B2273
:104EF0008DF80420012203E0E20701D02022F7E729
:104F0000914657E00A2100E010214FF0000B00917C
:104F10000BE010214FF0000B44F00404082700912F
:104F200003E008204FF0000B0090C4F30252022A65
:104F300005D058F8040B0021032A08D008E008F136
:104F4000070020F00702F2E80201904603E080B279
:104F5000042A00D1C0B24FF0000922072AD53278C6
:104F6000702A07D0DDF800C08CF0100C5CEA0B0C46
:104F700005D00EE040228DF80420012208E050EA1E
:104F8000010306D030238DF804308DF8052002226D
:104F90009146009B83F0080353EA0B030AD150EAC1
:104FA000010201D1620705D530228DF804204FF0AF
:104FB00001097F1E3278582A04D039A20C920CAA1B
:104FC00002920BE03BA2F9E75B46009AFBF762F91D
:104FD0000C9B9B5C029A521E0292137050EA0102D3
:104FE000F2D1029804A9081A00F1200B600702D53B
:104FF00024F4803400E001275F4502DDA7EB0B00BD
:1050000000E0002000EB0B01009003984944401A97
:105010000390E00306D453462146179A039800F004
:10502000A9F90544002706E001A85246C05D17997A
:1050300090476D1C7F1C4F45F6DBE0030CD55346B3
:105040002146179A039800F095F9054404E03020B2
:105050005246179990476D1C0099481E00900029F0
:10506000F5DC08E00298029952460078491C02914A
:10507000179990476D1CBBF10001ABF1010BF1DCFE
:105080005BE100F065F90544761C307800287FF478
:105090000DAE19B02846BDE8F08F000009280100C8
:1050A000303132333435363738396162636465669E
:1050B0000000000030313233343536373839414260
:1050C0004344454600000000600700D4062708F16D
:1050D000070020F00700F0E80223804603F0004CB0
:1050E0005FEA0C0001D097A009E0200501D596A049
:1050F00005E0E00701D095A001E0AFF24C0013906D
:10510000307823F0004365280CD006DC452809D010
:1051100046281DD047287FD13BE0662818D0672855
:105120007AD136E00021112F01DB112000E0781C3C
:10513000CDE9000104A90CA8FFF7EEFCDDE90D01A3
:105140000C9A4FF0000B07F10109109200914EE00C
:105150004FF000400097CDE9011004A90CA8FFF71B
:10516000DBFCDDE90D020C9B0F994FF0000B914623
:105170001093009211B9791C00EB0109B7EB0900FB
:1051800003D4C0F1FF3B07F10109A9EB070001902F
:1051900042E0012F00DA01270021112F01DD11204B
:1051A00000E03846CDE9000104A90CA8FFF7B4FCE3
:1051B000DDE90D010C9A00914FF0000BB9461092F9
:1051C00021070FD4009A4A4503DA914601E0A9F17C
:1051D0000109B9F1010F05DD109AA9F10101515C36
:1051E0003029F4D0B84202DA10F1040F03DA0121B9
:1051F000CDE9011010E0002803DC8344A9EB000195
:1052000002E0411C494500DD8946A0EB0B00401C33
:1052100001904FF000400290200705D401984845C6
:1052200002DB4FF0FF30019000208DF84B00029818
:105230000DF14B07B0F1004F25D002200C902B2030
:105240000D90029800280CDA404202902D200D901B
:1052500007E00A210298FBF77EFA3031029007F846
:10526000011D0C99481E0C900029F2DC02980028C0
:10527000EFD1791E0D980870307800F0200040F0D2
:10528000450007F8020D11A8C01BC01D029013981D
:10529000007800B1012000EB0901019801EBE071F9
:1052A000029801440398401A401E0390E00306D47C
:1052B00053462146179A039800F05CF8054413986A
:1052C000007818B15246179990476D1CE00323D51A
:1052D00053462146179A039800F04CF805441BE00A
:1052E000BBF1000F07DB0098584504DD10981799B3
:1052F00010F80B0001E017993020524690470198B2
:105300000BF1010B401E05F10105019004D12E2087
:105310005246179990476D1CB9F10001A9F1010996
:10532000DEDC05E017F8010B5246179990476D1C1B
:105330000299481E02900029F4DC53462146179A30
:1053400003989EE62D0000002B00000020000000C6
:105350002DE9F041044600251E461746880404D472
:1053600005E039462020B0476D1C641EF9D528465B
:10537000BDE8F0812DE9F041044600251E46904627
:10538000C80301D5302700E02027880404D505E0B4
:1053900041463846B0476D1C641EF9D52846BDE825
:1053A000F0810A68531C0B601070704710B50E48EE
:1053B0000E4908604FF48030486000210B4881603E
:1053C000C160016101210176C161002180F82010D6
:1053D0004162074981620021C162012180F83010D9
:1053E000FBF70CFE10BD0000002001406805002006
:1053F0000100000F10B5FFF7D9FF0448006840F422
:1054000000000349C1F8040310BD0000042301405B
:105410000020014070B504460420FDF7C9F90A4890
:10542000046025464FF47A7045434FF0E020006950
:1054300040F002004FF0E021086108464561006934
:1054400040F00100086170BD2C00002030B504461A
:10545000002504E04FF47A7000F004F86D1CA542BA
:10546000F8D330BD70B5034600224FF0E0267569D1
:105470000D4E366803FB06F44FF0E026B16910E0EC
:105480004FF0E026B06988420BD0884202D20E1A53
:10549000324402E02E1A0E4432440146A24200D3A6
:1054A00000E0EDE700BF70BD2C00002070B50546A0
:1054B0000E4600BF2DB900BF0CA0FFF7DDFA00BFFC
:1054C00070BD00BF6C6A00BF00BF6CB16079082876
:1054D0000AD100BF00BF3068E169884204D100BF33
:1054E00000BF284600F01CFA00BFE9E76E6574694A
:1054F0006620213D204E554C4C0000007CB50646F0
:1055000000BF2EB900BF44A0FFF7B6FA00BF7CBDB4
:1055100000BF746A00BF2CB900BF46A0FFF7ACFA09
:1055200000BFF4E700BF00BF00BF00206082A06A98
:10553000401C90B100BF00BFA06A1E303C21B0FBF0
:10554000F1F5B5F5803F01D34FF6FF75A582A08A2E
:1055500008B90120A08200BF00BFE06A401CA0B1D2
:1055600000BF00BFE06A1E303C21B0FBF1F5B5F58D
:10557000803F01D34FF6FF756581608908B901202E
:10558000608100BF00BF6089E081206B401CA0B13A
:1055900000BF00BF206B1E303C21B0FBF1F5B5F51C
:1055A000803F01D34FF6FF75A581A08908B901207E
:1055B000A08100BF00BFA08920826089A1898842A4
:1055C00004DBA089002801DD00206081E07910B1B2
:1055D000206A01900FE0207F7F2802DCFF210191EB
:1055E00008E0C02803DB6FF07F41019102E04FF635
:1055F000FF71019100BF606A009000BF00BF0A21E7
:10560000204601F00FFA6B4601AA04F11C01304656
:105610000BF068FD00BF7AE7646863705F62696ED3
:10562000643A206E6574696620213D204E554C4CCD
:1056300000000000646863705F62696E643A206411
:1056400068637020213D204E554C4C002DE9F041FF
:105650000646746A00BF00BF0821204601F0E2F947
:10566000002204F11C01304602F05AFD05460DB13E
:1056700000BF00BFA079FF2802DAA079401CA0710A
:105680004FF4FA7707F2F310394690FBF1F02081DE
:1056900000BF00BFBDE8F08170B500BF00BF1B4870
:1056A00005682FE06C6AFCB16079E8B1A08A78B136
:1056B000608A401C80B26082A18A884208D100BF03
:1056C00000BF284600F0D8FF284601F0B3F918E0E3
:1056D000208A50B1218A481E2082012905D100BFAD
:1056E00000BF284601F063FA0BE0E08948B1E18988
:1056F000481EE081012904D100BF00BF284601F007
:1057000031FA2D68002DCDD170BD00003C02002083
:105710002DE9F05F07460D4616469A4600BF3FB991
:1057200000BF44A0FFF7A8F900BF0020BDE8F09F2C
:1057300000BF00BF35B900BF46A0FFF79DF900BF0D
:105740000020F3E700BF4FF420724FF49A71362027
:105750000BF022FE8146B9F1000F03D100BF00BF5C
:105760000020E3E700BFB9F80A00B0F59A7F04D241
:1057700000BF40A0FFF780F900BF00BF032E02D199
:105780006879032808D1A87918B9FAF7BFFD494903
:10579000086048480068286000BF00BFD9F804408E
:1057A0004FF49A712046FAF7EAFD012020706070EC
:1057B00097F83000A070286808F09AFB6060082E07
:1057C0000BD0042E09D0072E07D0032E07D16879FD
:1057D000052802D06879042801D17868E0604FF08C
:1057E00000080BE007F12A0010F8081004F11C0073
:1057F00000F8081008F101001FFA80F8B8F1060F50
:10580000F0D32D48C4F8EC000123352204F1F00157
:10581000002000F0B1FA8346324604F1F001584608
:1058200000F0C8FA8346BAF1000F01D0AAF800B020
:1058300048467BE7646863705F6372656174655FA7
:105840006D73673A206E6574696620213D204E5560
:105850004C4C0000646863705F6372656174655FDF
:105860006D73673A206468637020213D204E554C6B
:105870004C000000646863705F6372656174655F0B
:105880006D73673A20636865636B20746861742088
:10589000666972737420706275662063616E206839
:1058A0006F6C642073747275637420646863705FD6
:1058B0006D736700B00200206382536310B500BFB0
:1058C0000C480078002804DC00BF0BA0FFF7D4F8D8
:1058D00000BF00BF07480078401E06490870084610
:1058E000007830B90D48006814F002F900200B4927
:1058F000086010BDAC020020646863705F70636272
:105900005F726566636F756E7428293A20726566EA
:10591000636F756E74206572726F7200A80200204A
:105920002DE9FE4F0646746A00BF00BF0C212046D9
:1059300001F078F802AB042221463046FFF7E8FE7A
:10594000054675B3D5F804800423322208F1F0012E
:10595000BDF8080000F010FA0290E06908F0C8FAFB
:105960008246524608F1F001BDF8080000F052FAF4
:1059700002902A4608F1F001BDF8080000F0C6FACE
:1059800014484323144A2946CDE9006013480068AF
:1059900014F0E4F9074628460CF0D4F800BF00BF25
:1059A00004E0FFE700BF00BF4FF0FF37A079FF28FA
:1059B00002DAA079401CA07142F2107909F2F310CA
:1059C0004FF4FA7190FBF1F0208100BF00BF384620
:1059D000BDE8FE8F3C04020840040208A802002033
:1059E0002DE9FE4F07467C6A4FF0000A00BF00BF5A
:1059F0000020E0610621204601F014F802AB0122EC
:105A000021463846FFF784FE0546002D4AD06E68D1
:105A100000BF00BF0223392206F1F001BDF80800E3
:105A200000F0AAF902903A8D06F1F001BDF80800E5
:105A300000F034FA02900423372206F1F001BDF899
:105A4000080000F099F90290D0460DE0274810F8C0
:105A5000082006F1F001BDF8080000F0ABF9029053
:105A600008F1010000F0FF08B8F1040FEED32A4658
:105A700006F1F001BDF8080000F048FA00BF00BFD1
:105A80001B4843231B4A2946CDE900701A48006889
:105A900014F064F900BF00BF28460CF053F800BFB3
:105AA00000BF01E000BF00BFA079FF2802DAA079A3
:105AB000401CA071A079062803DAA1790120884052
:105AC00000E03C2000EB4001C1EBC0104FF6FF713D
:105AD00001EAC00909F2F3104FF4FA7190FBF1F0FA
