:020000040800F2
:100000002810002079020008952F00088D2F000885
:10001000912F0008051C0008B533000800000000FF
:10002000000000000000000000000000C12F0008D8
:10003000091C000800000000972F0008C32F0008CB
:10004000930200089302000893020008930200083C
:10005000930200089302000893020008930200082C
:10006000930200089302000893020008930200081C
:10007000930200089302000893020008930200080C
:1000800093020008930200089302000893020008FC
:1000900093020008930200089302000893020008EC
:1000A00093020008930200089302000893020008DC
:1000B00093020008930200089302000893020008CC
:1000C00093020008930200089302000893020008BC
:1000D000930200089133000893020008930200087D
:1000E000930200089302000893020008930200089C
:1000F000930200089302000893020008930200088C
:10010000930200089302000893020008930200087B
:1001100093020008CD2F0008930200089302000804
:10012000930200089302000893020008930200085B
:1001300000F002F800F090F80AA090E8000C824469
:100140008344AAF10107DA4501D100F085F8AFF246
:10015000090EBAE80F0013F0010F18BFFB1A43F0A5
:100160000103184770C6000090C60000103A24BF73
:1001700078C878C1FAD8520724BF30C830C144BF0C
:1001800004680C607047000000230024002500264E
:10019000103A28BF78C1FBD8520728BF30C148BFEA
:1001A0000B6070476E2900F0F882702900F05F81C3
:1001B000662909F0BF82652909F0BC82672909F028
:1001C000B982612909F0B88203681B0A28BF41F08F
:1001D0008001692900F0D080642900F0CD80752964
:1001E00000F0CA806F2900F0F083782900F02B819D
:1001F000E92900F08B83E42900F08883F52900F0D9
:100200008583EF2900F0ED83F82900F02A81036847
:10021000DB0928BF41F08001632900F0FA827329CD
:1002200000F0FF82E32900F0C387F32900F0C887BC
:10023000002070471FB501F019F8040000200021CC
:1002400009F024F9401C60600020002109F008F941
:10025000E0601FBD10B510BD00F0DAFF1146FFF7DA
:10026000E9FF09F025F801F0B7F803B4FFF7F2FF52
:1002700003BC03F0D8F8000009488047094800474C
:10028000FEE7FEE7FEE7FEE7FEE7FEE7FEE7FEE746
:10029000FEE7FEE704480549054A064B70470000A3
:1002A000CB2F000831010008280A00202810002068
:1002B000280C0020280C0020704700001CB50C46BC
:1002C000064B7B4469460090204600F080FA0446C5
:1002D0000020694600F08EFA20461CBD2F05000064
:1002E0000FB4044910B503AA029800F09FFA10BC9D
:1002F0005DF814FB080000200FB41CB5084B06AADB
:100300007B4469460090059800F061FA044600209D
:10031000694600F06FFA20461CBC5DF814FB000033
:10032000F104000070B50C460546012A05D0287876
:10033000800600D5EA69002302E0012305E05B1C8A
:10034000934202D2E05C0028F9D1A869E618C01AED
:10035000A861286A18442862284600F08CF904E055
:10036000D5E9012114F8010B9047B442F8D328468F
:1003700000F097F970BD00002DE9F0410646002419
:1003800010687529314616A510D000F09BF9002899
:1003900002DA404213A507E031688A0701D512A5A9
:1003A00002E0490704D511A5012401E000F093F90A
:1003B00000210A2206F1240709E0B0FBF2FCB0FBA1
:1003C000F2F302FB1C00303078541846491C002818
:1003D000F3D123462A463046BDE8F04100F084B907
:1003E000000000002D0000002B0000002000000095
:1003F000F0B40D460188090502D5214C7C4402E089
:100400001F4C7C440E34002100F1240608E002F069
:100410000F071209E75D42EA03721B097754491C72
:1004200052EA0307F3D102780023120704D5702D96
:1004300006D009B1022311342246F0BC00F054B9B1
:1004400001231034F8E770B504460D4621461068C4
:1004500000F041F9024629462046BDE870400023DD
:10046000C6E7D21D22F00703D3E90023C0E70368E3
:10047000126843F0200303600823C3610023B7E739
:10048000D4C200002DE9F05F894604464FF0000A0F
:10049000DFF874B1FB44C0F820A02046E16888472B
:1004A000002874D0252806D0D4E901219047206A7D
:1004B000401C2062F1E700265F462046E16888473D
:1004C0002028054607DB312D05D2781910F8200CBD
:1004D00008B10643F1E7B00701D526F00406C4F8D9
:1004E0001CA00027C4F818A02A2D09D0284602F025
:1004F00093FF38B304EB8708303DC8F8185019E073
:1005000059F8041B204604EB87029161E168884793
:10051000012F054618D1E069002820DA26F02006D0
:100520001DE0D8F8180000EB800005EB40003038E3
:10053000C8F818002046E1688847054602F06CFFBD
:100540000028EED1012F0AD02E2D08D12046E168D7
:1005500088477F1C0546022F46F02006C4DBA069B1
:10056000002803DA404246F00106A061F00701D0FE
:1005700026F010066C2D0BD0682D09D04C2D39D0EB
:100580006A2D35D0742D35D07A2D33D016E038E071
:10059000E1682F4620468847B842054609D16C2FAE
:1005A00026D04FF48060E168064320468847054620
:1005B00004E06C2F1AD04FF4807006430DB3A5F100
:1005C0004100192802D8203546F400664A462946DB
:1005D000204626604E46FFF7E5FD80B101280BD08E
:1005E000F61D26F0070000F1080956E74020E4E771
:1005F0008020D8E70020D6E706F104094DE7284619
:1006000052E7206ABDE8F09F64C2000030B505469D
:100610000B462A4613F8014B12F8010B08B1A04211
:10062000F8D01CB1002802D06D1CF1E7284630BD7F
:1006300010B5431C02E010F8011B71B18107FAD11B
:100640004FF0013202C88C1A8C4314EAC211F9D05F
:10065000C01A0A0603D0C01E10BDC01A10BD0A047D
:1006600001D0801E10BD0902FCD0401E10BD704795
:1006700070477047704770B5044685690068C106C9
:1006800001D5302600E02026C00707D070BDD4E990
:10069000012130469047206A401C20626D1EF6D52D
:1006A00070BD70B5044685690078C00707D170BD7C
:1006B000D4E9012120209047206A401C20626D1E51
:1006C000F6D570BD09684A0501D540B27047C90525
:1006D000FCD500B2704709684A0501D5C0B2704721
:1006E000C905FCD580B270472DE9F0470D46994603
:1006F0009246044600F124080168880604D5E069A2
:1007000021F01001216000E00120A84201DD471B1B
:1007100000E00027A1697A1902EB0900081AA0611C
:100720002078C00602D42046FFF7A5FF002608E087
:10073000D4E901211AF806009047206A401C761C73
:1007400020624E45F4DB2078C0060AD52046FFF72C
:1007500092FF06E0D4E9012130209047206A401C36
:100760002062381EA7F10107F4DC07E0D4E901217B
:1007700018F805009047206A401C2062281EA5F149
:100780000105F3DC2046FFF78CFF2078000602D538
:100790000220BDE8F0870120FBE711680268006ACB
:1007A000530501D508700AE0D30501D5088006E09D
:1007B000130603D5C217C1E9000200E0086001205A
:1007C0007047000001694A1C02610878704700B553
:1007D0008FB0CDE901310021059105497944CDE97A
:1007E000031011466846FFF74DFE0FB000BD000034
:1007F000E5FFFFFF0A6802F8010B0A60704710B5B9
:10080000436913B1AFF3008001E0FFF78BFD0120D6
:1008100010BD127800F124010A7000224A700122F2
:10082000EDE711684FF0FF32E9E70000074B70B5C4
:100830000D467B44FFF7CBFF0446284600F0C4FC7E
:1008400010B14FF0FF3070BD204670BD573600002C
:100850002DE9FF5F15468A460446DFF8AC80F84470
:100860000027D8E900103E46CDE9001010E03AF824
:1008700016106A4602A800F0ABFC411C07D0217894
:10088000890603D5E269391891420DD80744761CD0
:100890002078800602D5E069B84205DDAE42E6DB8D
:1008A0003AF816000028E2D1A069C01BA0612046DA
:1008B000FFF7E1FED8E90010CDE90010002017E0B5
:1008C0003AF818106A4602A800F082FCB0F1FF3F27
:1008D00081460BD000250DF1080B05E0D4E901217C
:1008E0001BF8050090476D1C4D45F7D308F101003A
:1008F000B0428046E4DB206A384420622046FFF79D
:10090000D0FEBDE8FF9F0000AEBE00002DE9F04123
:100910008046D21D22F007020025D2E90002F52907
:1009200015A614D0011E72F1000106DA0023D0EBE7
:10093000030063EB020211A608E0D8F800108B0751
:1009400001D50FA602E0490701D50EA601251146E3
:10095000002408F1240704E000F04EF830323A5544
:10096000641C50EA0102F7D12B463246214640462C
:10097000BDE8F041FFF7B8BE000000002D00000008
:100980002B0000002000000030B4002100F12404FE
:1009900008E002F00705D208303542EA4372DB086E
:1009A0006554491C52EA0305F3D10468002310A2E0
:1009B000250707D5A40600D421B1C46901230DA2DF
:1009C000641EC46130BCFFF78FBE10B504462146DB
:1009D0001068FFF780FE02462046BDE81040002365
:1009E000D2E7D21D22F00701D1E90023CCE70000B5
:1009F000000000003000000030B5B0F10A024FEAFC
:100A0000900E71F100034EEA817EB0EB0E0061EBB7
:100A100091014FEA101E4EEA017E10EB0E0041EBF1
:100A200011114FEA102E4EEA016E10EB0E0041EB51
:100A300011214FEA104E4EEA014E10EB0E0041EB31
:100A40001141401841F100014FEAD00040EA4170E5
:100A50004FEAD10110EB80054FEA810444EA90741B
:100A600044EB01046D1944EB0404521BA3414FF005
:100A7000000348BF0A3200D530BD401C41F10001DF
:100A800030BD70472DE9FF4F0C461E464FF0FF3733
:100A90008BB0D2E90001DDF860800A908A46C1F38C
:100AA0000A5505B93D46002108464FF00000BAF14D
:100AB000000F00F4400005DA00EB80004FF4400125
:100AC00001EA50004FEA9059B9F1010F00DDB94633
:100AD0000A9850EA4A000ED044F61050A5F2FF35AD
:100AE00045432F14B8F1000F1ED07542291E1EDD9C
:100AF000C9F100021CE0B8F1010F4FF0000001D075
:100B0000302103E0F24305E02154401CB042FBDBFE
:100B100030460022002121540B99C1F80880C1E918
:100B200000200FB0BDE8F08FBD1B6D1CDEE74A460C
:100B300000DA694206A800F0DDFB06AB93E8070087
:100B400003AB83E8070050460A9900F093FC8DE858
:100B50000700A0F500501F3800900398002D0ADD13
:100B600042F21F014A460844002303A90390684645
:100B700000F0FCFE09E0A0F500504A461F380023B3
:100B800003A90390684600F006FF8DE80700000403
:100B9000000C03D04FF0FF30410800E01046B8F1E0
:100BA000000F03D00022009215461EE0751E05D4EA
:100BB000FFF722FF303262556D1EF9D5B346012290
:100BC000084302D000227F1C04E02078302801D1A5
:100BD00000227F1E002A099784D01DE0112D07DA1C
:100BE000FFF70AFF303262556D1C50EA0102F5D161
:100BF000084302D00098C8B10EE00021681E05E04D
:100C0000235C625C63542254401E491C8142F7DB22
:100C1000AB46A81B401E0990002004F80B000B985F
:100C2000099AC0F80880C0E9002B7AE711264FF036
:100C3000000857E72DE9F04F88460446D21D22F000
:100C4000070191B0D1E90001CDE90A0102F0B4FB3E
:100C500002460B98C00F01D02D2007E020688107C5
:100C600001D52B2002E0202101EAC000032A0990CF
:100C700001D0072A05DB03464146204600F0FAFA78
:100C80000BE12078800601D5E06900E00620B8F18C
:100C9000650F814606D0B8F1660F18D0B8F1670F1E
:100CA00070D131E00020B9F1110F009001DB112368
:100CB00001E009F101030AAA01A90CA8FFF7E2FE6D
:100CC000DDE90C70002609F10105834647E00120AB
:100CD0004B4600904FF000470AAA01A90CA8FFF765
:100CE000D1FEDDE90DB00C995D46002610B909F181
:100CF00001000D18B9EB050003D4C0F1FF3609F16E
:100D00000105A5EB09002BE0B9F1010F01DA4FF065
:100D100001090020B9F1110F0090484601DD1123AF
:100D200000E003460AAA01A90CA8FFF7ABFEDDE923
:100D30000C704D4600268346207800070AD4AB4548
:100D400000DA5D4601A8012D04DD411911F8011CEE
:100D5000302907D04F4502DA17F1040F04DA0120D9
:100D600082460FE06D1EEEE7002F02DCED1B3E44D5
:100D700003E0781CA84200DD7D1CB81B00F1010ACD
:100D80004FF000472078000703D4AA4501DB4FF05D
:100D9000FF3A0021B7F1004F0DF143088DF84310E1
:100DA00024D002202B23002F01DA7F422D230A2199
:100DB000021EA0F1010000DC5FB197FBF1FC97FB84
:100DC000F1F201FB1C7C17460CF1300C08F801CD48
:100DD000EEE7A8F1010003702188090501D545213E
:100DE00000E06521A0F1010800F8011C09980FA995
:100DF000A1EB0807FF1D00B10120411901EBEA70CA
:100E0000A1693844081A401EA0612078C00602D4A7
:100E10002046FFF730FC099828B1D4E9012190471A
:100E2000206A401C20622078C00622D52046FFF7A9
:100E300022FC1EE0002E04DBB34502DD01A8805D2C
:100E400000E03020D4E901219047206A401C206254
:100E5000761CAAF101005FEA000A0AD100F006FA46
:100E6000C0680168405CD4E901219047206A401CB9
:100E70002062281EA5F10105DCDC07E0D4E9012190
:100E800018F8010B9047206A401C2062381EA7F119
:100E90000107F3DC2046FFF704FC032011B041E614
:100EA0002DE9F04F04460D46D21D22F0070089B00F
:100EB000D0E900974846394602F07EFA0246F80F1C
:100EC00001D02D2307E02068810701D52B2302E004
:100ED000202101EAC0038DF820300BB1012000E091
:100EE0000020032A824601D0072A04DB2946204637
:100EF00000F0C0F93FE12078800601D40D2500E024
:100F0000E569C7F30A560D2D49DA00214FEA175B50
:100F100008464FF00000002F00F4400007DA00EB15
:100F200080004FF4400100EBD07001EA60008115B1
:100F3000012901DD4FF0FF3100224FEA850CBCF1A1
:100F4000180F06D31346ACF118004FF08052C24080
:100F500003E04FF4801323FA0CF30CF10C0CBCF1FA
:100F6000200F04D3ACF1200C09FA0CF001E007FAD1
:100F70000CF000294FF0004801DD18B90FE00ED148
:100F800040450CD319EB02095F4121B9404502D11C
:100F90009F4329EA0209BBEB175F00D0761C20882B
:100FA000000502D57B48784402E07A487844193835
:100FB00008AA302302F80A30037C0AF10101002E4E
:100FC0000AF1020A53546A4602DC4FF0300101E094
:100FD0004FF031014FF001088DF8001002D0A6F259
:100FE000FF3603E059EA470100D06B4E002D02DCCA
:100FF0002178090704D54FF002082E218DF8011041
:10100000C44600210BE0C7F303433F01C35C491C06
:101010006D1E02F80830052908F1010801DA002DDB
:10102000F1DC00210CE000EB1973491C1B786D1EEC
:10103000082902F808304FEA091908F1010801DA15
:10104000002DF0DC21688B0602D516E0A8F101081E
:10105000E04505DD02EB080313F8013C302BF5D029
:10106000B8F1000F09DD02EB080313F8013C2E2B49
:1010700003D1090701D4A8F10108002D05DD3E21A7
:1010800002F808106D1E08F10108407C002E02F8DD
:10109000080008F1010804DA2D20764202F8080061
:1010A00002E02B2002F808000A214FF47A708642F1
:1010B00008F101080BDB96FBF0F3303302F808303F
:1010C00096FBF0F308F1010800FB136601E0642EC3
:1010D0000CDB642096FBF0F3303302F8083096FB0B
:1010E000F0F308F1010800FB136601E00A2E06DBAD
:1010F00096FBF1F0303002F8080008F1010896FB89
:10110000F1F001FB1060303002F80800A16908F12D
:10111000010808EB050202EB0A00081AA06120781A
:10112000C00602D42046FFF7A6FA216A08AE01EBFA
:101130000A00206204E0D4E9012116F8010B90476F
:10114000BAF1010AF7D22078C00602D52046FFF78F
:1011500092FA6E4609E016F8010B3E280FD0D4E94A
:1011600001219047206A401C2062B8F10108F2D2A8
:101170002046FFF796FA09B00320BDE8F08F206AF9
:101180002844206203E0D4E90121302090476D1EFD
:10119000EBD3F8E781B7000002FCFFFF10B543690D
:1011A00013B1AFF3008001E0FFF752FB012010BD47
:1011B000128800F1240182840022C2840122EDE71A
:1011C00011684FF0FF32E9E7007B00F080007047C4
:1011D00070B516460C46054600F040F8036893F8D3
:1011E0000101012806D0FF2C0FD8185D68B101203D
:1011F0002C7070BDD3F807013246214603F2071365
:1012000003442846BDE8704018474FF0FF3070BDDA
:10121000754600F0EBF8AE4605006946534620F0EF
:101220000700854618B020B5FFF734F8BDE8204028
:101230004FF000064FF000074FF000084FF0000B92
:1012400021F00701AC46ACE8C009ACE8C009ACE845
:10125000C009ACE8C0098D467047000010B500F029
:1012600005F8001D10BD00BF258200000048704732
:10127000E40900202DE9F0411F46044603260168D9
:10128000072A01F4006004DB08B116A505E016A5E5
:1012900003E008B115A500E015A521F010002060BD
:1012A000A069C01EA0610FB1401EA0612046FFF7DB
:1012B000E2F94FB1D4E9012138469047206A401C39
:1012C0002062C01C206206E0206AFAE7D4E901210E
:1012D00015F8010B9047761EF8D22046FFF7E1F98A
:1012E000BDE8F0814E414E006E616E00494E4600F1
:1012F000696E66002DE9F047814616468AB035488A
:1013000078440DC88DE80D0032487844801C03AC49
:101310000DC884E80D0041F69B300844372190FB4E
:10132000F1F290FBF1F5A5F1800501FB12041B3CE5
:1013300002D56442012000E00020DFF898A080463A
:101340000027FA44AAF1BE0A0EE0E0070AD03246AE
:10135000684607EB470101230AEB810100F01BFB04
:101360008DE8070064107F1C002CEED1194F7F44DC
:10137000AE3F19E0E80715D007EB04100DF1180A8D
:1013800090E80E008AE80E00C068F04201D198197A
:1013900008903246012306A903A800F0FCFA03AB2B
:1013A00083E807006D10641C002DE3D14FF00103AA
:1013B00032466946B8F1000F03A802D000F0D6FA11
:1013C00001E000F0E8FAC9E90001C9F808200AB014
:1013D000BDE8F087B8B4000010B50446AFF3008054
:1013E0002046BDE81040FEF740BF000000487047AF
:1013F000C40900204FF0013C50F8042B51F8043B85
:101400009A4221D1A2EB0C03934313EACC1317D1D8
:1014100050F8042B51F8043B9A4215D1A2EB0C036F
:10142000934313EACC130BD150F8042B51F8043B2F
:101430009A4209D1A2EB0C03934313EACC13DBD0FD
:101440004FF00000704700BFD01A01BAB1FA81F125
:1014500001F0180122FA01F0CB40C1F12001DBB20A
:10146000C0B2C01A2CFA01F3D11A914311EAC31188
:10147000E6D170475FEA400C08BF91F0000F4FEAD9
:101480008C234FEAC12243EA51514FEA1C5018BF46
:1014900000F5F0404FEA300018BF41F000415FEA2C
:1014A0006C5C00F02980BCF1FF3F08BF40F0804039
:1014B0007047130C06BF12044FF0100C4FF0000CD5
:1014C000130E04BF12020CF1080C130F04BF12011B
:1014D0000CF1040C930F04BF92000CF1020CD30F1B
:1014E00004BF52000CF1010C11464FF00002A0F1B4
:1014F0001F00A0EB0C00704711F0004F08BF7047B1
:1015000031F000413FF4D5AF0B0C06BF09044FF09A
:10151000100C4FF0000C0B0E04BF09020CF1080C6C
:101520000B0F04BF09010CF1040C8B0F04BF8900E1
:101530000CF1020CCB0F04BF49000CF1010CCCF1F3
:101540002003A0EB0C0022FA03F302FA0CF241EAAA
:10155000030100F10100704720F07F4C80EA030096
:1015600023F07F47ACEB070303F57C5300F000400A
:1015700003F1FF032DE980494FEA154B09B44FEA07
:10158000144325EA0B4E24EA03480FF2042606EB27
:10159000132749083E785FEA320203FB0667C7F566
:1015A000000707FB06F64FEA54374FEAD64606F126
:1015B000020607FB066CCCF1005C4FEA1C472CEAE4
:1015C000074C07FB06F40CFB06F504EB15464FEA47
:1015D000961634BF00204FF000404FEAD13706FB8B
:1015E00007FC4FEA1C4C0CFB0BF7D21B03FB0CF760
:1015F00061EB07010CFB0EF7B0EB074072EB1742F3
:101600000CFB08F734BFA2EB0742B2EB074261EBD9
:1016100017414FEA0C444FEA910706FB07FC4FEADB
:101620001C4C0CFB0BF7B0EBC74072EB573203FBC3
:101630000CF734BFA2EBC742B2EBC74261EB5731A4
:101640000CFB0EF7B0EBC70072EB57720CFB08F700
:1016500034BFA2EBC702B2EBC70261EB5771039F25
:101660004FEA816141EA921104EBCC044FEAD13791
:101670004FEA826206FB07FC42EA90124FEA806062
:101680004FEA1C4C0CFB0BF7D21B03FB0CF761EB76
:1016900007010CFB0EF7B0EB074072EB17420CFB97
:1016A00008F734BFA2EB0742B2EB074261EB1741E8
:1016B0004FEA8C554FEA910704EB9C2406FB07FC8C
:1016C0004FEA1C4C0CFB0BF7B0EBC74072EB5732E8
:1016D00003FB0CF734BFA2EBC742B2EBC74261EB8E
:1016E00057310CFB0EF7B0EBC70072EB57720CFBD7
:1016F00008F734BFA2EBC702B2EBC70261EB577128
:1017000015EB4C254FEA816141EA92114FEA826262
:101710004FEAD13742EA901206FB07FC44F100047D
:101720004FEA80604FEA1C4C0CFB0BF7D21B03FB0B
:101730000CF761EB07010CFB0EF7B0EB074072EB07
:1017400017420CFB08F734BFA2EB0742B2EB07428B
:1017500061EB174115EB1C154FEA813141EA9241CB
:101760004FEA823242EA90424FEA80304FEA0C76EA
:1017700044F1000448EA03434EEA0B484FF0000EE0
:10178000B2EB080C71EB030724BF624639464EEBFF
:101790000E0E4FF0000B0018524149414BEB0B0B62
:1017A000B2EB080C71EB03077BF1000B24BF624620
:1017B00039464EEB0E0E4FF0000B001852414941D6
:1017C0004BEB0B0BB2EB080C71EB03077BF1000B3F
:1017D00024BF624639464EEB0E0E51EA020718BF8F
:1017E00046F0010616EB0E7655F1000254F10001A9
:1017F00003D5BDE88901BDE80088BDE88901BDE8E1
:101800000048B619524141EB0101A3F101037047B1
:1018100080807F7E7D7C7B7A79787776767574732D
:10182000727171706F6E6E6D6C6C6B6A6A696868EC
:10183000676666656464636362616160605F5F5E82
:101840005E5D5D5C5C5B5B5A5A59595858575756F8
:10185000565555555454535352525251515050505D
:101860004F4F4F4E4E4D4D4D4C4C4C4B4B4B4A4AAF
:101870004A494949484848474747474646464545F3
:10188000454444444443434343424242424141412C
:10189000002B9C4630D477002BD01CB54FEA37077D
:1018A00003B44FF010004FF01001BAF1000F06D052
:1018B000BCF1000FDCBF40F0080040F008014FF021
:1018C00000000FBCBDE810400BF1010BBBF1010F94
:1018D00008BF5FEA170722BF12F1010211F10101EF
:1018E0004FF0004143F1000300F0004043EA0000E4
:1018F0007047F9D35708D0E746EA064613F1400F80
:101900004FEA16461FDD13F1200FDFBF16430A46CC
:10191000002120335B42BED0C3F1200746EA0646D1
:1019200002FA07F74FEA164646EA0706C3F1200710
:1019300022FA03F201FA07F721FA03F14FF000034C
:1019400042EA0702A7E746EA020646EA06464FEAE7
:10195000164646EA0106BCBF46EA0646360C4FF07C
:1019600000034FF000024FF0000194E72DE9804C96
:101970009A46934670B491E8380007C831EA400CA3
:1019800048BF34EA430C03D5FFF7E6FDFFF780FFBD
:10199000F0BCBDE8008C2DE9804C9A46934670B4AB
:1019A00091E8380007C810F0804F08BF13F0804F4F
:1019B00003D100F005F8FFF76BFFF0BCBDE8008C29
:1019C00020F07F4780EA030023F07F4C07EB0C03F5
:1019D000A3F57C5300F00040A3F1FE0392F0000F4A
:1019E00000F0B38095F0000F00F077802DE90149F9
:1019F0004FEA11404FEA144621EA004800FB06FC7A
:101A000024EA064708FB06F607FB08F800FB07F781
:101A100018EB06484CEB164C4FEA124B18EB0748F4
:101A20004FEA15464CEB174022EA0B4E0BFB06FC27
:101A300025EA06470EFB06F607FB0EFE0BFB07F733
:101A40001EEB064E4CEB164C4FF000061EEB074EFD
:101A50004CEB174B18EB0B0840F1000018EB0E0B8A
:101A600058EB000840F100008F1A4FF000013CBF16
:101A7000C943661B14BFB5EB040C00213CBFC9432E
:101A8000F61B4FEA17444EEA8E0E27EA04454FEA4A
:101A90001C4704FB07622CEA074C05FB07F70CFB0D
:101AA00005F604FB0CFC16EB074642EB174216EB5F
:101AB0000C4642EB1C421BEB060658EB020241416E
:101AC00046EA9E0601D5BDE80189B619524141EBAF
:101AD0000101A3F10103BDE801894FEA14454FEA72
:101AE000114724EA054621EA074C05FB07F406FBEB
:101AF00007F70CFB06F105FB0CFC11EB074144EB6F
:101B000017444FEA124711EB0C4144EB1C4422EA04
:101B1000074C05FB07F206FB07F70CFB06F605FB77
:101B20000CFC16EB074642EB174216EB0C4642EB59
:101B30001C456A1854F1000148BF7047B61952415C
:101B400041EB0101A3F10103704795F0000F37D07D
:101B50004FEA11424FEA144721EA024624EA074CB1
:101B600002FB07F106FB07F70CFB06F402FB0CFC7B
:101B700014EB074441EB17414FEA154714EB0C44B3
:101B800041EB1C4125EA074C02FB07F506FB07F772
:101B90000CFB06F602FB0CFC16EB074645EB174563
:101BA00016EB0C4645EB1C42121951F1000148BFDF
:101BB0007047B619524141EB0101A3F1010370478F
:101BC0004FEA14454FEA114724EA054621EA074C3B
:101BD00005FB07F106FB07F70CFB06F24FF00006CA
:101BE00005FB0CFC12EB074241EB174112EB0C42D8
:101BF00051EB1C4148BF7047921841EB0101A3F122
:101C00000103704700BFFEE77047000070B504464F
:101C1000002594F82100022803D00420A0630125A8
:101C2000C1E02068006820F00E002168086020688C
:101C3000006820F00100216808605C492068884243
:101C400052D95A4978392068884201D1012047E0A9
:101C5000564964392068884201D1102040E0534938
:101C600050392068884201D1801539E04F493C390C
:101C70002068884201D1801432E04C49283920681C
:101C8000884202D14FF480302AE048491439206854
:101C9000884202D14FF4801022E0444920688842F3
:101CA00001D140041CE042492068884201D1012052
:101CB00016E03F4914312068884201D110200FE01E
:101CC0003B4928312068884201D1801508E0384915
:101CD0003C312068884201D1801401E04FF480300B
:101CE0003349091F086051E030497839206888423B
:101CF00001D1012047E02D4964392068884201D193
:101D0000102040E0294950392068884201D18015CF
:101D100039E026493C392068884201D1801432E0FC
:101D2000224928392068884202D14FF480302AE0C5
:101D30001E4914392068884202D14FF4801022E0F5
:101D40001A492068884201D140041CE018492068E3
:101D5000884201D1012016E01549143120688842DB
:101D600001D110200FE0124928312068884201D1AA
:101D7000801508E00E493C312068884201D180146A
:101D800001E04FF48030094980394860012084F82F
:101D9000210000BF002084F8200000BF606B10B15C
:101DA0002046616B8847284670BD000080000240D5
:101DB000080402402DE9F847024600239C467BE1D7
:101DC0004FF0010808FA03F4D1F8008008EA040093
:101DD000A0427DD1DFF8F4A2D1F80480A8EB0A0973
:101DE000D0453AD014DCB8F1030F50D009DCB8F17B
:101DF000000F31D0B8F1010F1CD0B8F1020F49D15A
:101E000020E0B8F1110F18D0B8F1120F42D11EE046
:101E1000B9F5881F25D006DCB9F5803F20D0B9F58B
:101E2000801F37D11AE0B9F5001F18D0B9F5041F8B
:101E300030D117E0D1F80CC02DE0D1F80C8008F1BA
:101E4000040C28E0D1F80C8008F1080C23E0D1F84C
:101E50000C8008F10C0C1EE000BF00BF00BF00BFEB
:101E600000BF00BFD1F80880B8F1000F02D14FF0D9
:101E7000040C0BE0D1F80880B8F1010F03D14FF04A
:101E8000080C146102E04FF0080C546103E04FF0BD
:101E9000000C00E000BF00BFFF2801D8904601E021
:101EA00002F104084646FF2802D84FEA830803E0FF
:101EB000A3F108084FEA88084746D6F800804FF09B
:101EC0000F0909FA07F928EA09080CFA07F900E0EE
:101ED0007AE048EA0908C6F80080D1F8048008F0E2
:101EE0008058B8F1805F6FD100BFDFF8E481D8F887
:101EF000188048F00108DFF8D891C9F81880C84662
:101F0000D8F8188008F00108CDF8008000BF00BFA5
:101F10004FEAB9384FEA930958F829504FEA8378C5
:101F20004FEA18794FF00F0808FA09F825EA080572
:101F3000DFF8A081424502D14FF0000824E0DFF82D
:101F40009881424502D14FF001081DE0DFF88C81F5
:101F5000424502D14FF0020816E0DFF88481424585
:101F600002D14FF003080FE0DFF87881424502D13B
:101F70004FF0040808E0DFF87081424502D14FF0CD
:101F8000050801E04FF006084FEA83794FEA197916
:101F900008FA09F848EA0505DFF850814FEA930985
:101FA00048F82950D1F8048008F48038B8F5803F0B
:101FB0000BD1DFF83C81D8F8008048EA0008DFF850
:101FC0003091C9F800800AE075E0DFF82481D8F884
:101FD000008028EA0008DFF81891C9F80080D1F8DD
:101FE000048008F40038B8F5003F0ED1DFF8008116
:101FF00008F10408D8F8008048EA0008DFF8F090FB
:1020000009F10409C9F800800DE0DFF8E48008F167
:102010000408D8F8008028EA0008DFF8D49009F115
:102020000409C9F80080D1F8048008F48018B8F5D4
:10203000801F0ED1DFF8B88008F10808D8F80080BA
:1020400048EA0008DFF8A89009F10809C9F80080FB
:102050000DE0DFF89C8008F10808D8F8008028EA35
:102060000008DFF88C9009F10809C9F80080D1F860
:10207000048008F40018B8F5001F0ED1DFF8708056
:1020800008F10C08D8F8008048EA0008DFF86090F2
:1020900009F10C09C9F800800DE0DFF8548008F15F
:1020A0000C08D8F8008028EA0008DFF8449009F10D
:1020B0000C09C9F800805B1CD1F8008028FA03F8ED
:1020C000B8F1000F7FF47CAEBDE8F8870000111076
:1020D0000010024000080140000C014000100140C7
:1020E0000014014000180140001C0140080001409C
:1020F0000004014010B5C26821EA020302EA0104AB
:1021000043EA0443036110BD0AB1016101E00B041D
:10211000036170470148006870470000100000200C
:10212000034800680349097808440149086070477A
:10213000100000201800002010B50848006840F08A
:10214000100006490860052000F080F80F2000F01C
:1021500007F800F02BF8002010BD0000002002401E
:1021600070B504460E4800784FF47A71B1FBF0F078
:102170000C490968B1FBF0F5284600F0F7FB08B1FF
:10218000012070BD102C07D200222146501E00F005
:102190001EF80548046001E00120F2E70020F0E7A6
:1021A00018000020000000201400002070470146A5
:1021B0000846002809DB00F01F0301229A4043096A
:1021C0009B0003F1E023C3F8002100BF70472DE915
:1021D000F05F80460D461646002701F001F90746DC
:1021E00039462A46334601F00700C0F1070ABAF122
:1021F000040F02D94FF0040A01E0C0F1070AD146EA
:1022000000F1040ABAF1070F02D24FF0000A01E010
:10221000A0F1030AD4464FF0010A0AFA09FAAAF11A
:10222000010A0AEA020A0AFA0CFA4FF0010B0BFA49
:102230000CFBABF1010B0BEA030B4AEA0B04214642
:10224000404601F0D5F8BDE8F09F000000BF00F067
:102250000702064B19684FF6FF031940044B0B4366
:1022600043EA0221014B196000BF70470CED00E00A
:102270000000FA0570B504460D460CB9012070BD8A
:102280005A48006800F00700A8420ED2574800687C
:1022900020F007002843554908600846006800F010
:1022A0000700A84201D00120E9E7207800F00200F1
:1022B00002281DD1207800F00400042805D14C48E4
:1022C000406840F4E0604A494860207800F0080027
:1022D000082805D14648406840F4605044494860A9
:1022E0004348406820F0F000A16808434049486036
:1022F000207800F0010078B36068012806D13C48DE
:10230000006800F4003090B90120B8E76068022846
:1023100006D13748006800F0007040B90120AEE7F0
:102320003348006800F0020008B90120A7E73048F0
:10233000406820F00300616808432D494860FFF7BA
:10234000E9FE064609E0FFF7E5FE801B41F2883111
:10235000884202D9032092E707E02548406800F050
:102360000C006168B0EB810FEDD12048006800F0EF
:102370000700A8420ED91D48006820F00700284336
:102380001A4908600846006800F00700A84201D01A
:10239000012074E7207800F00400042807D11448D5
:1023A000406820F4E060E168084311494860207803
:1023B00000F00800082808D10D48406820F460505B
:1023C000216940EAC1000A49486000F03FF8084925
:1023D0004968C1F30311074A515CC84006490860C7
:1023E00006480068FFF7BCFE002048E700200240D6
:1023F000001002403C97000800000020140000205C
:1024000001480068704700000000002000B5FFF799
:10241000F7FF04494968C1F30221034A515CC840EF
:1024200000BD0000001002404C97000800B5FFF707
:10243000E7FF04494968C1F3C221034A515CC8401F
:1024400000BD0000001002404C970008F0B585B0B8
:102450000FF26C0C9CE8E01001A8A0E8E0101CA5AD
:102460002D68009500210022002300240020194D32
:10247000696801F00C05F5B1042D02D0082D19D1C1
:1024800001E0154819E001ADC1F38346AC5D01F4EC
:10249000803555B10F4D6D68C5F340451DF80520D9
:1024A0000D4D6543B5FBF2F302E00C4D04FB05F363
:1024B000184602E000BF084800BF00BF05B0F0BDED
:1024C00002030405060708090A0B0C0D0E0F101075
:1024D000010200000010024000127A0000093D00D5
:1024E000F8B504460CB90120F8BD207800F00100D1
:1024F000002878D0F848406800F00C0004280CD080
:10250000F548406800F00C00082811D1F2484068F6
:1025100000F48030B0F5803F0AD1EF48006800F445
:10252000003000285FD0606800285CD10120DBE724
:1025300000BF6068B0F5803F06D1E748006840F40E
:102540008030E549086028E0606858B9E2480068D2
:1025500020F48030E04908600846006820F48020BC
:1025600008601AE06068B0F5A02F0BD1DA48006867
:1025700040F48020D84908600846006840F4803064
:1025800008600AE0D448006820F48030D24908602E
:102590000846006820F48020086000BF606888B1A9
:1025A000FFF7B8FD054606E0FFF7B4FD401B6428C1
:1025B00001D9032098E7C848006800F400300028DB
:1025C000F2D010E0FFF7A6FD054606E0FFF7A2FDFA
:1025D000401B642801D9032086E7BF48006800F447
:1025E00000300028F2D1207800F00200022857D1F4
:1025F000B948406800F00C0050B1B748406800F09E
:102600000C00082818D1B448406800F4803098B90C
:10261000B148006800F0020020B12069012801D013
:10262000012061E7AC48006820F0F800616940EAE9
:10263000C100A949086033E02069E8B10120A74939
:102640000860FFF767FD054606E0FFF763FD401BE6
:10265000022801D9032047E79F48006800F00200E4
:102660000028F2D09C48006820F0F800616940EA38
:10267000C1009949086013E0002098490860FFF7FD
:1026800049FD054606E0FFF745FD401B022801D93C
:10269000032029E79048006800F002000028F2D1EA
:1026A000207800F0080008282DD1A069B8B10120D9
:1026B0008B490860FFF72EFD054606E0FFF72AFD6F
:1026C000401B022801D903200EE78348406A00F02E
:1026D00002000028F2D0012000F05EFC13E0002090
:1026E0007F490860FFF716FD054606E0FFF712FD7B
:1026F000401B022801D90320F6E67748406A00F023
:1027000002000028F2D1207800F00400042873D1E0
:1027100000277148C06900F0805070B900BF6E4852
:10272000C06940F080506C49C8610846C06900F03B
:102730008050009000BF00BF01276A48006800F485
:102740008070B0B96748006840F4807065490860DF
:10275000FFF7E0FC054606E0FFF7DCFC401B6428C1
:1027600001D90320C0E65F48006800F480700028AB
:10277000F2D000BFE068012806D15748006A40F057
:1027800001005549086227E0E06858B95248006ADC
:1027900020F00100504908620846006A20F0040059
:1027A000086219E0E06805280BD14B48006A40F048
:1027B0000400494908620846006A40F001000862C6
:1027C0000AE04548006A20F00100434908620846D3
:1027D000006A20F00400086200BFE068A0B1FFF7C3
:1027E00099FC054609E0FFF795FC401B41F2883152
:1027F000884202D9032077E622E03748006A00F0D9
:1028000002000028EFD012E0FFF784FC054608E044
:10281000FFF780FC401B41F28831884201D9032038
:1028200062E62D48006A00F002000028F0D1012F76
:1028300005D12948C06920F080502749C86100BFF0
:10284000E069C8B32448406800F00C00082860D054
:10285000E069022848D1002020490866FFF75AFCA9
:10286000054606E0FFF756FC401B022801D903206D
:102870003AE61948006800F000700028F2D1206A9A
:10288000B0F5803F07D11448406820F40030A168BB
:10289000084311494860D4E9080108430E494968D2
:1028A00021F4741108430C49486001200B49086663
:1028B000FFF730FC054607E03DE0FFF72BFC401B2F
:1028C000022801D903200FE60348006800F00070D9
:1028D0000028F2D02FE00000001002400000424229
:1028E0008004424200700040002014490866FFF74F
:1028F00011FC054606E0FFF70DFC401B022801D93C
:102900000320F1E50E48006800F000700028F2D1C5
:1029100011E0E069012800D1E6E50948466806F4BF
:102920008031206A814204D106F47011606A8142CC
:1029300001D00120D8E50020D6E500000000424289
:1029400000100240042808D14FF0E021096941F04D
:1029500004014FF0E022116107E04FF0E021096926
:1029600021F004014FF0E0221161704770B5044678
:102970002546681EB0F1807F01D301200FE0681E5C
:102980004FF0E02148610F214FF0FF3000F030FDA3
:1029900000204FF0E021886107200861002070BD11
:1029A000704700002DE9F04704462068056820685C
:1029B000C668206847694FF00008C14605F00F0857
:1029C000B8F1000F0AD105F0200038B106F0200060
:1029D00020B1204600F0A8FBBDE8F087B8F1000F59
:1029E00071D007F0010018B906F4907000286AD081
:1029F00005F0010030B106F4807018B1E06B40F0D2
:102A00000100E06305F0040030B107F0010018B1E7
:102A1000E06B40F00200E06305F0020030B107F027
:102A2000010018B1E06B40F00400E06305F008001D
:102A300048B106F0200010B907F0010018B1E06BB2
:102A400040F00800E063E06B68B305F0200028B1B7
:102A500006F0200010B1204600F066FB20684069B7
:102A6000C0F38019E06B00F0080010B9B9F1000F55
:102A700022D0204600F038FB2068406900F040007A
:102A8000B0B12068406920F0400021684861606B67
:102A900050B11848616B4863606BFFF7B7F810B12D
:102AA000606B416B88470CE02046FFF779FF08E038
:102AB0002046FFF775FF04E02046FFF771FF002076
:102AC000E06389E7FFE705F0800030B106F08000A1
:102AD00018B1204600F0F6FB7EE705F0400030B16B
:102AE00006F0400018B1204600F00EFB74E700BF6E
:102AF00072E70000D530000810B504460CB901207B
:102B000010BDA06900B100E000BF94F8390028B9F9
:102B1000002084F83800204600F028F8242084F8AB
:102B200039002068C06820F400502168C860204641
:102B300000F04AFB2068006920F490402168086199
:102B40002068406920F02A00216848612068C06838
:102B500040F400502168C8600020E063202084F821
:102B6000390084F83A000020CAE7000010B586B0AA
:102B700004465749206888424BD100BF00BF5548E2
:102B8000806940F00400534988610846806900F07C
:102B90000400019000BF00BF00BF00BF00BF084697
:102BA000806940F0040088610846806900F00400F4
:102BB000019000BF00BF00BF00BF00BF0846806992
:102BC00040F4804088610846806900F480400190AC
:102BD00000BF00BF00BF48150290022003900120F3
:102BE00004900320059002A93B48FFF7E3F84FF457
:102BF000806002900020039002A93748FFF7DAF8BE
:102C00002520FFF7D4FA032211462520FFF7DFFA2B
:102C10005CE032492068884258D100BF00BF2D488F
:102C2000806940F010002B4988610846806900F0F7
:102C30001000019000BF00BF00BF00BF00BF0846EA
:102C4000806940F0200088610846806900F020001B
:102C5000019000BF00BF00BF00BF00BF0846C069B1
:102C600040F48010C8610846C06900F480100190EB
:102C700000BF00BF00BF8814029002200390002014
:102C800004900320059002A91548FFF793F804204B
:102C900002900020039004900320059002A911489F
:102CA000FFF788F8002211463520FFF790FA35200B
:102CB000FFF77DFA2068C06840F020002168C860F6
:102CC0002068C06840F010002168C86006B010BDE0
:102CD0000038014000100240000801400050004050
:102CE00000100140001401402DE9F84F04460E4643
:102CF000174699464FF0000A94F83A0020285DD113
:102D000006B117B90120BDE8F88F00BF94F838006C
:102D1000012801D10220F6E7012084F8380000BF25
:102D20000020E063222084F83A00FFF7F3F982469E
:102D3000A785E785A068B0F5805F04D1206910B948
:102D40000025B04602E035464FF0000800BF0020E5
:102D500084F8380000BF29E0534600222021204695
:102D6000CDF8009000F0DEFA08B10320CBE745B9BA
:102D700020684068C0F30800A8F8000008F10208C5
:102D800011E0A068B0F5805F03D0A06828B9206981
:102D900018B920684068287004E02068406800F096
:102DA0007F0028706D1CE08D401EE085E08D0028BE
:102DB000D2D1202084F83A000020A4E70220A2E724
:102DC00010B5034693F83A0020282FD101B10AB973
:102DD000012010BD00BF93F83800012801D1022066
:102DE000F7E7012083F8380000BF99629A85DA85F9
:102DF0000020D863222083F83A0000BF002083F827
:102E0000380000BF1868C06840F480701C68E0603B
:102E10001868406940F001001C6860611868C0686B
:102E200040F020001C68E0600020D2E70220D0E7DC
:102E30001D4A0168914236D11C49098801F40041BC
:102E400089BB1A49098801F4804171B11849097890
:102E50000A2903D00021154A118024E0134909886A
:102E600041F40041114A11801DE0114909780D29F2
:102E700006D10E49098841F480410C4A118012E0C4
:102E80000B490978094A1288C2F30D02094B99547B
:102E900006490988491C054A118011460988C72935
:102EA00001DD002111807047003801400C00002036
:102EB0000E000020280000202DE9F84F04460E46A1
:102EC000174699464FF0000A94F8390020285AD145
:102ED00006B117B90120BDE8F88F00BF94F838009B
:102EE000012801D10220F6E7012084F8380000BF54
:102EF0000020E063212084F83900FFF70BF98246B7
:102F0000A784E784A068B0F5805F04D1206910B978
:102F10000025B04602E035464FF0000800BF002013
:102F200084F8380000BF1BE0534600228021204671
:102F3000CDF8009000F0F6F908B10320CBE745B9D1
:102F4000B8F80000C0F308002168486008F10208E2
:102F500003E02878216848606D1CE08C401EE08406
:102F6000E08C0028E0D15346002240212046CDF8D5
:102F7000009000F0D7F908B10320ACE7202084F8D6
:102F800039000020A7E70220A5E7704700BFFEE751
:102F900000BFFEE77047704708B508490968C908CF
:102FA0004FF47A72B1FBF2F14143009100BF00BFD0
:102FB00000994A1E00920029F9D108BD00000020A6
:102FC000704710B5FFF7ACF810BD70471CB53F480F
:102FD00000680068C0F3C00090B100BF00200090FE
:102FE0003A480068006800903848006840680090DF
:102FF00000BF00BF3548006800683448006840687A
:10300000324800680068C0F3401020B34FF0FF332F
:10301000012201A92D48FFF767FE2D48B0F80008EE
:10302000C0F30E0040F2FF71884215DA9DF80400EB
:103030002749B1F80018C1F30E01254A5054104633
:10304000B0F80008401C1146B1F8001860F30E01FA
:103050001046A0F800181BE01D48B0F800086FF3F8
:103060000E001B49A1F800089DF80400B1F80018F3
:10307000C1F30E01164A50541046B0F80008401C27
:103080001146B1F8001860F30E011046A0F80018C0
:103090000E4800680068C0F30010B0B10C48B0F8EA
:1030A000000820F4004000F500400949A1F800089C
:1030B00000BF0020009005480068006800900348A9
:1030C00000684068009000BF00BF1CBD40010020A8
:1030D0008001002070B505466C6A0020E085E08420
:1030E0002046FFF75DFC70BD0168C96821F490714E
:1030F0000268D1600168496921F0010102685161EB
:10310000202180F83A10704710B504462068C06846
:1031100020F040002168C860202084F83900204653
:10312000FFF733FF002010BD70B5044694F83A0055
:10313000222847D1A068B0F5805F0CD1206950B932
:103140000025A66A20684068C0F308003080A06AA5
:10315000801CA06215E0A56A0026A068B0F5805F1B
:1031600003D0A06828B9206918B920684068287081
:1031700004E02068406800F07F002870A06A401CCE
:10318000A062E08D401E80B2E085C8B92068C068AA
:1031900020F020002168C8602068C06820F480709A
:1031A0002168C8602068406920F0010021684861FA
:1031B000202084F83A002046FFF73AFE002070BD38
:1031C0000020FCE70220FAE770B50446216809698F
:1031D00021F44051E2681143226811612269A1681B
:1031E0001143626941EA02052168C96841F20C6233
:1031F000914329432268D1602168496921F44071D3
:10320000A2691143226851612D4A2168914202D17D
:10321000FFF70CF901E0FFF7F9F800EBC00101EB53
:10322000001162689200B1FBF2F100EBC00202EB08
:10323000001263689B00B2FBF3F26423B2FBF3F26B
:1032400002EBC20303EB0212A1EB8201322202EB7A
:1032500001116422B1FBF2F101F0F00100EBC002B8
:1032600002EB001263689B00B2FBF3F26423B2FB33
:10327000F3F201EB021200EBC00101EB00116368F5
:103280009B00B1FBF3F100EBC00303EB0013666896
:10329000B600B3FBF6F36426B3FBF6F303EBC30609
:1032A00006EB0313A1EB8301322303EB011164232B
:1032B000B1FBF3F101F00F0111442268916070BD80
:1032C00000380140014691F83900212828D188684A
:1032D000B0F5805F0BD1086948B90A6A1088C0F35D
:1032E00008000B685860086A801C086205E00B6AD9
:1032F000581C086218780B685860C88C401E80B251
:10330000C88458B90868C06820F080000B68D8608D
:103310000868C06840F040000B68D8600020704723
:103320000220FCE72DE9F04104460D461746984679
:10333000069E21E0701CF8B12EB1FEF7EBFEA0EB6B
:103340000800B04218D92068C06820F4D070216805
:10335000C8602068406920F0010021684861202091
:1033600084F8390084F83A0000BF002084F838005F
:1033700000BF0320BDE8F081206800682840A84213
:1033800001D1012000E00020B842D3D00020F1E7B5
:1033900010B50648FFF706FB00BF012204490348A9
:1033A000FFF70EFD0028F8D110BD0000F00000204E
:1033B0000E00002000BFFEE7490050EAC12018BF00
:1033C00004204A0D18BF40F0010040F2FF72B2EB3A
:1033D000515F08BF40F00200012808BF0520704778
:1033E00002480068C0F30220704700000CED00E0C6
:1033F00010B5002804DB0A07130E054A135406E033
:103400000A07140E034A00F00F031B1FD45410BD0B
:1034100000E400E018ED00E030380A2801D2012075
:1034200070470020704700BF7047000070B500254E
:103430000AE0642206A107A000F0BAF804460CB91D
:10344000002070BD681CC5B20A2DF2DB0120F8E730
:103450004F4B00004154000010B54FF47A7205A1A3
:1034600006A000F0A5F804460CB1012010BD002014
:10347000FCE70000612B6F6B000000002B2B2B6121
:103480000000000000B585B000200190029003907C
:10349000049000BF00BF1E48806940F010001C4926
:1034A00088610846806900F01000009000BF00BFEE
:1034B00000BF00BF00BF0846806940F0040088617B
:1034C0000846806900F00400009000BF00BF00BF04
:1034D000102001900020029002200390032004900D
:1034E00001A90C48FEF766FC102001900120029013
:1034F00003900320049001A90748FEF75BFC00BF7E
:10350000012210210448FEF7FFFD00BF05B000BDF9
:1035100000100240001001400008014070B505464F
:103520000D2D2FD2DFE805F0070A0D101316191C18
:103530001F2225282B004FF4966425E04FF41664D3
:1035400022E04FF496541FE04FF416541CE04FF461
:10355000615419E04FF4964416E04FF4164413E01A
:103560004AF2F87410E04FF461440DE04FF49634E1
:103570000AE04FF4E13407E04FF4966404E04FF4BE
:10358000613401E0032070BD00BFFFF77BFF2046E0
:1035900000F01CFBFFF760FFFFF748FF06460EB187
:1035A0000120F0E7014805700020ECE7240000202E
:1035B0002DE9F04105460E461446002700F052FB67
:1035C00029460FA000F01AFB06B114B90020BDE88F
:1035D000F08110E000F030FB074647B13146384635
:1035E000FDF714F808B10020F1E700F03BFB641E82
:1035F000012000F05DFB002CECD10220E7E7000089
:1036000025730D0A000000007FB50446022C02DB82
:10361000B4F5806F02DD032004B070BD224607A11F
:103620006846FCF769FE642208A16846FFF7C0FF00
:1036300005460DB10120EFE70020EDE741542B4195
:10364000445054494D3D2564000000004F4B00009C
:1036500030B587B0054615B1012D0AD104E00FA1A0
:1036600005A8FCF749FE07E00DA105A8FCF744FEFC
:1036700002E0032007B030BD00BF05AA0AA16846DA
:10368000FCF73AFE4FF47A720BA16846FFF790FF01
:1036900004460CB10120EDE70020EBE74C4F57004A
:1036A000444545500000000041542B4155544F53B0
:1036B0004C4545503D2573004F4B000030B591B04F
:1036C0000446224607A101A8FCF716FE642208A1C1
:1036D00001A8FFF76DFF054615B1012011B030BDFF
:1036E0000020FBE741542B48454C4C4F3D257300CF
:1036F0004F4B00002DE9F04192B004460D461646AE
:103700001F462B4622460BA103A8CDE90067FCF714
:10371000F3FD4FF47A720DA103A8FFF749FF80462D
:10372000B8F1000F03D0012012B0BDE8F0810020F5
:10373000FAE7000041542B49424541434F4E3D2595
:10374000732C25642C25642C256400004F4B00004D
:1037500030B585B0054615B1012D0AD104E00FA1A1
:1037600004A8FCF7C9FD07E00DA104A8FCF7C4FDFF
:1037700002E0032005B030BD00BF04AA09A16846DD
:10378000FCF7BAFD64220AA16846FFF711FF044660
:103790000CB10120EEE70020ECE700004F4E0000E6
:1037A0004F46460041542B4C4544454E3D25730041
:1037B0004F4B000030B587B0054615B1012D0AD139
:1037C00004E00FA106A8FCF797FD07E00DA106A8ED
:1037D000FCF792FD02E0032007B030BD00BF06AA4F
:1037E00009A101A8FCF788FD64220CA101A8FFF73C
:1037F000DFFE04460CB10120EEE70020ECE70000FC
:103800004F4E00004F46460041542B4C494E4B5002
:10381000415353454E3D2573000000004F4B0000BF
:1038200030B585B0054615B1012D0AD104E00FA1D0
:1038300004A8FCF761FD07E00DA104A8FCF75CFDFE
:1038400002E0032005B030BD00BF04AA09A168460C
:10385000FCF752FD64220BA16846FFF7A9FE04465F
:103860000CB10120EEE70020ECE700004F4E000015
:103870004F46460041542B4D41585055543D2573F9
:10388000000000004F4B00007FB50446052C1DD200
:10389000DFE804F003080D12170018A103A8FCF7D5
:1038A0002BFD16E016A103A8FCF726FD11E015A1DB
:1038B00003A8FCF721FD0CE013A103A8FCF71CFDF5
:1038C00007E012A103A8FCF717FD02E0032004B0F3
:1038D00070BD00BF03AA0EA16846FCF70DFD64226F
:1038E0000EA16846FFF764FE05460DB10120EEE724
:1038F000642000F0DDF90020E9E700004D00000041
:10390000530000004F00000042000000490000008A
:1039100041542B4D4F44453D257300004F4B000053
:1039200030B591B00446224607A101A8FCF7E4FC9B
:10393000642208A101A8FFF73BFE054615B101204E
:1039400011B030BD0020FBE741542B4E414D453DA9
:10395000257300004F4B000030B587B0054615B108
:10396000012D0AD104E00FA106A8FCF7C5FC07E071
:103970000DA106A8FCF7C0FC02E0032007B030BD93
:1039800000BF06AA09A101A8FCF7B6FC4FF47A72A1
:103990000BA101A8FFF70CFE04460CB10120EDE7D6
:1039A0000020EBE74F4E00004F46460041542B509D
:1039B0004F574552534C454550454E3D25730000E9
:1039C0004F4B000030B587B0054615B1012D0AD127
:1039D00004E00FA106A8FCF78FFC07E00DA106A8E4
:1039E000FCF78AFC02E0032007B030BD00BF06AA46
:1039F00009A101A8FCF780FC64220CA101A8FFF733
:103A0000D7FD04460CB10120EEE70020ECE70000F2
:103A10004F4E00004F46460041542B534C415645F3
:103A2000534C454550454E3D257300004F4B00001B
:103A3000FEB50546082D15D2DFE805F00406080A94
:103A40000C0E101201240FE002240DE003240BE001
:103A5000042409E0052407E0062405E0072403E028
:103A6000082401E00320FEBD00BF224607A16846EE
:103A7000FCF742FC642208A16846FFF799FD064660
:103A80000EB10120EFE70020EDE7000041542B5478
:103A9000504C3D25640000004F4B00002DE9FF4FC6
:103AA00089B007468A4693460D2F2FD2DFE807F0EC
:103AB000070A0D101316191C1F2225282B004FF47E
:103AC000966427E04FF4166424E04FF4965421E006
:103AD0004FF416541EE04FF461541BE04FF496442B
:103AE00018E04FF4164415E04AF2F87412E04FF46F
:103AF00061440FE04FF496340CE04FF4E13409E0F8
:103B00004FF4966406E04FF4613403E003200DB0F7
:103B1000BDE8F08F00BFBAF1000F09D0BAF1010F74
:103B200008D0BAF1020F07D0BAF1030F08D105E0AF
:103B3000052507E0062505E0072503E0082501E047
:103B40000320E4E700BFBBF1000F06D0BBF1010F7B
:103B500005D0BBF1020F06D103E0002605E00126E7
:103B600003E0022601E00320D1E700BF0C9810B16A
:103B7000012806D102E04FF0010904E04FF00209EC
:103B800001E00320C3E700BF2B46224609A103A89A
:103B9000CDE90069FCF7B0FB64220BA103A8FFF795
:103BA00007FD8046B8F1000F01D00120AFE70020EB
:103BB000ADE7000041542B554152543D25642C255E
:103BC000642C25642C2564004F4B000010B504467E
:103BD0000848094908600846446000218160C160C6
:103BE00001610C21416100218161C161FEF784FF07
:103BF00010BD000000500040400100200FB438B557
:103C000005A800900A48009A0499FCF757FB002089
:103C100000900748FCF70CFD84B24FF0FF332246BA
:103C200003490448FFF748F938BC5DF814FB00006D
:103C300082090020400100200948B0F80008012155
:103C4000B1EBD03F09D100200549B1F80018C1F30C
:103C50000E01034A5054104670470020FCE7000054
:103C6000800100200748B0F800086FF30E000549F6
:103C7000A1F800080846B0F8000820F40040A1F8B8
:103C8000000870478001002010B5044600204FF066
:103C9000E0210861FEF756FE2046E11704EB517162
:103CA000C1F3CF01014A118010BD000004000020C3
:103CB00070B504464FF47A7094FBF0F594FBF0F184
:103CC00000FB114603E0074800F00EF86D1E002DC2
:103CD000F9D12EB14FF47A7106FB01F000F004F82F
:103CE00070BD000040420F000146114A12884A434D
:103CF0004FF0E0235A6100229A611A46126942F09D
:103D000001021A6100BF4FF0E022106900F00102C9
:103D10001AB100F48032002AF5D04FF0E022126987
:103D200022F001024FF0E0231A6100229A617047ED
:103D3000040000200A20FFF7F1FB044674B134A010
:103D4000FCF7CEFA09E000BF4FF480713748FEF768
:103D5000D1F900BFC820FFF7ABFFF4E7FFF77CFB0A
:103D600033A0FFF7DDFD044634A0FFF7A7FC204495
:103D7000C4B20420FFF75CFE2044C4B200231A46FC
:103D800003210A20FFF78AFE2044C4B20220FFF775
:103D90003BFC2044C4B20120FFF70CFD2044C4B218
:103DA0000020FFF7D5FC2044C4B20120FFF70AFE33
:103DB0002044C4B20020FFF74BFC2044C4B20120D1
:103DC000FFF7CAFD2044C4B20120FFF729FD2044BB
:103DD000C4B2C823142211461CA0FFF78BFC204458
:103DE000C4B20420FFF750FD2044C4B274B120A037
:103DF000FCF776FA09E000BF4FF480710B48FEF73C
:103E000079F900BFC820FFF753FFF4E700BFFEE7D2
:103E100041544B2D4D5735373920696E69742066F2
:103E200061696C6564210D0A000000000008014012
:103E300041544B2D4D5735373900000048454C4C07
:103E40004F2041544B2D4D573537390030303030ED
:103E50003030303030303030303030303030303062
:103E60003030303030303030303030300000000012
:103E700041544B2D4D5735373920636F6E66696756
:103E8000206661696C6564210D0A000000BF054A67
:103E9000126802F04002002AF9D0C2B2014B1B1D89
:103EA0001A6070470038014000B585B000BF00BF00
:103EB0002948806940F010002749886108468069D8
:103EC00000F01000009000BF00BF00BF00BF00BFA7
:103ED0000846806940F0040088610846806900F067
:103EE0000400009000BF00BF00BF00BF00BF084635
:103EF000806940F0040088610846806900F0040091
:103F0000009000BF00BF00BF202001900020029061
:103F1000012003900320049001A91048FDF74AFFF7
:103F20004FF40040019000200290012003900320F4
:103F3000049001A90A48FDF73DFF012001900020EF
:103F40000290022003900320049001A90448FDF789
:103F500031FF05B000BD000000100240001001401C
:103F60000008014078B5044600261B4805884088B3
:103F700045430021084604F095FD00BF164800891E
:103F800000904FF080701549086140000861BDF84D
:103F90000000134908604FF40000104908618020B8
:103FA00008618000086100BF00BF40100861400444
:103FB000086100BF08E00A4804604FF400000749A8
:103FC000086180200861761CAE42F4D34FF4007083
:103FD0000249086178BD0000300100200010014056
:103FE0000C0C014010B5044658488471002C58D17F
:103FF000F020564908804FF4A07048800846808819
:1040000045F21051884210D14FF430504F49088189
:104010004FF4285048814FF42C5088814FF4F070B1
:1040200008804FF4487048801AE04848808841F67C
:10403000631188420DD12C20444908812B204881EE
:104040002A2088814FF4F07008804FF4487048802F
:1040500006E02C203D4908812A2048812B208881B8
:104060003A48808845F21031884205D03748808828
:1040700047F29671884206D14FF4A0703349088008
:104080004FF4F07048803148808849F60601884234
:1040900058D14FF4F0702D4908804FF44870488093
:1040A00050E04FF4A07029490880F020488008466D
:1040B000808845F21051884210D14FF43050234986
:1040C00008814FF4285048814FF42C5088814FF4D8
:1040D000487008804FF4F070488020E01B488088CA
:1040E00041F66311884205D01848808849F60601D8
:1040F00088420DD12C20154908812A2048812B2087
:1041000088814FF4487008804FF4F070488006E0D2
:104110002C200E4908812A2048812B2088810B48B9
:10412000808845F21031884205D00848808847F2DF
:104130009671884206D14FF4F070044908804FF41C
:10414000A0704880002004F019FA10BD3001002052
:1041500078B505460E4614463146284604F0A2FCC2
:1041600000BF1248008900904FF08070104908612C
:1041700040000861BDF800000E4908604FF40000DF
:104180000B490861802008618000086100BF00BF02
:104190004010086140040861064804604FF40000C4
:1041A0000861802008618000086178BD300100202E
:1041B000001001400C0C014008B5CF2000904FF0DA
:1041C0008070FE49086140000861BDF80000FC49AC
:1041D00008604FF40000F949086180200861800000
:1041E000086100BF002004F0DFFFC12004F0DCFF05
:1041F000302004F0D9FFED2000904FF08070EF499F
:10420000086140000861BDF80000ED4908604FF406
:104210000000EA490861802008618000086100BF51
:10422000642004F0C1FF032004F0BEFF122004F05C
:10423000BBFF812004F0B8FFE82000904FF08070B1
:10424000DE49086140000861BDF80000DC490860F3
:104250004FF40000D949086180200861800008619E
:1042600000BF852004F0A0FF102004F09DFF7A20FD
:1042700004F09AFFCB2000904FF08070CF49086186
:1042800040000861BDF80000CD4908604FF400000F
:10429000CA490861802008618000086100BF392098
:1042A00004F082FF2C2004F07FFF002004F07CFF4C
:1042B000342004F079FF022004F076FFF72000900C
:1042C0004FF08070BD49086140000861BDF80000F2
:1042D000BB4908604FF40000B849086180200861BC
:1042E0008000086100BF202004F05EFFEA200090FB
:1042F0004FF08070B149086140000861BDF80000CE
:10430000AF4908604FF40000AC49086180200861A3
:104310008000086100BF002004F046FF002004F088
:1043200043FFC02000904FF08070A4490861400016
:104330000861BDF80000A24908604FF400009F49E1
:104340000861802008618000086100BF1B2004F024
:104350002BFFC12000904FF0807098490861400009
:104360000861BDF80000964908604FF400009349C9
:104370000861802008618000086100BF012004F00E
:1043800013FFC52000904FF080708C4908614000F9
:104390000861BDF800008A4908604FF400008749B1
:1043A0000861802008618000086100BF302004F0AF
:1043B000FBFE302004F0F8FEC72000904FF0807024
:1043C0007E49086140000861BDF800007C49086032
:1043D0004FF400007949086180200861800008617D
:1043E00000BFB72004F0E0FE362000904FF0807050
:1043F0007249086140000861BDF80000704908601A
:104400004FF400006D490861802008618000086158
:1044100000BF482004F0C8FE3A2000904FF08070A2
:104420006649086140000861BDF800006449086001
:104430004FF4000061490861802008618000086134
:1044400000BF552004F0B0FEB12000904FF0807006
:104450005A49086140000861BDF8000058490860E9
:104460004FF4000055490861802008618000086110
:1044700000BF002004F098FE1A2004F095FEB6203C
:1044800000904FF080704D49086140000861BDF810
:1044900000004B4908604FF4000048490861802043
:1044A00008618000086100BF0A2004F07DFEA220A0
:1044B00004F07AFEF22000904FF080703F490861CE
:1044C00040000861BDF800003D4908604FF400005D
:1044D0003A490861802008618000086100BF00201F
:1044E00004F062FE262000904FF08070334908618E
:1044F00040000861BDF80000314908604FF4000039
:104500002E490861802008618000086100BF0120F9
:1045100004F04AFEE02000904FF0807027490861C7
:1045200040000861BDF80000254908604FF4000014
:1045300022490861802008618000086100BF0F20C7
:1045400004F032FE2A2004F02FFE282004F02CFE76
:10455000082004F029FE0E2004F026FE082004F0B6
:1045600023FE542004F020FEA92004F01DFE432069
:1045700004F01AFE0A2004F017FE0F2004F014FEC7
:10458000002004F011FE002004F00EFE002004F0D4
:104590000BFE002004F008FEE12000904FF0807038
:1045A0000649086140000861BDF800000449086040
:1045B0004FF4000001490861802003E00010014031
:1045C0000C0C014008618000086100BF002004F06D
:1045D000EBFD152004F0E8FD172004F0E5FD0720B1
:1045E00004F0E2FD112004F0DFFD062004F0DCFD04
:1045F0002B2004F0D9FD562004F0D6FD3C2004F019
:10460000D3FD052004F0D0FD102004F0CDFD0F20D7
:1046100004F0CAFD3F2004F0C7FD3F2004F0C4FDB4
:104620000F2004F0C1FD2B2000904FF08070364920
:10463000086140000861BDF80000344908604FF48B
:10464000000031490861802008618000086100BFD6
:10465000002004F0A9FD002004F0A6FD012004F0D4
:10466000A3FD3F2004F0A0FD2A2000904FF08070B1
:104670002549086140000861BDF800002349086031
:104680004FF4000020490861802008618000086123
:1046900000BF002004F088FD002004F085FD00200C
:1046A00004F082FDEF2004F07FFD112000904FF018
:1046B00080701549086140000861BDF80000134989
:1046C00008604FF4000010490861802008618000F4
:1046D000086100BF7820FFF7EBFA292000904FF027
:1046E00080700949086140000861BDF80000074971
:1046F00008604FF4000004490861802008618000D0
:10470000086100BF08BD0000001001400C0C014012
:1047100008B5FF2000904FF08070FE49086140000E
:104720000861BDF80000FC4908604FF40000F94939
:104730000861802008618000086100BFFF2004F04C
:1047400033FD982004F030FD062004F02DFDBC2040
:1047500000904FF08070EF49086140000861BDF89B
:104760000000ED4908604FF40000EA49086180202C
:1047700008618000086100BF012004F015FD0F20D2
:1047800004F012FD612004F00FFDFF2004F00CFD89
:10479000012004F009FD012004F006FD0B2004F0C7
:1047A00003FD102004F000FD372004F0FDFC632021
:1047B00004F0FAFCFF2004F0F7FCFF2004F0F4FC06
:1047C000012004F0F1FC012004F0EEFC002004F0D4
:1047D000EBFC002004F0E8FCFF2004F0E5FC522094
:1047E00004F0E2FC012004F0DFFC002004F0DCFC1B
:1047F000402004F0D9FCBD2000904FF08070C549E6
:10480000086140000861BDF80000C34908604FF42A
:104810000000C0490861802008618000086100BF75
:10482000012004F0C1FC232004F0BEFC452004F06C
:10483000BBFC672004F0B8FC012004F0B5FC232089
:1048400004F0B2FC452004F0AFFC672004F0ACFC9F
:10485000BE2000904FF08070AE49086140000861B2
:10486000BDF80000AC4908604FF40000A949086198
:10487000802008618000086100BF002004F094FCE3
:10488000012004F091FCAB2004F08EFC602004F0C9
:104890008BFC222004F088FC222004F085FC2220DE
:1048A00004F082FC222004F07FFC222004F07CFC37
:1048B000C72000904FF08070964908614000086161
:1048C000BDF80000944908604FF400009149086168
:1048D000802008618000086100BF362004F064FC7D
:1048E000ED2000904FF080708A4908614000086117
:1048F000BDF80000884908604FF400008549086150
:10490000802008618000086100BF7F2004F04CFC1B
:104910000F2004F049FCC02000904FF080707D49CA
:10492000086140000861BDF800007B4908604FF451
:10493000000078490861802008618000086100BF9C
:104940000F2004F031FC0B2004F02EFC0A2004F0B0
:104950002BFCFC2000904FF080706E4908614000F5
:104960000861BDF800006C4908604FF40000694917
:104970000861802008618000086100BF082004F001
:1049800013FCDF2000904FF0807062490861400006
:104990000861BDF80000604908604FF400005D49FF
:1049A0000861802008618000086100BF002004F0D9
:1049B000FBFB002004F0F8FB002004F0F5FB0020D6
:1049C00004F0F2FB002004F0EFFB202004F0ECFBED
:1049D000F32000904FF080704E490861400008615C
:1049E000BDF800004C4908604FF4000049490861D7
:1049F000802008618000086100BF742004F0D4FBAF
:104A0000B42000904FF08070424908614000086176
:104A1000BDF80000404908604FF400003D490861BE
:104A2000802008618000086100BF002004F0BCFB0A
:104A3000002004F0B9FB002004F0B6FBF720009042
:104A40004FF080703349086140000861BDF80000F4
:104A5000314908604FF400002E4908618020086148
:104A60008000086100BF822004F09EFBB12000900E
:104A70004FF080702749086140000861BDF80000D0
:104A8000254908604FF40000224908618020086130
:104A90008000086100BF002004F086FB132004F0B2
:104AA00083FB132004F080FBF22000904FF0807015
:104AB0001849086140000861BDF800001649086007
:104AC0004FF40000134908618020086180000861EC
:104AD00000BF802004F068FB042004F065FB402048
:104AE00004F062FB282004F05FFBC12000904FF02F
:104AF00080700849086140000861BDF8000006495F
:104B000008604FF4000003490861802008618000BC
:104B1000086103E0001001400C0C014000BF1720A9
:104B200004F042FB882004F03FFB882004F03CFBAB
:104B3000202004F039FBE02000904FF080709F4966
:104B4000086140000861BDF800009D4908604FF40D
:104B500000009A490861802008618000086100BF58
:104B6000002004F021FB0A2004F01EFB122004F0B8
:104B70001BFB102004F018FB0E2004F015FB202076
:104B800004F012FBCC2004F00FFB072004F00CFB18
:104B9000062004F009FB0B2004F006FB0E2004F0B5
:104BA00003FB0F2004F000FB0D2004F0FDFA15209C
:104BB00004F0FAFA102004F0F7FA002004F0F4FAF6
:104BC000E12000904FF080707C490861400008614E
:104BD000BDF800007A4908604FF400007749086189
:104BE000802008618000086100BF002004F0DCFA2A
:104BF0000B2004F0D9FA132004F0D6FA0D2004F0AB
:104C0000D3FA0E2004F0D0FA1B2004F0CDFA712064
:104C100004F0CAFA062004F0C7FA062004F0C4FA29
:104C20000A2004F0C1FA0F2004F0BEFA0E2004F0AE
:104C3000BBFA0F2004F0B8FA152004F0B5FA0C20E6
:104C400004F0B2FA002004F0AFFA2A2000904FF0EE
:104C500080705A49086140000861BDF80000584959
:104C600008604FF400005549086180200861800009
:104C7000086100BF002004F097FA002004F094FAC5
:104C8000012004F091FADF2004F08EFA2B2000902E
:104C90004FF080704949086140000861BDF800008C
:104CA000474908604FF400004449086180200861CA
:104CB0008000086100BF002004F076FA002004F0B4
:104CC00073FA032004F070FA1F2004F06DFA3A2002
:104CD00000904FF080703949086140000861BDF8CC
:104CE0000000374908604FF4000034490861802013
:104CF00008618000086100BF552004F055FA362095
:104D000000904FF080702D49086140000861BDF8A7
:104D100000002B4908604FF40000284908618020FA
:104D200008618000086100BF002004F03DFA1120F6
:104D300000904FF080702149086140000861BDF883
:104D400000001F4908604FF400001C4908618020E2
:104D500008618000086100BF7820FEF7A9FF2920C4
:104D600000904FF080701549086140000861BDF85F
:104D70000000134908604FF40000104908618020CA
:104D800008618000086100BF1420FEF791FF2C200D
:104D900000904FF080700949086140000861BDF83B
:104DA0000000074908604FF40000044908618020B2
:104DB00008618000086100BF08BD000000100140CC
:104DC0000C0C014008B5ED2000904FF08070FE49BA
:104DD000086140000861BDF80000FC4908604FF41C
:104DE0000000F9490861802008618000086100BF67
:104DF000012004F0D9F9FE2004F0D6F9EE2000904D
:104E00004FF08070F049086140000861BDF8000073
:104E1000EE4908604FF40000EB490861802008610A
:104E20008000086100BFDE2004F0BEF9212004F0FC
:104E3000BBF9F12000904FF08070E3490861400019
:104E40000861BDF80000E14908604FF40000DE4948
:104E50000861802008618000086100BF012004F023
:104E6000A3F9DF2000904FF08070D749086140001F
:104E70000861BDF80000D54908604FF40000D24930
:104E80000861802008618000086100BF102004F0E4
:104E90008BF9C42000904FF08070CB49086140002E
:104EA0000861BDF80000C94908604FF40000C64918
:104EB0000861802008618000086100BF8F2004F035
:104EC00073F9C62000904FF08070BF490861400020
:104ED0000861BDF80000BD4908604FF40000BA4900
:104EE0000861802008618000086100BF002004F094
:104EF0005BF9E22004F058F9E22004F055F9E220D1
:104F000004F052F9BF2000904FF08070AE49086164
:104F100040000861BDF80000AC4908604FF4000093
:104F2000A9490861802008618000086100BFAA20AB
:104F300004F03AF9B02000904FF08070A249086167
:104F400040000861BDF80000A04908604FF400006F
:104F50009D490861802008618000086100BF0D2024
:104F600004F022F9002004F01FF90D2004F01CF9D0
:104F7000002004F019F9112004F016F9002004F0C3
:104F800013F9192004F010F9002004F00DF9212084
:104F900004F00AF9002004F007F92D2004F004F9C8
:104FA000002004F001F93D2004F0FEF8002004F098
:104FB000FBF85D2004F0F8F8002004F0F5F85D201F
:104FC00004F0F2F8002004F0EFF8B12000904FF068
:104FD00080707D49086140000861BDF800007B4990
:104FE00008604FF400007849086180200861800063
:104FF000086100BF802004F0D7F8002004F0D4F846
:105000008B2004F0D1F8002004F0CEF8962004F0B4
:10501000CBF8002004F0C8F8B22000904FF0807068
:105020006949086140000861BDF8000067490860EF
:105030004FF4000064490861802008618000086125
:1050400000BF002004F0B0F8002004F0ADF802200A
:1050500004F0AAF8002004F0A7F8032004F0A4F854
:10506000002004F0A1F8B32000904FF08070564962
:10507000086140000861BDF80000544908604FF421
:10508000000051490861802008618000086100BF6C
:10509000002004F089F8002004F086F8002004F0D5
:1050A00083F8002004F080F8002004F07DF8002050
:1050B00004F07AF8002004F077F8002004F074F887
:1050C000002004F071F8002004F06EF8002004F0D5
:1050D0006BF8002004F068F8002004F065F8002068
:1050E00004F062F8002004F05FF8002004F05CF89F
:1050F000002004F059F8002004F056F8002004F0D5
:1051000053F8002004F050F8002004F04DF800207F
:1051100004F04AF8002004F047F8002004F044F8B6
:10512000B42000904FF0807027490861400008616A
:10513000BDF80000254908604FF4000022490861CD
:10514000802008618000086100BF8B2004F02CF8EB
:10515000002004F029F8962004F026F8002004F03E
:1051600023F8A12004F020F8002004F01DF8B52059
:1051700000904FF080701449086140000861BDF84C
:105180000000124908604FF400000F4908618020B8
:1051900008618000086100BF022004F005F80020CB
:1051A00004F002F8032003F0FFFF002003F0FCFFEF
:1051B000042003F0F9FF002003F0F6FFB620009072
:1051C0004FF08070004903E0001001400C0C0140DA
:1051D000086140000861BDF80000FE4908604FF416
:1051E0000000FD490861802008618000086100BF5F
:1051F000002003F0D9FF002003F0D6FFB720009075
:105200004FF08070F449086140000861BDF800006B
:10521000F04908604FF40000EF4908618020086100
:105220008000086100BF002003F0BEFF002003F0F3
:10523000BBFF3F2003F0B8FF002003F0B5FF5E2066
:1052400003F0B2FF002003F0AFFF642003F0ACFFD7
:10525000002003F0A9FF8C2003F0A6FF002003F03C
:10526000A3FFAC2003F0A0FF002003F09DFFDC2093
:1052700003F09AFF002003F097FF702003F094FFE3
:10528000002003F091FF902003F08EFF002003F038
:105290008BFFEB2003F088FF002003F085FFDC206C
:1052A00003F082FF002003F07FFFB82000904FF052
:1052B0008070C949086140000861BDF80000C54917
:1052C00008604FF40000C449086180200861800034
:1052D000086100BF002003F067FF002003F064FFB7
:1052E000002003F061FF002003F05EFF002003F0C8
:1052F0005BFF002003F058FF002003F055FF002063
:1053000003F052FFBA2000904FF08070B24908615C
:1053100040000861BDF80000AE4908604FF400008D
:10532000AD490861802008618000086100BF242029
:1053300003F03AFF002003F037FF002003F034FFB2
:10534000002003F031FFC12000904FF08070A2498F
:10535000086140000861BDF800009E4908604FF4F4
:1053600000009D490861802008618000086100BF3D
:10537000202003F019FF002003F016FF542003F053
:1053800013FF002003F010FFFF2003F00DFF0020AB
:1053900003F00AFFC22000904FF080708E49086130
:1053A00040000861BDF800008A4908604FF4000021
:1053B00089490861802008618000086100BF0A20D7
:1053C00003F0F2FE002003F0EFFE042003F0ECFEF9
:1053D000002003F0E9FEC32000904FF080707E496A
:1053E000086140000861BDF800007A4908604FF488
:1053F000000079490861802008618000086100BFD1
:105400003C2003F0D1FE002003F0CEFE3A2003F052
:10541000CBFE002003F0C8FE392003F0C5FE0020BB
:1054200003F0C2FE372003F0BFFE002003F0BCFEF5
:105430003C2003F0B9FE002003F0B6FE362003F056
:10544000B3FE002003F0B0FE322003F0ADFE0020DA
:1054500003F0AAFE2F2003F0A7FE002003F0A4FE15
:105460002C2003F0A1FE002003F09EFE292003F073
:105470009BFE002003F098FE262003F095FE0020FE
:1054800003F092FE242003F08FFE002003F08CFE38
:10549000242003F089FE002003F086FE232003F081
:1054A00083FE002003F080FE3C2003F07DFE002000
:1054B00003F07AFE362003F077FE002003F074FE3E
:1054C000322003F071FE002003F06EFE2F2003F067
:1054D0006BFE002003F068FE2C2003F065FE002028
:1054E00003F062FE292003F05FFE002003F05CFE63
:1054F000262003F059FE002003F056FE242003F07E
:1055000053FE002003F050FE242003F04DFE002047
:1055100003F04AFE232003F047FE002003F044FE80
:10552000C42000904FF080702B4908614000086152
:10553000BDF80000274908604FF4000026490861C3
:10554000802008618000086100BF622003F02CFE0B
:10555000002003F029FE052003F026FE002003F0C2
:1055600023FE842003F020FE002003F01DFEF02027
:1055700003F01AFE002003F017FE182003F014FEBB
:10558000002003F011FEA42003F00EFE002003F023
:105590000BFE182003F008FE002003F005FE50204B
:1055A00003F002FE002003F0FFFD0C2003F0FCFDE1
:1055B000002003F0F9FD172003F0F6FD002003F0B2
:1055C000F3FD952003F0F0FD002003F0EDFDF32046
:1055D00004E000000C0C01400010014003F0E4FD69
:1055E000002003F0E1FDE62003F0DEFD002003F0E3
:1055F000DBFDC52000904FF08070FE49086140003F
:105600000861BDF80000FC4908604FF40000F9494A
:105610000861802008618000086100BF322003F02B
:10562000C3FD002003F0C0FD442003F0BDFD0020B9
:1056300003F0BAFD652003F0B7FD002003F0B4FDD0
:10564000762003F0B1FD002003F0AEFD882003F0CA
:10565000ABFD002003F0A8FDC62000904FF0807045
:10566000E449086140000861BDF80000E2490860B3
:105670004FF40000DF490861802008618000086164
:1056800000BF202003F090FD002003F08DFD1720C7
:1056900003F08AFD002003F087FD012003F084FD64
:1056A000002003F081FDC72000904FF08070D149A9
:1056B000086140000861BDF80000CF4908604FF460
:1056C0000000CC490861802008618000086100BFAB
:1056D000002003F069FD002003F066FD002003F0C8
:1056E00063FD002003F060FDC82000904FF0807043
:1056F000C049086140000861BDF80000BE4908606B
:105700004FF40000BB4908618020086180000861F7
:1057100000BF002003F048FD002003F045FD0020FD
:1057200003F042FD002003F03FFDC92000904FF040
:105730008070B049086140000861BDF80000AE49C2
:1057400008604FF40000AB490861802008618000C8
:10575000086100BF002003F027FD002003F024FDB6
:10576000002003F021FD002003F01EFD002003F0C7
:105770001BFD002003F018FD002003F015FD0020A4
:1057800003F012FD002003F00FFD002003F00CFDDC
:10579000002003F009FD002003F006FD002003F0C7
:1057A00003FD002003F000FD002003F0FDFC0020BD
:1057B00003F0FAFCE02000904FF080708D49086102
:1057C00040000861BDF800008B4908604FF40000FC
:1057D00088490861802008618000086100BF1620A8
:1057E00003F0E2FC002003F0DFFC1C2003F0DCFCF3
:1057F000002003F0D9FC212003F0D6FC002003F0A8
:10580000D3FC362003F0D0FC002003F0CDFC462072
:1058100003F0CAFC002003F0C7FC522003F0C4FCD4
:10582000002003F0C1FC642003F0BEFC002003F064
:10583000BBFC7A2003F0B8FC002003F0B5FC8B2001
:1058400003F0B2FC002003F0AFFC992003F0ACFCA5
:10585000002003F0A9FCA82003F0A6FC002003F020
:10586000A3FCB92003F0A0FC002003F09DFCC420A1
:1058700003F09AFC002003F097FCCA2003F094FC8C
:10588000002003F091FCD22003F08EFC002003F0F6
:105890008BFCD92003F088FC002003F085FCE0207D
:1058A00003F082FC002003F07FFCF32003F07CFC7B
:1058B000002003F079FCE12000904FF080704D490A
:1058C000086140000861BDF800004B4908604FF4D2
:1058D000000048490861802008618000086100BF1D
:1058E000162003F061FC002003F05EFC1C2003F096
:1058F0005BFC002003F058FC222003F055FC002044
:1059000003F052FC362003F04FFC002003F04CFC67
:10591000452003F049FC002003F046FC522003F030
:1059200043FC002003F040FC642003F03DFC002019
:1059300003F03AFC7A2003F037FC002003F034FC3B
:105940008B2003F031FC002003F02EFC992003F0A3
:105950002BFC002003F028FCA82003F025FC0020ED
:1059600003F022FCB92003F01FFC002003F01CFC14
:10597000C42003F019FC002003F016FCCA2003F039
:1059800013FC002003F010FCD22003F00DFC0020DB
:1059900003F00AFCD82003F007FC002003F004FC0D
:1059A000E02003F001FC002003F0FEFBF32003F0F5
:1059B000FBFB002003F0F8FBE22000904FF080702A
:1059C0000C49086140000861BDF800000A49086000
:1059D0004FF40000074908618020086180000861D9
:1059E00000BF052003F0E0FB002003F0DDFB0B20EF
:1059F00004E00000001001400C0C014003F0D4FB57
:105A0000002003F0D1FB1B2003F0CEFB002003F0AD
:105A1000CBFB342003F0C8FB002003F0C5FB44207F
:105A200003F0C2FB002003F0BFFB4F2003F0BCFBE0
:105A3000002003F0B9FB612003F0B6FB002003F067
:105A4000B3FB792003F0B0FB002003F0ADFB88200E
:105A500003F0AAFB002003F0A7FB972003F0A4FBB0
:105A6000002003F0A1FBA62003F09EFB002003F022
:105A70009BFBB72003F098FB002003F095FBC220AE
:105A800003F092FB002003F08FFBC72003F08CFB98
:105A9000002003F089FBD12003F086FB002003F0F7
:105AA00083FBD62003F080FB002003F07DFBDD208C
:105AB00003F07AFB002003F077FBF32003F074FB84
:105AC000002003F071FBE32000904FF08070FE494E
:105AD000086140000861BDF80000FC4908604FF40F
