:020000040800F2
:10000000080E002035020008612F0008592F000853
:100010005D2F0008011C000881330008000000006B
:100020000000000000000000000000008D2F00080C
:10003000051C000800000000632F00088F2F000837
:100040004B0200084B0200084B0200084B0200085C
:100050004B0200084B0200084B0200084B0200084C
:100060004B0200084B0200084B0200084B0200083C
:100070004B0200084B0200084B0200084B0200082C
:100080004B0200084B0200084B0200084B0200081C
:100090004B0200084B0200084B0200084B0200080C
:1000A0004B0200084B0200084B0200084B020008FC
:1000B0004B0200084B0200084B0200084B020008EC
:1000C0004B0200084B0200084B0200084B020008DC
:1000D0004B020008553200084B0200087932000834
:1000E0004B0200084B0200084B02000800F002F827
:1000F00000F090F80AA090E8000C82448344AAF132
:100100000107DA4501D100F085F8AFF2090EBAE82F
:100110000F0013F0010F18BFFB1A43F0010318473B
:10012000983F0000B83F0000103A24BF78C878C15B
:10013000FAD8520724BF30C830C144BF04680C60ED
:10014000704700000023002400250026103A28BF35
:1001500078C1FBD8520728BF30C148BF0B60704739
:100160006E2900F0CF82702900F03984662903F0EF
:100170001387652903F01087672903F00D8761292C
:1001800003F00C8703681B0A28BF41F0800169292E
:1001900000F0CA80642900F0C780752900F0C4808F
:1001A0006F2900F0C683782900F00584E92900F062
:1001B0006183E42900F05E83F52900F05B83EF2979
:1001C00000F0C383F82900F004840368DB0928BF2A
:1001D00041F08001632900F0D082732900F0D582BC
:1001E000E32900F0E387F32900F0E8870020704757
:1001F0001FB501F039F804000020002103F0B6FE1D
:10020000401C60600020002103F09AFEE0601FBDEA
:1002100010B510BD00F0FAFF1146FFF7E9FF03F03B
:10022000EBFD01F0D7F803B4FFF7F2FF03BC03F0D6
:10023000E0F8000008480047FEE7FEE7FEE7FEE7BB
:10024000FEE7FEE7FEE7FEE7FEE7FEE703480449B8
:10025000024A044B70470000ED000008080A002025
:10026000080E0020080A0020704700001CB50C464C
:10027000064B7B4469460090204600F05CFA044639
:100280000020694600F06AFA20461CBDE704000021
:100290000FB4044910B503AA029800F07BFA10BC11
:1002A0005DF814FB140000200FB41CB5084B06AA1F
:1002B0007B4469460090059800F03DFA0446002012
:1002C000694600F04BFA20461CBC5DF814FB0000A8
:1002D000A904000070B50C460546012A05D028780F
:1002E000800600D5EA69002302E0012305E05B1CDB
:1002F000934202D2E05C0028F9D1A869E618C01A3E
:10030000A861286A18442862284600F069F904E0C8
:10031000D5E9012114F8010B9047B442F8D32846DF
:1003200000F074F970BD00002DE9F041064600248C
:1003300010687529314616A510D000F078F900280C
:1003400002DA404213A507E031688A0701D512A5F9
:1003500002E0490704D511A5012401E000F070F97D
:1003600000210A2206F1240709E0B0FBF2FCB0FBF1
:10037000F2F302FB1C00303078541846491C002868
:10038000F3D123462A463046BDE8F04100F061B97A
:10039000000000002D0000002B00000020000000E5
:1003A0002DE9F05F894604464FF0000ADFF874B18A
:1003B000FB44C0F820A02046E1688847002874D09C
:1003C000252806D0D4E901219047206A401C2062EC
:1003D000F1E700265F462046E16888472028054669
:1003E00007DB312D05D2781910F8200C08B106432F
:1003F000F1E7B00701D526F00406C4F81CA00027D9
:10040000C4F818A02A2D09D0284602F0EBFF38B313
:1004100004EB8708303DC8F8185019E059F8041B60
:10042000204604EB87029161E1688847012F054669
:1004300018D1E069002820DA26F020061DE0D8F85F
:10044000180000EB800005EB40003038C8F81800B9
:100450002046E1688847054602F0C4FF0028EED137
:10046000012F0AD02E2D08D12046E16888477F1C35
:100470000546022F46F02006C4DBA069002803DAF7
:10048000404246F00106A061F00701D026F01006B8
:100490006C2D0BD0682D09D04C2D39D06A2D35D05C
:1004A000742D35D07A2D33D016E038E0E1682F4630
:1004B00020468847B842054609D16C2F26D04FF414
:1004C0008060E168064320468847054604E06C2FBB
:1004D0001AD04FF4807006430DB3A5F141001928DE
:1004E00002D8203546F400664A4629462046266052
:1004F0004E46FFF735FE80B101280BD0F61D26F0E1
:10050000070000F1080956E74020E4E78020D8E71B
:100510000020D6E706F104094DE7284652E7206A95
:10052000BDE8F09F043C000030B505460B462A4666
:1005300013F8014B12F8010B08B1A042F8D01CB11E
:10054000002802D06D1CF1E7284630BD10B5431CD1
:1005500002E010F8011B71B18107FAD14FF00132AE
:1005600002C88C1A8C4314EAC211F9D0C01A0A06C8
:1005700003D0C01E10BDC01A10BD0A0401D0801ED9
:1005800010BD0902FCD0401E10BD4FF0000200B5A6
:10059000134694469646203922BFA0E80C50A0E8A6
:1005A0000C50B1F12001BFF4F7AF090728BFA0E854
:1005B0000C5048BF0CC05DF804EB890028BF40F820
:1005C000042B08BF704748BF20F8022B11F0804F62
:1005D00018BF00F8012B704770477047704770478D
:1005E00070B5044685690068C10601D5302600E073
:1005F0002026C00707D070BDD4E9012130469047BE
:10060000206A401C20626D1EF6D570BD70B5044690
:1006100085690078C00707D170BDD4E90121202089
:100620009047206A401C20626D1EF6D570BD096897
:100630004A0501D540B27047C905FCD500B27047E4
:1006400009684A0501D5C0B27047C905FCD580B21A
:1006500070472DE9F0470D4699469246044600F151
:1006600024080168880604D5E06921F010012160A2
:1006700000E00120A84201DD471B00E00027A1693E
:100680007A1902EB0900081AA0612078C00602D48A
:100690002046FFF7A5FF002608E0D4E901211AF85B
:1006A00006009047206A401C761C20624E45F4DB11
:1006B0002078C0060AD52046FFF792FF06E0D4E96D
:1006C000012130209047206A401C2062381EA7F18B
:1006D0000107F4DC07E0D4E9012118F80500904790
:1006E000206A401C2062281EA5F10105F3DC20468B
:1006F000FFF78CFF2078000602D50220BDE8F087C6
:100700000120FBE711680268006A530501D50870F3
:100710000AE0D30501D5088006E0130603D5C21709
:10072000C1E9000200E008600120704701694A1C2D
:1007300002610878704700B58FB0CDE90131002122
:10074000059105497944CDE9031011466846FFF744
:1007500027FE0FB000BD0000E5FFFFFF0A6802F8AA
:10076000010B0A60704710B5436913B1AFF3008005
:1007700001E0FFF7AFFD012010BD127800F1240168
:100780000A7000224A700122EDE711684FF0FF3233
:10079000E9E70000074B70B50D467B44FFF7CBFF40
:1007A0000446284600F00EFD10B14FF0FF3070BD3A
:1007B000204670BDEB3500002DE9FF5F15468A46E7
:1007C0000446DFF8AC80F8440027D8E900103E4624
:1007D000CDE9001010E03AF816106A4602A800F0C1
:1007E000F5FC411C07D02178890603D5E269391848
:1007F00091420DD80744761C2078800602D5E06926
:10080000B84205DDAE42E6DB3AF816000028E2D138
:10081000A069C01BA0612046FFF7E2FED8E90010E6
:10082000CDE90010002017E03AF818106A4602A837
:1008300000F0CCFCB0F1FF3F81460BD000250DF15C
:10084000080B05E0D4E901211BF8050090476D1C59
:100850004D45F7D308F10100B0428046E4DB206A41
:10086000384420622046FFF7D1FEBDE8FF9F00001C
:10087000023800002DE9F0418046D21D22F0070227
:100880000025D2E90002F52915A614D0011E72F147
:10089000000106DA0023D0EB030063EB020211A68D
:1008A00008E0D8F800108B0701D50FA602E0490731
:1008B00001D50EA601251146002408F1240704E005
:1008C00000F098F830323A55641C50EA0102F7D132
:1008D0002B46324621464046BDE8F041FFF7B9BEFF
:1008E000000000002D0000002B0000002000000090
:1008F00030B4002100F1240408E002F00705D2081A
:10090000303542EA4372DB086554491C52EA03055C
:10091000F3D10468002310A2250707D5A40600D44C
:1009200021B1C46901230DA2641EC46130BCFFF76C
:1009300090BE10B5044621461068FFF781FE0246BE
:100940002046BDE810400023D2E7D21D22F0070167
:10095000D1E90023CCE700000000000030000000D7
:10096000F0B40D460188090502D5214C7C4402E013
:100970001F4C7C440E34002100F1240608E002F0F4
:100980000F071209E75D42EA03721B097754491CFD
:1009900052EA0307F3D102780023120704D5702D21
:1009A00006D009B1022311342246F0BCFFF751BE34
:1009B00001231034F8E770B504460D46214610684F
:1009C000FFF73EFE024629462046BDE87040002360
:1009D000C6E7D21D22F00703D3E90023C0E703686E
:1009E000126843F0200303600823C3610023B7E7C4
:1009F0006436000030B5B0F10A024FEA900E71F192
:100A000000034EEA817EB0EB0E0061EB91014FEAEC
:100A1000101E4EEA017E10EB0E0041EB11114FEA61
:100A2000102E4EEA016E10EB0E0041EB11214FEA41
:100A3000104E4EEA014E10EB0E0041EB11414018F2
:100A400041F100014FEAD00040EA41704FEAD10184
:100A500010EB80054FEA810444EA907444EB0104F2
:100A60006D1944EB0404521BA3414FF0000348BF2F
:100A70000A3200D530BD401C41F1000130BD704745
:100A80002DE9FF4F0C461E464FF0FF378BB0D2E9E1
:100A90000001DDF860800A908A46C1F30A5505B965
:100AA0003D46002108464FF00000BAF1000F00F467
:100AB000400005DA00EB80004FF4400101EA5000ED
:100AC0004FEA9059B9F1010F00DDB9460A9850EA92
:100AD0004A000ED044F61050A5F2FF3545432F14BE
:100AE000B8F1000F1ED07542291E1EDDC9F10002AB
:100AF0001CE0B8F1010F4FF0000001D0302103E0FD
:100B0000F24305E02154401CB042FBDB304600229A
:100B1000002121540B99C1F80880C1E900200FB0D1
:100B2000BDE8F08FBD1B6D1CDEE74A4600DA694266
:100B300006A800F0DDFB06AB93E8070003AB83E8F3
:100B4000070050460A9900F093FC8DE80700A0F5D5
:100B500000501F3800900398002D0ADD42F21F015B
:100B60004A460844002303A90390684600F0FCFEAF
:100B700009E0A0F500504A461F38002303A903905E
:100B8000684600F006FF8DE807000004000C03D063
:100B90004FF0FF30410800E01046B8F1000F03D0DD
:100BA0000022009215461EE0751E05D4FFF722FFB5
:100BB000303262556D1EF9D5B3460122084302D08A
:100BC00000227F1C04E02078302801D100227F1E03
:100BD000002A099784D01DE0112D07DAFFF70AFFDC
:100BE000303262556D1C50EA0102F5D1084302D043
:100BF0000098C8B10EE00021681E05E0235C625C2D
:100C000063542254401E491C8142F7DBAB46A81BAB
:100C1000401E0990002004F80B000B98099AC0F8B8
:100C20000880C0E9002B7AE711264FF0000857E74B
:100C30002DE9F04F88460446D21D22F0070191B0FD
:100C4000D1E90001CDE90A0102F09CFB02460B98B4
:100C5000C00F01D02D2007E02068810701D52B208F
:100C600002E0202101EAC000032A099001D0072AEE
:100C700005DB03464146204600F0FAFA0BE12078F6
:100C8000800601D5E06900E00620B8F1650F8146D5
:100C900006D0B8F1660F18D0B8F1670F70D131E007
:100CA0000020B9F1110F009001DB112301E009F1DF
:100CB00001030AAA01A90CA8FFF7E2FEDDE90C7006
:100CC000002609F10105834647E001204B460090CC
:100CD0004FF000470AAA01A90CA8FFF7D1FEDDE9F1
:100CE0000DB00C995D46002610B909F101000D18F0
:100CF000B9EB050003D4C0F1FF3609F10105A5EBFE
:100D000009002BE0B9F1010F01DA4FF001090020D1
:100D1000B9F1110F0090484601DD112300E00346B0
:100D20000AAA01A90CA8FFF7ABFEDDE90C704D463D
:100D300000268346207800070AD4AB4500DA5D46DA
:100D400001A8012D04DD411911F8011C302907D03B
:100D50004F4502DA17F1040F04DA012082460FE052
:100D60006D1EEEE7002F02DCED1B3E4403E0781C15
:100D7000A84200DD7D1CB81B00F1010A4FF00047BE
:100D80002078000703D4AA4501DB4FF0FF3A002189
:100D9000B7F1004F0DF143088DF8431024D0022025
:100DA0002B23002F01DA7F422D230A21021EA0F1FE
:100DB000010000DC5FB197FBF1FC97FBF1F201FB56
:100DC0001C7C17460CF1300C08F801CDEEE7A8F1B9
:100DD000010003702188090501D5452100E0652146
:100DE000A0F1010800F8011C09980FA9A1EB080760
:100DF000FF1D00B10120411901EBEA70A1693844DF
:100E0000081A401EA0612078C00602D42046FFF7D1
:100E1000E7FB099828B1D4E901219047206A401CDA
:100E200020622078C00622D52046FFF7D9FB1EE0BD
:100E3000002E04DBB34502DD01A8805D00E0302018
:100E4000D4E901219047206A401C2062761CAAF157
:100E500001005FEA000A0AD100F006FAC0680168E2
:100E6000405CD4E901219047206A401C2062281E82
:100E7000A5F10105DCDC07E0D4E9012118F8010B3C
:100E80009047206A401C2062381EA7F10107F3DC5E
:100E90002046FFF7BBFB032011B041E62DE9F04FE0
:100EA00004460D46D21D22F0070089B0D0E9009714
:100EB0004846394602F066FA0246F80F01D02D2363
:100EC00007E02068810701D52B2302E0202101EAF9
:100ED000C0038DF820300BB1012000E00020032A70
:100EE000824601D0072A04DB2946204600F0C0F9DB
:100EF0003FE12078800601D40D2500E0E569C7F3C5
:100F00000A560D2D49DA00214FEA175B08464FF0CB
:100F10000000002F00F4400007DA00EB80004FF4DF
:100F2000400100EBD07001EA60008115012901DD6C
:100F30004FF0FF3100224FEA850CBCF1180F06D3A9
:100F40001346ACF118004FF08052C24003E04FF45A
:100F5000801323FA0CF30CF10C0CBCF1200F04D31A
:100F6000ACF1200C09FA0CF001E007FA0CF00029B2
:100F70004FF0004801DD18B90FE00ED140450CD309
:100F800019EB02095F4121B9404502D19F4329EA8B
:100F90000209BBEB175F00D0761C2088000502D544
:100FA0007B48784402E07A487844193808AA30230C
:100FB00002F80A30037C0AF10101002E0AF1020A4C
:100FC00053546A4602DC4FF0300101E04FF031012A
:100FD0004FF001088DF8001002D0A6F2FF3603E0B2
:100FE00059EA470100D06B4E002D02DC2178090739
:100FF00004D54FF002082E218DF80110C4460021BF
:101000000BE0C7F303433F01C35C491C6D1E02F8AC
:101010000830052908F1010801DA002DF1DC002172
:101020000CE000EB1973491C1B786D1E082902F8AF
:1010300008304FEA091908F1010801DA002DF0DC47
:1010400021688B0602D516E0A8F10108E04505DD10
:1010500002EB080313F8013C302BF5D0B8F1000F78
:1010600009DD02EB080313F8013C2E2B03D109071D
:1010700001D4A8F10108002D05DD3E2102F8081079
:101080006D1E08F10108407C002E02F8080008F1EE
:10109000010804DA2D20764202F8080002E02B2035
:1010A00002F808000A214FF47A70864208F101081C
:1010B0000BDB96FBF0F3303302F8083096FBF0F3CD
:1010C00008F1010800FB136601E0642E0CDB6420CC
:1010D00096FBF0F3303302F8083096FBF0F308F19A
:1010E000010800FB136601E00A2E06DB96FBF1F017
:1010F000303002F8080008F1010896FBF1F001FB1E
:101100001060303002F80800A16908F1010808EB0E
:10111000050202EB0A00081AA0612078C00602D47A
:101120002046FFF75DFA216A08AE01EB0A00206253
:1011300004E0D4E9012116F8010B9047BAF1010A45
:10114000F7D22078C00602D52046FFF749FA6E464E
:1011500009E016F8010B3E280FD0D4E90121904791
:10116000206A401C2062B8F10108F2D22046FFF745
:101170004DFA09B00320BDE8F08F206A28442062B0
:1011800003E0D4E90121302090476D1EEBD3F8E74E
:101190006930000002FCFFFF10B5436913B1AFF3E3
:1011A000008001E0FFF708FB012010BD128800F16C
:1011B000240182840022C2840122EDE711684FF0ED
:1011C000FF32E9E7007B00F08000704770B51646FB
:1011D0000C46054600F040F8036893F80101012829
:1011E00006D0FF2C0FD8185D68B101202C7070BD9F
:1011F000D3F807013246214603F207130344284679
:10120000BDE8704018474FF0FF3070BD754600F0E4
:10121000EBF8AE4605006946534620F007008546C8
:1012200018B020B5FFF712F8BDE820404FF00006D7
:101230004FF000074FF000084FF0000B21F00701BE
:10124000AC46ACE8C009ACE8C009ACE8C009ACE801
:10125000C0098D467047000010B500F005F8001D6C
:1012600010BD00BF092D000000487047C8090020CC
:101270002DE9F0411F46044603260168072A01F4C0
:10128000006004DB08B116A505E016A503E008B16F
:1012900015A500E015A521F010002060A069C01E72
:1012A000A0610FB1401EA0612046FFF799F94FB130
:1012B000D4E9012138469047206A401C2062C01CB6
:1012C000206206E0206AFAE7D4E9012115F8010B53
:1012D0009047761EF8D22046FFF798F9BDE8F081D6
:1012E0004E414E006E616E00494E4600696E6600CA
:1012F0002DE9F047814616468AB0354878440DC836
:101300008DE80D0032487844801C03AC0DC884E899
:101310000D0041F69B300844372190FBF1F290FB21
:10132000F1F5A5F1800501FB12041B3C02D56442D6
:10133000012000E00020DFF898A080460027FA4452
:10134000AAF1BE0A0EE0E0070AD03246684607EB73
:10135000470101230AEB810100F01BFB8DE8070028
:1013600064107F1C002CEED1194F7F44AE3F19E072
:10137000E80715D007EB04100DF1180A90E80E00ED
:101380008AE80E00C068F04201D1981908903246F0
:10139000012306A903A800F0FCFA03AB83E80700C9
:1013A0006D10641C002DE3D14FF0010332466946F5
:1013B000B8F1000F03A802D000F0D6FA01E000F067
:1013C000E8FAC9E90001C9F808200AB0BDE8F087C9
:1013D000A02D000010B50446AFF300802046BDE804
:1013E0001040FEF720BF000000487047A809002009
:1013F0004FF0013C50F8042B51F8043B9A4221D1A4
:10140000A2EB0C03934313EACC1317D150F8042B2F
:1014100051F8043B9A4215D1A2EB0C03934313EA13
:10142000CC130BD150F8042B51F8043B9A4209D14C
:10143000A2EB0C03934313EACC13DBD04FF0000074
:10144000704700BFD01A01BAB1FA81F101F018015A
:1014500022FA01F0CB40C1F12001DBB2C0B2C01AC8
:101460002CFA01F3D11A914311EAC311E6D1704766
:101470005FEA400C08BF91F0000F4FEA8C234FEA5F
:10148000C12243EA51514FEA1C5018BF00F5F04009
:101490004FEA300018BF41F000415FEA6C5C00F099
:1014A0002980BCF1FF3F08BF40F080407047130C1B
:1014B00006BF12044FF0100C4FF0000C130E04BFC7
:1014C00012020CF1080C130F04BF12010CF1040CF2
:1014D000930F04BF92000CF1020CD30F04BF520013
:1014E0000CF1010C11464FF00002A0F11F00A0EB1F
:1014F0000C00704711F0004F08BF704731F00041F9
:101500003FF4D5AF0B0C06BF09044FF0100C4FF0A1
:10151000000C0B0E04BF09020CF1080C0B0F04BFEA
:1015200009010CF1040C8B0F04BF89000CF1020CB3
:10153000CB0F04BF49000CF1010CCCF12003A0EB50
:101540000C0022FA03F302FA0CF241EA030100F163
:101550000100704720F07F4C80EA030023F07F47B2
:10156000ACEB070303F57C5300F0004003F1FF03ED
:101570002DE980494FEA154B09B44FEA144325EA97
:101580000B4E24EA03480FF2042606EB1327490802
:101590003E785FEA320203FB0667C7F5000707FBE8
:1015A00006F64FEA54374FEAD64606F1020607FB25
:1015B000066CCCF1005C4FEA1C472CEA074C07FB99
:1015C00006F40CFB06F504EB15464FEA961634BFFD
:1015D00000204FF000404FEAD13706FB07FC4FEAEE
:1015E0001C4C0CFB0BF7D21B03FB0CF761EB070148
:1015F0000CFB0EF7B0EB074072EB17420CFB08F741
:1016000034BFA2EB0742B2EB074261EB17414FEA4E
:101610000C444FEA910706FB07FC4FEA1C4C0CFBFD
:101620000BF7B0EBC74072EB573203FB0CF734BF3C
:10163000A2EBC742B2EBC74261EB57310CFB0EF78E
:10164000B0EBC70072EB57720CFB08F734BFA2EB8C
:10165000C702B2EBC70261EB5771039F4FEA81618A
:1016600041EA921104EBCC044FEAD1374FEA82628F
:1016700006FB07FC42EA90124FEA80604FEA1C4CDE
:101680000CFB0BF7D21B03FB0CF761EB07010CFB08
:101690000EF7B0EB074072EB17420CFB08F734BFB4
:1016A000A2EB0742B2EB074261EB17414FEA8C55C0
:1016B0004FEA910704EB9C2406FB07FC4FEA1C4C05
:1016C0000CFB0BF7B0EBC74072EB573203FB0CF788
:1016D00034BFA2EBC742B2EBC74261EB57310CFB00
:1016E0000EF7B0EBC70072EB57720CFB08F734BF74
:1016F000A2EBC702B2EBC70261EB577115EB4C25A9
:101700004FEA816141EA92114FEA82624FEAD13792
:1017100042EA901206FB07FC44F100044FEA8060A5
:101720004FEA1C4C0CFB0BF7D21B03FB0CF761EBD5
:1017300007010CFB0EF7B0EB074072EB17420CFBF6
:1017400008F734BFA2EB0742B2EB074261EB174147
:1017500015EB1C154FEA813141EA92414FEA823282
:1017600042EA90424FEA80304FEA0C7644F100049E
:1017700048EA03434EEA0B484FF0000EB2EB080C68
:1017800071EB030724BF624639464EEB0E0E4FF055
:10179000000B0018524149414BEB0B0BB2EB080C0C
:1017A00071EB03077BF1000B24BF624639464EEB19
:1017B0000E0E4FF0000B0018524149414BEB0B0B42
:1017C000B2EB080C71EB03077BF1000B24BF624600
:1017D00039464EEB0E0E51EA020718BF46F00106DD
:1017E00016EB0E7655F1000254F1000103D5BDE869
:1017F0008901BDE80088BDE88901BDE80048B61947
:10180000524141EB0101A3F10103704780807F7ECB
:101810007D7C7B7A79787776767574737271717066
:101820006F6E6E6D6C6C6B6A6A6968686766666518
:101830006464636362616160605F5F5E5E5D5D5CA6
:101840005C5B5B5A5A595958585757565655555517
:101850005454535352525251515050504F4F4F4E77
:101860004E4D4D4D4C4C4C4B4B4B4A4A4A494949C5
:101870004848484747474746464645454544444407
:10188000444343434342424242414141002B9C4630
:1018900030D477002BD01CB54FEA370703B44FF094
:1018A00010004FF01001BAF1000F06D0BCF1000F8C
:1018B000DCBF40F0080040F008014FF000000FBC12
:1018C000BDE810400BF1010BBBF1010F08BF5FEA4F
:1018D000170722BF12F1010211F101014FF000417F
:1018E00043F1000300F0004043EA00007047F9D3E1
:1018F0005708D0E746EA064613F1400F4FEA16466E
:101900001FDD13F1200FDFBF16430A4600212033ED
:101910005B42BED0C3F1200746EA064602FA07F74B
:101920004FEA164646EA0706C3F1200722FA03F2F9
:1019300001FA07F721FA03F14FF0000342EA070228
:10194000A7E746EA020646EA06464FEA164646EA90
:101950000106BCBF46EA0646360C4FF000034FF0C6
:1019600000024FF0000194E72DE9804C9A4693461F
:1019700070B491E8380007C831EA400C48BF34EA37
:10198000430C03D5FFF7E6FDFFF780FFF0BCBDE891
:10199000008C2DE9804C9A46934670B491E838004B
:1019A00007C810F0804F08BF13F0804F03D100F03C
:1019B00005F8FFF76BFFF0BCBDE8008C20F07F4717
:1019C00080EA030023F07F4C07EB0C03A3F57C5364
:1019D00000F00040A3F1FE0392F0000F00F0B3808E
:1019E00095F0000F00F077802DE901494FEA114092
:1019F0004FEA144621EA004800FB06FC24EA0647A9
:101A000008FB06F607FB08F800FB07F718EB06488B
:101A10004CEB164C4FEA124B18EB07484FEA1546B1
:101A20004CEB174022EA0B4E0BFB06FC25EA06475F
:101A30000EFB06F607FB0EFE0BFB07F71EEB064E32
:101A40004CEB164C4FF000061EEB074E4CEB174BC1
:101A500018EB0B0840F1000018EB0E0B58EB0008D8
:101A600040F100008F1A4FF000013CBFC943661BD4
:101A700014BFB5EB040C00213CBFC943F61B4FEA71
:101A800017444EEA8E0E27EA04454FEA1C4704FB32
:101A900007622CEA074C05FB07F70CFB05F604FB75
:101AA0000CFC16EB074642EB174216EB0C4642EBDA
:101AB0001C421BEB060658EB0202414146EA9E0619
:101AC00001D5BDE80189B619524141EB0101A3F1ED
:101AD0000103BDE801894FEA14454FEA114724EAA2
:101AE000054621EA074C05FB07F406FB07F70CFB4C
:101AF00006F105FB0CFC11EB074144EB17444FEAE0
:101B0000124711EB0C4144EB1C4422EA074C05FB45
:101B100007F206FB07F70CFB06F605FB0CFC16EBC1
:101B2000074642EB174216EB0C4642EB1C456A187F
:101B300054F1000148BF7047B619524141EB010111
:101B4000A3F10103704795F0000F37D04FEA11421F
:101B50004FEA144721EA024624EA074C02FB07F148
:101B600006FB07F70CFB06F402FB0CFC14EB074426
:101B700041EB17414FEA154714EB0C4441EB1C4174
:101B800025EA074C02FB07F506FB07F70CFB06F6F8
:101B900002FB0CFC16EB074645EB174516EB0C4613
:101BA00045EB1C42121951F1000148BF7047B619AC
:101BB000524141EB0101A3F1010370474FEA144583
:101BC0004FEA114724EA054621EA074C05FB07F1D5
:101BD00006FB07F70CFB06F24FF0000605FB0CFCBA
:101BE00012EB074241EB174112EB0C4251EB1C4147
:101BF00048BF7047921841EB0101A3F10103704700
:101C000000BFFEE77047000070B50446002594F859
:101C10002100022803D00420A0630125C1E0206830
:101C2000006820F00E00216808602068006820F03D
:101C30000100216808605C492068884252D95A49ED
:101C400078392068884201D1012047E0564964393B
:101C50002068884201D1102040E053495039206863
:101C6000884201D1801539E04F493C3920688842CB
:101C700001D1801432E04C4928392068884202D1D1
:101C80004FF480302AE0484914392068884202D154
:101C90004FF4801022E044492068884201D140047A
:101CA0001CE042492068884201D1012016E03F49EA
:101CB00014312068884201D110200FE03B492831BF
:101CC0002068884201D1801508E038493C312068FD
:101CD000884201D1801401E04FF480303349091F5C
:101CE000086051E0304978392068884201D10120EC
:101CF00047E02D4964392068884201D1102040E036
:101D0000294950392068884201D1801539E0264997
:101D10003C392068884201D1801432E022492839B8
:101D20002068884202D14FF480302AE01E491439DD
:101D30002068884202D14FF4801022E01A492068BE
:101D4000884201D140041CE018492068884201D132
:101D5000012016E0154914312068884201D1102075
:101D60000FE0124928312068884201D1801508E02F
:101D70000E493C312068884201D1801401E04FF4C3
:101D80008030094980394860012084F8210000BF73
:101D9000002084F8200000BF606B10B12046616B0A
:101DA0008847284670BD00008000024008040240B9
:101DB0002DE9F847024600239C467BE14FF00108DD
:101DC00008FA03F4D1F8008008EA0400A0427DD1AB
:101DD000DFF8F4A2D1F80480A8EB0A09D0453AD084
:101DE00014DCB8F1030F50D009DCB8F1000F31D08A
:101DF000B8F1010F1CD0B8F1020F49D120E0B8F1C1
:101E0000110F18D0B8F1120F42D11EE0B9F5881F9A
:101E100025D006DCB9F5803F20D0B9F5801F37D139
:101E20001AE0B9F5001F18D0B9F5041F30D117E03A
:101E3000D1F80CC02DE0D1F80C8008F1040C28E09A
:101E4000D1F80C8008F1080C23E0D1F80C8008F1DF
:101E50000C0C1EE000BF00BF00BF00BF00BF00BFF2
:101E6000D1F80880B8F1000F02D14FF0040C0BE05C
:101E7000D1F80880B8F1010F03D14FF0080C1461BC
:101E800002E04FF0080C546103E04FF0000C00E05A
:101E900000BF00BFFF2801D8904601E002F104080E
:101EA0004646FF2802D84FEA830803E0A3F108085A
:101EB0004FEA88084746D6F800804FF00F0909FA24
:101EC00007F928EA09080CFA07F900E07AE048EA7D
:101ED0000908C6F80080D1F8048008F08058B8F1ED
:101EE000805F6FD100BFDFF8E481D8F8188048F038
:101EF0000108DFF8D891C9F81880C846D8F81880CA
:101F000008F00108CDF8008000BF00BF4FEAB938E3
:101F10004FEA930958F829504FEA83784FEA187925
:101F20004FF00F0808FA09F825EA0805DFF8A08144
:101F3000424502D14FF0000824E0DFF89881424585
:101F400002D14FF001081DE0DFF88C81424502D13B
:101F50004FF0020816E0DFF88481424502D14FF0CD
:101F600003080FE0DFF87881424502D14FF0040802
:101F700008E0DFF87081424502D14FF0050801E02A
:101F80004FF006084FEA83794FEA197908FA09F801
:101F900048EA0505DFF850814FEA930948F82950CF
:101FA000D1F8048008F48038B8F5803F0BD1DFF811
:101FB0003C81D8F8008048EA0008DFF83091C9F881
:101FC00000800AE075E0DFF82481D8F8008028EA74
:101FD0000008DFF81891C9F80080D1F8048008F4EF
:101FE0000038B8F5003F0ED1DFF8008108F1040891
:101FF000D8F8008048EA0008DFF8F09009F10409F9
:10200000C9F800800DE0DFF8E48008F10408D8F892
:10201000008028EA0008DFF8D49009F10409C9F823
:102020000080D1F8048008F48018B8F5801F0ED124
:10203000DFF8B88008F10808D8F8008048EA0008FE
:10204000DFF8A89009F10809C9F800800DE0DFF871
:102050009C8008F10808D8F8008028EA0008DFF81A
:102060008C9009F10809C9F80080D1F8048008F4BF
:102070000018B8F5001F0ED1DFF8708008F10C08C9
:10208000D8F8008048EA0008DFF8609009F10C09F0
:10209000C9F800800DE0DFF8548008F10C08D8F88A
:1020A000008028EA0008DFF8449009F10C09C9F81B
:1020B00000805B1CD1F8008028FA03F8B8F1000F0B
:1020C0007FF47CAEBDE8F8870000111000100240DC
:1020D00000080140000C01400010014000140140C4
:1020E00000180140001C01400800014000040140AC
:1020F000024693680B400BB1012000E000207047BE
:102100000AB1016101E00B040361704701480068F6
:102110007047000004000020034800680349097864
:102120000844014908607047040000200C000020AA
:1021300010B50848006840F0100006490860052006
:1021400000F080F80F2000F007F800F02BF80020D6
:1021500010BD00000020024070B504460E48007813
:102160004FF47A71B1FBF0F00C490968B1FBF0F55E
:10217000284600F0E3FB08B1012070BD102C07D207
:1021800000222146501E00F01EF80548046001E0C0
:102190000120F2E70020F0E70C0000200000002002
:1021A00008000020704701460846002809DB00F0BF
:1021B0001F0301229A4043099B0003F1E023C3F867
:1021C000002100BF70472DE9F05F80460D4616469E
:1021D000002701F0EBF8074639462A46334601F05E
:1021E0000700C0F1070ABAF1040F02D94FF0040A40
:1021F00001E0C0F1070AD14600F1040ABAF1070F65
:1022000002D24FF0000A01E0A0F1030AD4464FF0D9
:10221000010A0AFA09FAAAF1010A0AEA020A0AFA02
:102220000CFA4FF0010B0BFA0CFBABF1010B0BEAB4
:10223000030B4AEA0B042146404601F0BFF8BDE813
:10224000F09F000000BF00F00702064B19684FF630
:10225000FF031940044B0B4343EA0221014B196071
:1022600000BF70470CED00E00000FA0570B50446B1
:102270000D460CB9012070BD5A48006800F00700F7
:10228000A8420ED25748006820F00700284355495D
:1022900008600846006800F00700A84201D001204D
:1022A000E9E7207800F0020002281DD1207800F034
:1022B0000400042805D14C48406840F4E0604A49D5
:1022C0004860207800F00800082805D1464840689A
:1022D00040F46050444948604348406820F0F000B2
:1022E000A168084340494860207800F0010078B3B5
:1022F0006068012806D13C48006800F4003090B9BD
:102300000120B8E76068022806D13748006800F06D
:10231000007040B90120AEE73348006800F00200C9
:1023200008B90120A7E73048406820F00300616841
:1023300008432D494860FFF7E9FE064609E0FFF72C
:10234000E5FE801B41F28831884202D9032092E7E2
:1023500007E02548406800F00C006168B0EB810F91
:10236000EDD12048006800F00700A8420ED91D48B2
:10237000006820F0070028431A49086008460068F2
:1023800000F00700A84201D0012074E7207800F097
:102390000400042807D11448406820F4E060E16894
:1023A000084311494860207800F00800082808D147
:1023B0000D48406820F46050216940EAC1000A4994
:1023C000486000F03FF808494968C1F30311074A23
:1023D000515CC8400649086006480068FFF7BCFE2B
:1023E000002048E70020024000100240A03F000803
:1023F000000000200800002001480068704700002D
:102400000000002000B5FFF7F7FF04494968C1F359
:102410000221034A515CC84000BD00000010024088
:10242000B03F000800B5FFF7E7FF04494968C1F372
:10243000C221034A515CC84000BD000000100240A8
:10244000B03F0008F0B585B00FF26C0C9CE8E010CE
:1024500001A8A0E8E0101CA52D680095002100222D
:10246000002300240020194D696801F00C05F5B126
:10247000042D02D0082D19D101E0154819E001AD55
:10248000C1F38346AC5D01F4803555B10F4D6D68E5
:10249000C5F340451DF805200D4D6543B5FBF2F32E
:1024A00002E00C4D04FB05F3184602E000BF0848AB
:1024B00000BF00BF05B0F0BD020304050607080910
:1024C0000A0B0C0D0E0F101001020000001002404C
:1024D00000127A0000093D00F8B504460CB901204D
:1024E000F8BD207800F00100002878D0F848406856
:1024F00000F00C0004280CD0F548406800F00C00F7
:10250000082811D1F248406800F48030B0F5803FCF
:102510000AD1EF48006800F4003000285FD06068FE
:1025200000285CD10120DBE700BF6068B0F5803F88
:1025300006D1E748006840F48030E549086028E0AB
:10254000606858B9E248006820F48030E0490860CB
:102550000846006820F4802008601AE06068B0F542
:10256000A02F0BD1DA48006840F48020D8490860D9
:102570000846006840F4803008600AE0D4480068EB
:1025800020F48030D24908600846006820F480209A
:10259000086000BF606888B1FFF7B8FD054606E037
:1025A000FFF7B4FD401B642801D9032098E7C84811
:1025B000006800F400300028F2D010E0FFF7A6FD1C
:1025C000054606E0FFF7A2FD401B642801D9032061
:1025D00086E7BF48006800F400300028F2D1207878
:1025E00000F00200022857D1B948406800F00C0002
:1025F00050B1B748406800F00C00082818D1B44822
:10260000406800F4803098B9B148006800F00200DA
:1026100020B12069012801D0012061E7AC480068A1
:1026200020F0F800616940EAC100A949086033E080
:102630002069E8B10120A7490860FFF767FD05465A
:1026400006E0FFF763FD401B022801D9032047E79E
:102650009F48006800F002000028F2D09C48006803
:1026600020F0F800616940EAC1009949086013E070
:10267000002098490860FFF749FD054606E0FFF78E
:1026800045FD401B022801D9032029E79048006836
:1026900000F002000028F2D1207800F0080008289D
:1026A0002DD1A069B8B101208B490860FFF72EFD3C
:1026B000054606E0FFF72AFD401B022801D903204A
:1026C0000EE78348406A00F002000028F2D00120A3
:1026D00000F048FC13E000207F490860FFF716FD7A
:1026E000054606E0FFF712FD401B022801D9032032
:1026F000F6E67748406A00F002000028F2D1207820
:1027000000F00400042873D100277148C06900F06C
:10271000805070B900BF6E48C06940F080506C496D
:10272000C8610846C06900F08050009000BF00BF3B
:1027300001276A48006800F48070B0B967480068F3
:1027400040F4807065490860FFF7E0FC054606E04C
:10275000FFF7DCFC401B642801D90320C0E65F487A
:10276000006800F480700028F2D000BFE068012803
:1027700006D15748006A40F001005549086227E039
:10278000E06858B95248006A20F0010050490862D8
:102790000846006A20F00400086219E0E068052895
:1027A0000BD14B48006A40F00400494908620846D2
:1027B000006A40F0010008620AE04548006A20F023
:1027C0000100434908620846006A20F004000862DC
:1027D00000BFE068A0B1FFF799FC054609E0FFF7EC
:1027E00095FC401B41F28831884202D9032077E6EC
:1027F00022E03748006A00F002000028EFD012E023
:10280000FFF784FC054608E0FFF780FC401B41F21F
:102810008831884201D9032062E62D48006A00F021
:1028200002000028F0D1012F05D12948C06920F00D
:1028300080502749C86100BFE069C8B32448406898
:1028400000F00C00082860D0E069022848D1002080
:1028500020490866FFF75AFC054606E0FFF756FCDC
:10286000401B022801D903203AE61948006800F00D
:1028700000700028F2D1206AB0F5803F07D11448DB
:10288000406820F40030A168084311494860D4E949
:10289000080108430E49496821F4741108430C49A2
:1028A000486001200B490866FFF730FC054607E049
:1028B0003DE0FFF72BFC401B022801D903200FE667
:1028C0000348006800F000700028F2D02FE00000FC
:1028D000001002400000424280044242007000406A
:1028E000002014490866FFF711FC054606E0FFF7D3
:1028F0000DFC401B022801D90320F1E50E480068B9
:1029000000F000700028F2D111E0E069012800D148
:10291000E6E50948466806F48031206A814204D120
:1029200006F47011606A814201D00120D8E50020D0
:10293000D6E50000000042420010024070B5044697
:102940002546681EB0F1807F01D301200FE0681E8C
:102950004FF0E02148610F214FF0FF3000F02EFDD5
:1029600000204FF0E021886107200861002070BD41
:10297000704700002DE9F04704462068056820688C
:10298000C668206847694FF00008C14605F00F0887
:10299000B8F1000F0AD105F0200038B106F0200090
:1029A00020B1204600F021FBBDE8F087B8F1000F10
:1029B00071D007F0010018B906F4907000286AD0B1
:1029C00005F0010030B106F4807018B1E06B40F002
:1029D0000100E06305F0040030B107F0010018B118
:1029E000E06B40F00200E06305F0020030B107F058
:1029F000010018B1E06B40F00400E06305F008004E
:102A000048B106F0200010B907F0010018B1E06BE2
:102A100040F00800E063E06B68B305F0200028B1E7
:102A200006F0200010B1204600F0DFFA206840696F
:102A3000C0F38019E06B00F0080010B9B9F1000F85
:102A400022D0204600F0B1FA2068406900F0400032
:102A5000B0B12068406920F0400021684861606B97
:102A600050B11848616B4863606BFFF7CDF810B147
:102A7000606B416B88470CE02046FFF779FF08E068
:102A80002046FFF775FF04E02046FFF771FF0020A6
:102A9000E06389E7FFE705F0800030B106F08000D1
:102AA00018B1204600F070FB7EE705F0400030B121
:102AB00006F0400018B1204600F087FA74E700BF26
:102AC00072E70000972F000810B504460CB90120EA
:102AD00010BDA06900B100E000BF94F8390028B92A
:102AE000002084F83800204600F028F8242084F8DC
:102AF00039002068C06820F400502168C860204672
:102B000000F0C4FA2068006920F490402168086150
:102B10002068406920F02A00216848612068C06868
:102B200040F400502168C8600020E063202084F851
:102B3000390084F83A000020CAE7000010B586B0DA
:102B400004465749206888424BD100BF00BF554812
:102B5000806940F00400534988610846806900F0AC
:102B60000400019000BF00BF00BF00BF00BF0846C7
:102B7000806940F0040088610846806900F0040024
:102B8000019000BF00BF00BF00BF00BF08468069C2
:102B900040F4804088610846806900F480400190DC
:102BA00000BF00BF00BF4815029002200390012023
:102BB00004900320059002A93B48FFF7F9F84FF471
:102BC000806002900020039002A93748FFF7F0F8D8
:102BD0002520FFF7E8FA032211462520FFF7F3FA34
:102BE0005BE032492068884257D100BF00BF2D48C2
:102BF000806940F008002B4988610846806900F030
:102C00000800019000BF00BF00BF00BF00BF084622
:102C1000806940F0080088610846806900F008007B
:102C2000019000BF00BF00BF00BF0846C06940F46C
:102C30008020C8610846C06900F48020019000BF70
:102C400000BF08150290022003900020049003208A
:102C5000059002A91648FFF7ABF84FF40060029008
:102C60000020039004900320059002A91048FFF76C
:102C70009FF8002211462720FFF7A5FA2720FFF72B
:102C800092FA2068C06840F020002168C86020687F
:102C9000C06840F010002168C86006B010BD000098
:102CA0000038014000100240000801400048004088
:102CB000000C01402DE9F84F04460E461746994690
:102CC0004FF0000A94F83A0020285DD106B117B9F8
:102CD0000120BDE8F88F00BF94F83800012801D129
:102CE0000220F6E7012084F8380000BF0020E063EE
:102CF000222084F83A00FFF709FA8246A785E78583
:102D0000A068B0F5805F04D1206910B90025B046F5
:102D100002E035464FF0000800BF002084F838007C
:102D200000BF29E05346002220212046CDF8009024
:102D300000F05AFA08B10320CBE745B92068406893
:102D4000C0F30800A8F8000008F1020811E0A0682C
:102D5000B0F5805F03D0A06828B9206918B9206851
:102D60004068287004E02068406800F07F00287008
:102D70006D1CE08D401EE085E08D0028D2D1202022
:102D800084F83A000020A4E70220A2E710B5034629
:102D900093F83A0020282FD101B10AB9012010BDC3
:102DA00000BF93F83800012801D10220F7E7012085
:102DB00083F8380000BF99629A85DA850020D863CD
:102DC000222083F83A0000BF002083F8380000BFBB
:102DD0001868C06840F480701C68E060186840693A
:102DE00040F001001C6860611868C06840F0200075
:102DF0001C68E0600020D2E70220D0E71D4A01688D
:102E0000914236D11C49098801F4004189BB1A4915
:102E1000098801F4804171B1184909780A2903D061
:102E20000021154A118024E01349098841F400412A
:102E3000114A11801DE0114909780D2906D10E496A
:102E4000098841F480410C4A118012E00B4909784D
:102E5000094A1288C2F30D02094B995406490988A0
:102E6000491C054A118011460988C72901DD002146
:102E70001180704700380140180000201A0000201F
:102E80001C0000202DE9F84F04460E4617469946CF
:102E90004FF0000A94F8390020285AD106B117B92A
:102EA0000120BDE8F88F00BF94F83800012801D157
:102EB0000220F6E7012084F8380000BF0020E0631C
:102EC000212084F83900FFF721F98246A784E7849E
:102ED000A068B0F5805F04D1206910B90025B04624
:102EE00002E035464FF0000800BF002084F83800AB
:102EF00000BF1BE05346002280212046CDF8009001
:102F000000F072F908B10320CBE745B9B8F800002A
:102F1000C0F308002168486008F1020803E028783F
:102F2000216848606D1CE08C401EE084E08C002825
:102F3000E0D15346002240212046CDF8009000F019
:102F400053F908B10320ACE7202084F839000020B1
:102F5000A7E70220A5E7704700BFFEE700BFFEE736
:102F60007047704708B508490968C9084FF47A7274
:102F7000B1FBF2F14143009100BF00BF00994A1E2E
:102F800000920029F9D108BD00000020704710B55B
:102F9000FFF7C2F810BD70B505466C6A0020E085E9
:102FA000E0842046FFF7E4FC70BD0168C96821F4A5
:102FB00090710268D1600168496921F001010268DD
:102FC0005161202180F83A10704710B504462068FE
:102FD000C06820F040002168C860202084F83900D3
:102FE0002046FFF7B8FF002010BD70B5044694F8E6
:102FF0003A00222847D1A068B0F5805F0CD1206943
:1030000050B90025A66A20684068C0F308003080E7
:10301000A06A801CA06215E0A56A0026A068B0F531
:10302000805F03D0A06828B9206918B9206840687B
:10303000287004E02068406800F07F002870A06AD3
:10304000401CA062E08D401E80B2E085C8B92068B7
:10305000C06820F020002168C8602068C06820F4A3
:1030600080702168C8602068406920F001002168F4
:103070004861202084F83A002046FFF7BFFE002078
:1030800070BD0020FCE70220FAE7000070B504469E
:103090002168096921F44051E268114322681161F5
:1030A0002269A1681143626941EA02052168C96881
:1030B00041F20C62914329432268D1602168496939
:1030C00021F44071A2691143226851612D4A21689F
:1030D000914202D1FFF7A6F901E0FFF793F900EB67
:1030E000C00101EB001162689200B1FBF2F100EB4C
:1030F000C00202EB001263689B00B2FBF3F2642390
:10310000B2FBF3F202EBC20303EB0212A1EB82016A
:10311000322202EB01116422B1FBF2F101F0F00165
:1031200000EBC00202EB001263689B00B2FBF3F2FB
:103130006423B2FBF3F201EB021200EBC00101EBDE
:10314000001163689B00B1FBF3F100EBC00303EBDC
:1031500000136668B600B3FBF6F36426B3FBF6F320
:1031600003EBC30606EB0313A1EB8301322303EB4E
:1031700001116423B1FBF3F101F00F011144226846
:10318000916070BD00380140014691F83900212856
:1031900028D18868B0F5805F0BD1086948B90A6A00
:1031A0001088C0F308000B685860086A801C086229
:1031B00005E00B6A581C086218780B685860C88CC8
:1031C000401E80B2C88458B90868C06820F08000EA
:1031D0000B68D8600868C06840F040000B68D86091
:1031E000002070470220FCE72DE9F04104460D461F
:1031F00017469846069E21E0701CF8B12EB1FEF7E6
:1032000085FFA0EB0800B04218D92068C06820F400
:10321000D0702168C8602068406920F001002168F2
:103220004861202084F8390084F83A0000BF00206B
:1032300084F8380000BF0320BDE8F08120680068F2
:103240002840A84201D1012000E00020B842D3D09C
:103250000020F1E710B50648FFF78CFB00BF012204
:1032600004490348FFF792FD0028F8D110BD000083
:10327000E40000201A0000201CB53F4800680068E8
:10328000C0F3C00090B100BF002000903A48006831
:1032900000680090384800684068009000BF00BF98
:1032A0003548006800683448006840683248006863
:1032B0000068C0F3401020B34FF0FF33012201A992
:1032C0002D48FFF7F7FC2D48B0F80008C0F30E00BA
:1032D00040F2FF71884215DA9DF804002749B1F8E1
:1032E0000018C1F30E01254A50541046B0F80008EA
:1032F000401C1146B1F8001860F30E011046A0F80A
:1033000000181BE01D48B0F800086FF30E001B49C1
:10331000A1F800089DF80400B1F80018C1F30E01EF
:10332000164A50541046B0F80008401C1146B1F837
:10333000001860F30E011046A0F800180E4800684F
:103340000068C0F30010B0B10C48B0F8000820F4D9
:10335000004000F500400949A1F8000800BF002026
:1033600000900548006800680090034800684068C5
:10337000009000BF00BF1CBD24010020640100209C
:1033800000BFFEE7490050EAC12018BF04204A0DE3
:1033900018BF40F0010040F2FF72B2EB515F08BF6E
:1033A00040F00200012808BF05207047024800686D
:1033B000C0F30220704700000CED00E010B50028BB
:1033C00004DB0A07130E054A135406E00A07140E1D
:1033D000034A00F00F031B1FD45410BD00E400E0AB
:1033E00018ED00E030380A2801D201207047002093
:1033F000704700BF7047000070B500250AE06422E6
:1034000006A107A000F0C6F804460CB9002070BD64
:10341000681CC5B20A2DF2DB0120F8E74F4B000013
:103420004154000010B54FF47A7205A106A000F0D7
:10343000B1F804460CB1012010BD0020FCE70000EB
:10344000612B6F6B000000002B2B2B610000000034
:1034500010B510210348FEF74BFE08B1012010BD46
:103460000020FCE70010014000B585B0002001906D
:1034700002900390049000BF00BF1E48806940F096
:1034800010001C4988610846806900F01000009017
:1034900000BF00BF00BF00BF00BF0846806940F00A
:1034A000040088610846806900F00400009000BFB5
:1034B00000BF00BF10200190002002900220039066
:1034C0000320049001A90C48FEF772FC1020019023
:1034D0000120029003900320049001A90748FEF701
:1034E00067FC00BF012210210448FEF709FE00BF5F
:1034F00005B000BD0010024000100140000801406E
:1035000070B505460D2D2FD2DFE805F0070A0D1026
:103510001316191C1F2225282B004FF4966425E052
:103520004FF4166422E04FF496541FE04FF4165403
:103530001CE04FF4615419E04FF4964416E04FF448
:10354000164413E04AF2F87410E04FF461440DE0C1
:103550004FF496340AE04FF4E13407E04FF49664F8
:1035600004E04FF4613401E0032070BD00BFFFF7B9
:103570007BFF204600F082FAFFF754FFFFF73CFF85
:1035800006460EB10120F0E7014805700020ECE787
:103590001B0000202DE9F04105460E461446002789
:1035A00000F0B8FA29460FA000F080FA06B114B96D
:1035B0000020BDE8F08110E000F096FA074647B120
:1035C00031463846FCF7B0FF08B10020F1E700F0C3
:1035D000A1FA641E012000F0B5FA002CECD1022003
:1035E000E7E7000025730D0A000000007FB50446E0
:1035F000022C02DBB4F5806F02DD032004B070BD45
:10360000224607A16846FCF74FFE642208A16846DF
:10361000FFF7C0FF05460DB10120EFE70020EDE701
:1036200041542B41445054494D3D25640000000055
:103630004F4B000030B591B00446224607A101A8C7
:10364000FCF732FE642208A101A8FFF7A3FF05469C
:1036500015B1012011B030BD0020FBE741542B48CB
:10366000454C4C4F3D2573004F4B000030B585B0A5
:10367000054615B1012D0AD104E00FA104A8FCF7FD
:1036800013FE07E00DA104A8FCF70EFE02E00320E4
:1036900005B030BD00BF04AA09A16846FCF704FECE
:1036A00064220AA16846FFF775FF04460CB10120A9
:1036B000EEE70020ECE700004F4E00004F464600CA
:1036C00041542B4C4544454E3D2573004F4B000063
:1036D00030B587B0054615B1012D0AD104E00FA120
:1036E00006A8FCF7E1FD07E00DA106A8FCF7DCFD4C
:1036F00002E0032007B030BD00BF06AA09A101A85F
:10370000FCF7D2FD64220CA101A8FFF743FF044699
:103710000CB10120EEE70020ECE700004F4E000066
:103720004F46460041542B4C494E4B504153534554
:103730004E3D2573000000004F4B000030B585B0B2
:10374000054615B1012D0AD104E00FA104A8FCF72C
:10375000ABFD07E00DA104A8FCF7A6FD02E00320E5
:1037600005B030BD00BF04AA09A16846FCF79CFD66
:1037700064220BA16846FFF70DFF04460CB101203F
:10378000EEE70020ECE700004F4E00004F464600F9
:1037900041542B4D41585055543D257300000000B5
:1037A0004F4B00007FB50446052C1DD2DFE804F026
:1037B00003080D12170018A103A8FCF775FD16E009
:1037C00016A103A8FCF770FD11E015A103A8FCF7F2
:1037D0006BFD0CE013A103A8FCF766FD07E012A146
:1037E00003A8FCF761FD02E0032004B070BD00BF38
:1037F00003AA0EA16846FCF757FD64220EA1684695
:10380000FFF7C8FE05460DB10120EEE7642000F089
:1038100099F90020E9E700004D0000005300000086
:103820004F000000420000004900000041542B4DB1
:103830004F44453D257300004F4B000030B591B01B
:103840000446224607A101A8FCF72EFD642208A128
:1038500001A8FFF79FFE054615B1012011B030BD4C
:103860000020FBE741542B4E414D453D25730000A0
:103870004F4B000030B587B0054615B1012D0AD178
:1038800004E00FA106A8FCF70FFD07E00DA106A8B4
:10389000FCF70AFD02E0032007B030BD00BF06AA16
:1038A00009A101A8FCF700FD64220CA101A8FFF703
:1038B00071FE04460CB10120EEE70020ECE70000A9
:1038C0004F4E00004F46460041542B534C41564545
:1038D000534C454550454E3D257300004F4B00006D
:1038E000FEB50546082D15D2DFE805F00406080AE6
:1038F0000C0E101201240FE002240DE003240BE053
:10390000042409E0052407E0062405E0072403E079
:10391000082401E00320FEBD00BF224607A168463F
:10392000FCF7C2FC642208A16846FFF733FE064696
:103930000EB10120EFE70020EDE7000041542B54C9
:10394000504C3D25640000004F4B00002DE9FF4F17
:1039500089B007468A4693460D2F2FD2DFE807F03D
:10396000070A0D101316191C1F2225282B004FF4CF
:10397000966427E04FF4166424E04FF4965421E057
:103980004FF416541EE04FF461541BE04FF496447C
:1039900018E04FF4164415E04AF2F87412E04FF4C0
:1039A00061440FE04FF496340CE04FF4E13409E049
:1039B0004FF4966406E04FF4613403E003200DB049
:1039C000BDE8F08F00BFBAF1000F09D0BAF1010FC6
:1039D00008D0BAF1020F07D0BAF1030F08D105E001
:1039E000052507E0062505E0072503E0082501E099
:1039F0000320E4E700BFBBF1000F06D0BBF1010FCD
:103A000005D0BBF1020F06D103E0002605E0012638
:103A100003E0022601E00320D1E700BF0C9810B1BB
:103A2000012806D102E04FF0010904E04FF002093D
:103A300001E00320C3E700BF2B46224609A103A8EB
:103A4000CDE90069FCF730FC64220BA103A8FFF765
:103A5000A1FD8046B8F1000F01D00120AFE70020A2
:103A6000ADE7000041542B554152543D25642C25AF
:103A7000642C25642C2564004F4B000010B50446CF
:103A80000848094908600846446000218160C16017
:103A900001610C21416100218161C161FFF714F8CE
:103AA00010BD000000480040240100200FB438B5CC
:103AB00005A800900A48009A0499FCF7D7FB00205B
:103AC00000900748FCF742FD84B24FF0FF332246D6
:103AD00003490448FFF7D6F938BC5DF814FB000031
:103AE00066090020240100200948B0F800080121DF
:103AF000B1EBD03F09D100200549B1F80018C1F35E
:103B00000E01034A5054104670470020FCE70000A5
:103B1000640100200748B0F800086FF30E00054963
:103B2000A1F800080846B0F8000820F40040A1F809
:103B300000087047640100200149086070470000D8
:103B40001000002010B504464FF47A7104FB01F018
:103B500000F002F810BD000070B5034600224FF0DF
:103B6000E02675690D4E366803FB06F44FF0E0263B
:103B7000B16910E04FF0E026B06988420BD088426E
:103B800002D20E1A324402E02E1A0E44324401468A
:103B9000A24200D300E0EDE700BF70BD100000209E
:103BA0000A20FFF7ADFC04461CB136A0FCF770FB01
:103BB00002E03CA0FCF76CFBFFF734FC41A0FFF7F0
:103BC0003DFE044642A0FFF735FD2044C4B2042068
:103BD000FFF786FE2044C4B200231A4603210A20C0
:103BE000FFF7B4FE2044C4B20520FFF7FFFC2044D9
:103BF000C4B20120FFF76CFD2044C4B20020FFF7DF
:103C000035FD2044C4B20120FFF734FE2044C4B285
:103C10000120FFF793FD2044C4B20120FFF7C2FD4D
:103C20002044C4B21CB12EA0FCF732FB02E035A048
:103C3000FCF72EFBFFF76EFF002621E0761CFFF756
:103C400007FCD0B96420B6FBF0F100FB116030B97D
:103C500035A0FFF72BFF39A0FCF71AFB0026FFF772
:103C600043FF05462DB129463DA0FCF711FBFFF7A8
:103C700051FF0A20FFF766FF02E03AA0FCF708FBBD
:103C8000DCE7000041544B2D4D573537392D534C4F
:103C900041564520696E6974206661696C656421CE
:103CA0000D0A000041544B2D4D573537392D534CDB
:103CB00041564520696E697420737563636573733B
:103CC000210D0A0041544B2D4D5735373900000066
:103CD00048454C4C4F2041544B2D4D5735373900FA
:103CE00041544B2D4D573537392D534C41564520B6
:103CF000636F6E666967206661696C6564210D0A91
:103D00000000000041544B2D4D573537392D534C91
:103D100041564520636F6E666967207375636365FE
:103D20007373210D0A00000046726F6D2041544BE1
:103D30002D4D573537390D0A0000000041544B2DE9
:103D40004D573537392D4D415354455220636F6ED1
:103D50006E6563742073756363657373210D0A0068
:103D60002573000041544B2D4D573537392D4D41AA
:103D70005354455220636F6E6E65637420666169AB
:103D80006C6564210D0A000000BF054A126802F04C
:103D90004002002AF9D0C2B2014B1B1D1A607047C5
:103DA0000038014000B585B000BF00BF10488069F1
:103DB00040F004000E4988610846806900F0040064
:103DC000009000BF00BF00BF881501900120029045
:103DD00003900320049001A90648FDF7E9FF00BF06
:103DE000012211020348FEF78BF900BF05B000BDA8
:103DF000001002400008014010B5FEF799F94FF499
:103E0000E01000F04DF84820FFF796FE4FF4E13047
:103E100000F07AF8FFF7C6FF00F004F8FFF7C0FEE5
:103E2000002010BD10B50BA0FCF732FA0AA0FCF779
:103E30002FFA12A0FCF72CFA12A0FCF729FA14A012
:103E4000FCF726FA04A0FCF723FA0BA0FCF720FAF3
:103E500010BD00000A0000002A2A2A2A2A2A2A2A3B
:103E60002A2A2A2A2A2A2A2A2A2A2A2A2A2A2A2AB2
:103E70002A2A2A2A2A2A2A2A0D0A000053544D33B4
:103E8000320D0A0041544B2D4D573537390D0A007C
:103E900041544F4D40414C49454E54454B0D0A004D
:103EA00030B58FB005460124282105A8FCF76DFB2D
:103EB00014216846FCF769FB012005900004069078
:103EC0000020079002200C90C1030D910E9505A8CB
:103ED000FEF702FB04460CB100BFFEE70F20009086
:103EE00002200190002002904FF480600390002097
:103EF000049002216846FEF7B9F904460CB100BFF0
:103F0000FEE70FB030BD000010B5044609480A496D
:103F100008600846446000218160C16001618161E0
:103F20000C214161FEF7D0FD012204490248FEF751
:103F30002DFF10BD00380140E40000201A000020D1
:103F400010B500290AD00878002807D00548784421
:103F5000FDF74EFA002801D0002010BD0248784439
:103F600010BD00008A0100008201000010B5002988
:103F70000AD00878002807D005487844FDF738FAB9
:103F8000002801D0002010BD0248784410BD000078
:103F90007A01000072010000FCF74ABEFCF77EBF08
:103FA00000000000000000000102030406070809E9
:103FB00000000000010203040400000800000000EB
:103FC00000000002000100001000000000000000DE
:103FD0000000000030313233343536373839414251
:103FE000434445464030580030313233343536375B
:103FF000383961626364656640307800303132334D
:1040000034353637383961626364656678700030FC
:1040100031323334353637383941424344454658D6
:104020005000000002400000000000A0000000005E
:1040300005400000000000C8000000000C40000027
:104040000000409C00000000194000000020BCBEA1
:104050000000000034400000BFC91B8E00000004B7
:10406000B5400000504BCFD06607E2CF0100000002
:104070006C4100003E8251AADFEEA734010000002F
:10408000D9420000DCB5A0E23A301F97FFFFFFFFE6
:10409000B4450000FD25A0C8E9A3C14FFFFFFFFF05
:1040A000FF3F00000000008000000000FF3F000014
:1040B0000000008000000000044200080000002012
:1040C0001C00000028010008204200081C000020FD
:1040D000EC0D0000440100081C000000430000003B
:1040E000F8FFFFFF0C0000000E0000000F000000B2
:1040F0002E0000001001000043000000F8FFFFFF49
:1041000000404040404040404040414141414140EA
:10411000404040404040404040404040404040409F
:10412000400502020202020202020202020202022E
:104130000220202020202020202020020202020233
:10414000020290909090909010101010101010108B
:104150001010101010101010101010100202020297
:1041600002028888888888880808080808080808DB
:1041700008080808080808080808080802020202D7
:1041800040000000000000000000000000000000EF
:10419000000000000000000000000000000000001F
:1041A000000000000000000000000000000000000F
:1041B00000000000000000000000000000000000FF
:1041C00000000000000000000000000000000000EF
:1041D00000000000000000000000000000000000DF
:1041E00000000000000000000000000000000000CF
:1041F00000000000000000000000000000000000BF
:10420000000000000024F400000000001000000086
:10421000010000000000000000000000000000009D
:04000005080000ED02
:00000001FF
