:020000040800F2
:10000000C8C7012095030008415800083958000866
:100010003D580008752100083170000800000000FC
:10002000000000000000000000000000D5020008F1
:100030006122000800000000310300084767000843
:10004000B9030008B9030008B9030008C55800083F
:10005000B9030008B9030008B9030008B903000890
:10006000B9030008B9030008B9030008B903000880
:10007000B9030008B9030008B90300087921000892
:10008000B9030008B9030008B9030008B903000860
:10009000B9030008B9030008B9030008B903000850
:1000A000B9030008B9030008B9030008B903000840
:1000B000B903000871670008B9030008B903000814
:1000C000B9030008B9030008B9030008B903000820
:1000D000B90300081D6F0008B90300082D6F000860
:1000E000B903000845580008B9030008B90300081F
:1000F000B9030008B9030008B9030008B9030008F0
:10010000B9030008B9030008B9030008B9030008DF
:10011000B9030008B9030008A1670008B903000883
:10012000B9030008B9030008B9030008B9030008BF
:1001300031220008B9030008B9030008B903000818
:10014000B9030008B9030008B9030008B90300089F
:10015000B9030008B9030008B9030008B90300088F
:10016000B9030008B9030008B9030008B90300087F
:10017000B9030008B9030008B90300080000000033
:10018000B9030008B903000800F002F800F092F883
:100190000AA090E8000C82448344AAF10107DA45E2
:1001A00001D100F087F8AFF2090EBAE80F0013F0A2
:1001B000010F18BFFB1A43F001031847740904002C
:1001C00094090400103A24BF78C878C1FAD85207BD
:1001D00024BF30C830C144BF04680C6070470000C1
:1001E0000023002400250026103A28BF78C1FBD840
:1001F000520728BF30C148BF0B6070476E2900F01E
:100200009785702900F0A182662912F02986652958
:1002100012F02686672912F02386612912F02286C1
:1002200003681B0A28BF41F08001692900F0D481CE
:10023000642900F0D181752900F0CE816F2900F08A
:100240005086782900F06D82E92900F00182E429C6
:1002500000F0FE81F52900F0FB81EF2900F04D86CA
:10026000F82900F06C820368DB0928BF41F08001A7
:10027000632900F09885732900F09D85E32901F03A
:10028000DF81F32901F0E481002070471FB512F0EF
:10029000E2FD01F033FA04000020002112F0FCF826
:1002A000401C60600020002112F0E0F8E0601FBDFB
:1002B00010B510BD01F0F4F91146FFF7E7FF0DF09E
:1002C000BDFC01F0D1FA03B4FFF7F2FF03BC06F066
:1002D00004FF00002C4B19680868B0E8F04F80F369
:1002E0000988BFF36F8F4FF0000080F311887047CB
:1002F0000000000008480068006880F308884FF09C
:10030000000080F3148862B661B6BFF34F8FBFF36D
:100310006F8F00DF00BF00BF08ED00E0DFF80C00CA
:10032000016841F470010160704700BF88ED00E092
:10033000EFF30980BFF36F8F134B1A681EF0100F95
:1003400008BF20ED108A20E9F04F106009B44FF08B
:10035000500080F31188BFF34F8FBFF36F8F10F001
:1003600043FE4FF0000080F3118809BC196808684B
:10037000B0E8F04F1EF0100F08BFB0EC108A80F309
:100380000988BFF36F8F704788000020EFF3058066
:10039000704700000C48016841F4700101600B488F
:1003A00080470B480047FEE7FEE7FEE7FEE7FEE773
:1003B000FEE7FEE7FEE7FEE7FEE700000548064928
:1003C000044A064B7047000088ED00E05D670008B6
:1003D00089010008C8C30120C8C70120C8C3012083
:1003E000704753EA020C00F069802DE9F04B4FF0A2
:1003F0000006002B1FBFB3FA83F503FA05F424FAB5
:1004000005F65E4012BF1643B2FA82F502FA05F411
:10041000C5F120051EBF22FA05FC44EA0C04203574
:1004200056EA044C4FEA144418BF641C4FF000080D
:100430004FF00009904271EB030C39D3002919BF2A
:10044000B1FA81F701FA07F6B0FA80F700FA07F679
:10045000C7F120071EBF20FA07FC46EA0C0620372A
:10046000B6FBF4FCA7EB0507103F07F01F0BCBF121
:1004700020060CFA0BFB2CFA06F644BFB346002606
:10048000202FA4BF5E464FF0000B5BEA060C08BFAE
:100490004FF0010B19EB0B09ABFB027C48EB060894
:1004A000C01B06FB02CC0BFB03CC71EB0C01C1E7BC
:1004B0000B46024641464846BDE8F08B13B54FF067
:1004C00000004FF00001AFF30080BDE81C40704712
:1004D0001CB50C46064B7B4469460090204600F054
:1004E00040FC04460020694600F04EFC20461CBD3E
:1004F000AF0800000FB4044910B503AA029800F039
:100500005FFC10BC5DF814FB3C0000200FB41CB570
:10051000084B06AA7B4469460090059800F021FC30
:1005200004460020694600F02FFC20461CBC5DF804
:1005300014FB00007108000070B50446856900686E
:10054000C10601D5302600E02026C00707D070BDC7
:10055000D4E9012130469047206A401C20626D1E7C
:10056000F6D570BD70B5044685690078C00707D11F
:1005700070BDD4E9012120209047206A401C2062F0
:100580006D1EF6D570BD70B50C460546012A05D026
:100590002878800600D5EA69002302E0012305E0FF
:1005A0005B1C934202D2E05C0028F9D1A869E618EE
:1005B000C01AA861286A184428622846FFF7BCFFC1
:1005C00004E0D5E9012114F8010B9047B442F8D3B7
:1005D0002846FFF7C7FF70BD2DE9F041064600240D
:1005E00010687529314616A510D000F036FB00289A
:1005F00002DA404213A507E031688A0701D512A547
:1006000002E0490704D511A5012401E000F02EFB0A
:1006100000210A2206F1240709E0B0FBF2FCB0FB3E
:10062000F2F302FB1C00303078541846491C0028B5
:10063000F3D123462A463046BDE8F04100F01FBB07
:10064000000000002D0000002B0000002000000032
:100650002DE9F0418046D21D22F007020025D2E9A3
:100660000002F52915A614D0011E72F1000106DA68
:100670000023D0EB030063EB020211A608E0D8F8D8
:1006800000108B0701D50FA602E0490701D50EA681
:1006900001251146002408F1240704E000F098FA2F
:1006A00030323A55641C50EA0102F7D12B463246EB
:1006B00021464046BDE8F04100F0E1BA00000000EC
:1006C0002D0000002B00000020000000F0B40D46BB
:1006D0000188090502D5214C7C4402E01F4C7C4472
:1006E0000E34002100F1240608E002F00F07120981
:1006F000E75D42EA03721B097754491C52EA03077B
:10070000F3D102780023120704D5702D06D009B169
:10071000022311342246F0BC00F0B1BA0123103498
:10072000F8E770B504460D462146106800F09EFAC1
:10073000024629462046BDE870400023C6E7D21D88
:1007400022F00703D3E90023C0E70368126843F0EF
:10075000200303600823C3610023B7E756030400A6
:100760002DE9F05F894604464FF0000ADFF874B1C6
:10077000FB44C0F820A02046E1688847002874D0D8
:10078000252806D0D4E901219047206A401C206228
:10079000F1E700265F462046E168884720280546A5
:1007A00007DB312D05D2781910F8200C08B106436B
:1007B000F1E7B00701D526F00406C4F81CA0002715
:1007C000C4F818A02A2D09D0284606F07FFC38B3BB
:1007D00004EB8708303DC8F8185019E059F8041B9D
:1007E000204604EB87029161E1688847012F0546A6
:1007F00018D1E069002820DA26F020061DE0D8F89C
:10080000180000EB800005EB40003038C8F81800F5
:100810002046E1688847054606F058FC0028EED1DE
:10082000012F0AD02E2D08D12046E16888477F1C71
:100830000546022F46F02006C4DBA069002803DA33
:10084000404246F00106A061F00701D026F01006F4
:100850006C2D0BD0682D09D04C2D39D06A2D35D098
:10086000742D35D07A2D33D016E038E0E1682F466C
:1008700020468847B842054609D16C2F26D04FF450
:100880008060E168064320468847054604E06C2FF7
:100890001AD04FF4807006430DB3A5F1410019281A
:1008A00002D8203546F400664A462946204626608E
:1008B0004E46FFF7A3FC80B101280BD0F61D26F0B1
:1008C000070000F1080956E74020E4E78020D8E758
:1008D0000020D6E706F104094DE7284652E7206AD2
:1008E000BDE8F09FE6020400401ECAB210F8011FE6
:1008F0008A4202D00029F9D10020704730B5054660
:100900000B462A4613F8014B12F8010B08B1A0421E
:10091000F8D01CB1002802D06D1CF1E7284630BD8C
:1009200040EA010310B59B070FD1042A0DD310C86C
:1009300008C9121F9C42F8D020BA19BA884201D9BE
:10094000012010BD4FF0FF3010BD1AB1D30703D006
:10095000521C07E0002010BD10F8013B11F8014BBC
:100960001B1B07D110F8013B11F8014B1B1B01D1D8
:10097000921EF1D1184610BD10B5431C02E010F8CC
:10098000011B71B18107FAD14FF0013202C88C1AF4
:100990008C4314EAC211F9D0C01A0A0603D0C01E53
:1009A00010BDC01A10BD0A0401D0801E10BD09027E
:1009B000FCD0401E10BD032A40F2308010F0030C22
:1009C00000F0158011F8013BBCF1020F624498BFA2
:1009D00011F801CB00F8013B38BF11F8013BA2F13F
:1009E000040298BF00F801CB38BF00F8013B11F0BA
:1009F000030300F02580083AC0F0088051F8043B5A
:100A0000083A51F804CBA0E80810F5E7121D5CBFC6
:100A100051F8043B40F8043BAFF30080D20724BFF9
:100A200011F8013B11F801CB48BF11F8012B24BF8D
:100A300000F8013B00F801CB48BF00F8012B7047DC
:100A400010B5203AC0F00B80B1E81850203AA0E869
:100A50001850B1E81850A0E81850BFF4F5AF5FEA9D
:100A6000027C24BFB1E81850A0E8185044BF18C950
:100A700018C0BDE810405FEA827C24BF51F8043BF7
:100A800040F8043B08BF7047D20728BF31F8023B4B
:100A900048BF11F8012B28BF20F8023B48BF00F8DF
:100AA000012B704702F0FF0343EA032242EA0242AD
:100AB00000F002B84FF000020429C0F0128010F0DC
:100AC000030C00F01B80CCF1040CBCF1020F18BF2A
:100AD00000F8012BA8BF20F8022BA1EB0C0100F0BD
:100AE0000DB85FEAC17C24BF00F8012B00F8012B90
:100AF00048BF00F8012B70474FF0000200B51346C5
:100B000094469646203922BFA0E80C50A0E80C502D
:100B1000B1F12001BFF4F7AF090728BFA0E80C50DE
:100B200048BF0CC05DF804EB890028BF40F8042BD7
:100B300008BF704748BF20F8022B11F0804F18BF44
:100B400000F8012B704700004FF0013C50F8042BD7
:100B500051F8043B9A4221D1A2EB0C03934313EAD0
:100B6000CC1317D150F8042B51F8043B9A4215D1FD
:100B7000A2EB0C03934313EACC130BD150F8042BD4
:100B800051F8043B9A4209D1A2EB0C03934313EAB8
:100B9000CC13DBD04FF00000704700BFD01A01BA71
:100BA000B1FA81F101F0180122FA01F0CB40C1F154
:100BB0002001DBB2C0B2C01A2CFA01F3D11A914362
:100BC00011EAC311E6D1704770477047704770470C
:100BD00030B5B0F10A024FEA900E71F100034EEA0F
:100BE000817EB0EB0E0061EB91014FEA101E4EEAE0
:100BF000017E10EB0E0041EB11114FEA102E4EEA70
:100C0000016E10EB0E0041EB11214FEA104E4EEA3F
:100C1000014E10EB0E0041EB1141401841F1000173
:100C20004FEAD00040EA41704FEAD10110EB800555
:100C30004FEA810444EA907444EB01046D1944EBDB
:100C40000404521BA3414FF0000348BF0A3200D5F1
:100C500030BD401C41F1000130BD09684A0501D595
:100C600040B27047C905FCD500B2704709684A0513
:100C700001D5C0B27047C905FCD580B270472DE9D7
:100C8000F0470D4699469246044600F12408016853
:100C9000880604D5E06921F01001216000E0012000
:100CA000A84201DD471B00E00027A1697A1902EB89
:100CB0000900081AA0612078C00602D42046FFF778
:100CC0003BFC002608E0D4E901211AF80600904711
:100CD000206A401C761C20624E45F4DB2078C0065A
:100CE0000AD52046FFF728FC06E0D4E90121302090
:100CF0009047206A401C2062381EA7F10107F4DCEF
:100D000007E0D4E9012118F805009047206A401C4B
:100D10002062281EA5F10105F3DC2046FFF722FC26
:100D20002078000602D50220BDE8F0870120FBE70D
:100D300011680268006A530501D508700AE0D305FE
:100D400001D5088006E0130603D5C217C1E90002E9
:100D500000E008600120704701694A1C02610878C0
:100D6000704700B58FB0CDE90131002105910549EB
:100D70007944CDE9031011466846FFF7F1FC0FB046
:100D800000BD0000E5FFFFFF0A6802F8010B0A60E2
:100D9000704710B5436913B1AFF3008001E0FFF76E
:100DA000F2FB012010BD127800F124010A7000222C
:100DB0004A700122EDE711684FF0FF32E9E70000C9
:100DC000074B70B50D467B44FFF7CBFF0446284622
:100DD00000F042FC10B14FF0FF3070BD204670BDF6
:100DE000C38E00002DE9FF5F15468A460446DFF8F2
:100DF000AC80F8440027D8E900103E46CDE9001049
:100E000010E03AF816106A4602A800F029FC411CCE
:100E100007D02178890603D5E269391891420DD8A7
:100E20000744761C2078800602D5E069B84205DDCB
:100E3000AE42E6DB3AF816000028E2D1A069C01BFA
:100E4000A0612046FFF778FBD8E90010CDE900103B
:100E5000002017E03AF818106A4602A800F000FCDB
:100E6000B0F1FF3F81460BD000250DF1080B05E0E6
:100E7000D4E901211BF8050090476D1C4D45F7D3BF
:100E800008F10100B0428046E4DB206A3844206269
:100E90002046FFF767FBBDE8FF9F000076FC0300DC
:100EA00030B4002100F1240408E002F00705D20864
:100EB000303542EA4372DB086554491C52EA0305A7
:100EC000F3D10468002310A2250707D5A40600D497
:100ED00021B1C46901230DA2641EC46130BCFFF7B7
:100EE000CEBE10B5044621461068FFF7BFFE02468D
:100EF0002046BDE810400023D2E7D21D22F00701B2
:100F0000D1E90023CCE70000000000003000000021
:100F100070472DE9FF4F0C461E464FF0FF378BB050
:100F2000D2E90001DDF860800A908A46C1F30A55D3
:100F300005B93D46002108464FF00000BAF1000F08
:100F400000F4400005DA00EB80004FF4400101EAB4
:100F500050004FEA9059B9F1010F00DDB9460A98E7
:100F600050EA4A000ED044F61050A5F2FF35454332
:100F70002F14B8F1000F1ED07542291E1EDDC9F1D5
:100F800000021CE0B8F1010F4FF0000001D0302149
:100F900003E0F24305E02154401CB042FBDB304645
:100FA0000022002121540B99C1F80880C1E90020DA
:100FB0000FB0BDE8F08FBD1B6D1CDEE74A4600DABE
:100FC000694206A800F0DEFB06AB93E8070003AB1E
:100FD00083E8070050460A9900F054FC8DE80700AA
:100FE000A0F500501F3800900398002D0ADD42F252
:100FF0001F014A460844002303A90390684600F0F5
:10100000BDFE09E0A0F500504A461F38002303A9A1
:101010000390684600F0C7FE8DE807000004000C4E
:1010200003D04FF0FF30410800E01046B8F1000F48
:1010300003D00022009215461EE0751E05D4FFF76E
:10104000C7FD303262556D1EF9D5B3460122084303
:1010500002D000227F1C04E02078302801D1002239
:101060007F1E002A099784D01DE0112D07DAFFF7B3
:10107000AFFD303262556D1C50EA0102F5D10843D4
:1010800002D00098C8B10EE00021681E05E0235C84
:10109000625C63542254401E491C8142F7DBAB461C
:1010A000A81B401E0990002004F80B000B98099A19
:1010B000C0F80880C0E9002B7AE711264FF000083D
:1010C00057E72DE9F04F88460446D21D22F007016C
:1010D00091B0D1E90001CDE90A0105F0C3FF024654
:1010E0000B98C00F01D02D2007E02068810701D5A3
:1010F0002B2002E0202101EAC000032A099001D040
:10110000072A05DB03464146204600F0FBFA0BE1C7
:101110002078800601D5E06900E00620B8F1650F6F
:10112000814606D0B8F1660F18D0B8F1670F70D1BC
:1011300031E00020B9F1110F009001DB112301E033
:1011400009F101030AAA01A90CA8FFF7E2FEDDE9F3
:101150000C70002609F10105834647E001204B464B
:1011600000904FF000470AAA01A90CA8FFF7D1FE92
:10117000DDE90DB00C995D46002610B909F10100BA
:101180000D18B9EB050003D4C0F1FF3609F10105D4
:10119000A5EB09002BE0B9F1010F01DA4FF00109CD
:1011A0000020B9F1110F0090484601DD112300E045
:1011B00003460AAA01A90CA8FFF7ABFEDDE90C70F3
:1011C0004D4600268346207800070AD4AB4500DA56
:1011D0005D4601A8012D04DD411911F8011C3029DB
:1011E00007D04F4502DA17F1040F04DA01208246D6
:1011F0000FE06D1EEEE7002F02DCED1B3E4403E026
:10120000781CA84200DD7D1CB81B00F1010A4FF0DC
:1012100000472078000703D4AA4501DB4FF0FF3ACE
:101220000021B7F1004F0DF143088DF8431024D091
:1012300002202B23002F01DA7F422D230A21021ED8
:10124000A0F1010000DC5FB197FBF1FC97FBF1F22C
:1012500001FB1C7C17460CF1300C08F801CDEEE7C1
:10126000A8F1010003702188090501D5452100E09E
:101270006521A0F1010800F8011C09980FA9A1EB54
:101280000807FF1D00B10120411901EBEA70A169B7
:101290003844081A401EA0612078C00602D42046B7
:1012A000FFF74AF9099828B1D4E901219047206A4B
:1012B000401C20622078C00622D52046FFF73CF96A
:1012C0001EE0002E04DBB34502DD01A8805D00E0D6
:1012D0003020D4E901219047206A401C2062761C0E
:1012E000AAF101005FEA000A0AD100F007FAC0681B
:1012F0000168405CD4E901219047206A401C2062CB
:10130000281EA5F10105DCDC07E0D4E9012118F86D
:10131000010B9047206A401C2062381EA7F101078C
:10132000F3DC2046FFF71EF9032011B041E6000070
:101330002DE9F04F04460D46D21D22F0070089B07A
:10134000D0E900974846394605F08CFE0246F80F72
:1013500001D02D2307E02068810701D52B2302E06F
:10136000202101EAC0038DF820300BB1012000E0FC
:101370000020032A824601D0072A04DB29462046A2
:1013800000F0C0F93FE12078800601D40D2500E08F
:10139000E569C7F30A560D2D49DA00214FEA175BBC
:1013A00008464FF00000002F00F4400007DA00EB81
:1013B00080004FF4400100EBD07001EA600081151D
:1013C000012901DD4FF0FF3100224FEA850CBCF10D
:1013D000180F06D31346ACF118004FF08052C240EC
:1013E00003E04FF4801323FA0CF30CF10C0CBCF166
:1013F000200F04D3ACF1200C09FA0CF001E007FA3D
:101400000CF000294FF0004801DD18B90FE00ED1B3
:1014100040450CD319EB02095F4121B9404502D187
:101420009F4329EA0209BBEB175F00D0761C208896
:10143000000502D57B48784402E07A4878441938A0
:1014400008AA302302F80A30037C0AF10101002EB9
:101450000AF1020A53546A4602DC4FF0300101E0FF
:101460004FF031014FF001088DF8001002D0A6F2C4
:10147000FF3603E059EA470100D06B4E002D02DC35
:101480002178090704D54FF002082E218DF80110AC
:10149000C44600210BE0C7F303433F01C35C491C72
:1014A0006D1E02F80830052908F1010801DA002D47
:1014B000F1DC00210CE000EB1973491C1B786D1E58
:1014C000082902F808304FEA091908F1010801DA81
:1014D000002DF0DC21688B0602D516E0A8F101088A
:1014E000E04505DD02EB080313F8013C302BF5D095
:1014F000B8F1000F09DD02EB080313F8013C2E2BB5
:1015000003D1090701D4A8F10108002D05DD3E2112
:1015100002F808106D1E08F10108407C002E02F848
:10152000080008F1010804DA2D20764202F80800CC
:1015300002E02B2002F808000A214FF47A7086425C
:1015400008F101080BDB96FBF0F3303302F80830AA
:1015500096FBF0F308F1010800FB136601E0642E2E
:101560000CDB642096FBF0F3303302F8083096FB76
:10157000F0F308F1010800FB136601E00A2E06DB18
:1015800096FBF1F0303002F8080008F1010896FBF4
:10159000F1F001FB1060303002F80800A16908F199
:1015A000010808EB050202EB0A00081AA061207886
:1015B000C00602D42046FEF7BFFF216A08AE01EB49
:1015C0000A00206204E0D4E9012116F8010B9047DB
:1015D000BAF1010AF7D22078C00602D52046FEF7FC
:1015E000ABFF6E4609E016F8010B3E280FD0D4E998
:1015F00001219047206A401C2062B8F10108F2D214
:101600002046FEF7AFFF09B00320BDE8F08F206A47
:101610002844206203E0D4E90121302090476D1E68
:10162000EBD3F8E74DF6030002FCFFFF10B543696A
:1016300013B1AFF3008001E0FFF7D4FB012010BD30
:10164000128800F1240182840022C2840122EDE785
:1016500011684FF0FF32E9E7007B00F0800070472F
:1016600070B516460C46054600F040F8036893F83E
:101670000101012806D0FF2C0FD8185D68B10120A8
:101680002C7070BDD3F807013246214603F20713D0
:1016900003442846BDE8704018474FF0FF3070BD46
:1016A000754600F0EBF8AE4605006946534620F05B
:1016B0000700854618B020B5FEF780FEBDE8204043
:1016C0004FF000064FF000074FF000084FF0000BFE
:1016D00021F00701AC46ACE8C009ACE8C009ACE8B1
:1016E000C009ACE8C0098D467047000010B500F095
:1016F00005F8001D10BD00BFA10D01000048704796
:1017000084C301202DE9F0411F46044603260168E9
:10171000072A01F4006004DB08B116A505E016A550
:1017200003E008B115A500E015A521F01000206028
:10173000A069C01EA0610FB1401EA0612046FEF747
:10174000FBFE4FB1D4E9012138469047206A401C86
:101750002062C01C206206E0206AFAE7D4E9012179
:1017600015F8010B9047761EF8D22046FEF7FAFED8
:10177000BDE8F0814E414E006E616E00494E46005C
:10178000696E66002DE9F047814616468AB03548F5
:1017900078440DC88DE80D0032487844801C03ACB5
:1017A0000DC884E80D0041F69B300844372190FBBA
:1017B000F1F290FBF1F5A5F1800501FB12041B3C51
:1017C00002D56442012000E00020DFF898A08046A6
:1017D0000027FA44AAF1BE0A0EE0E0070AD032461A
:1017E000684607EB470101230AEB810100F0DBFAB1
:1017F0008DE8070064107F1C002CEED1194F7F4448
:10180000AE3F19E0E80715D007EB04100DF1180AF8
:1018100090E80E008AE80E00C068F04201D19819E5
:1018200008903246012306A903A800F0BCFA03ABD6
:1018300083E807006D10641C002DE3D14FF0010315
:1018400032466946B8F1000F03A802D000F096FABC
:1018500001E000F0A8FAC9E90001C9F808200AB0BF
:10186000BDE8F08784F3030010B50446AFF30080B1
:101870002046BDE81040FEF726BD00000048704736
:1018800064C301205FEA400C08BF91F0000F4FEAEB
:101890008C234FEAC12243EA51514FEA1C5018BF32
:1018A00000F5F0404FEA300018BF41F000415FEA18
:1018B0006C5C00F02980BCF1FF3F08BF40F0804025
:1018C0007047130C06BF12044FF0100C4FF0000CC1
:1018D000130E04BF12020CF1080C130F04BF120107
:1018E0000CF1040C930F04BF92000CF1020CD30F07
:1018F00004BF52000CF1010C11464FF00002A0F1A0
:101900001F00A0EB0C00704711F0004F08BF70479C
:1019100031F000413FF4D5AF0B0C06BF09044FF086
:10192000100C4FF0000C0B0E04BF09020CF1080C58
:101930000B0F04BF09010CF1040C8B0F04BF8900CD
:101940000CF1020CCB0F04BF49000CF1010CCCF1DF
:101950002003A0EB0C0022FA03F302FA0CF241EA96
:10196000030100F10100704720F07F4C80EA030082
:1019700023F07F47ACEB070303F57C5300F00040F6
:1019800003F1FF032DE980494FEA154B09B44FEAF3
:10199000144325EA0B4E24EA03480FF2042606EB13
:1019A000132749083E785FEA320203FB0667C7F552
:1019B000000707FB06F64FEA54374FEAD64606F112
:1019C000020607FB066CCCF1005C4FEA1C472CEAD0
:1019D000074C07FB06F40CFB06F504EB15464FEA33
:1019E000961634BF00204FF000404FEAD13706FB77
:1019F00007FC4FEA1C4C0CFB0BF7D21B03FB0CF74C
:101A000061EB07010CFB0EF7B0EB074072EB1742DE
:101A10000CFB08F734BFA2EB0742B2EB074261EBC5
:101A200017414FEA0C444FEA910706FB07FC4FEAC7
:101A30001C4C0CFB0BF7B0EBC74072EB573203FBAF
:101A40000CF734BFA2EBC742B2EBC74261EB573190
:101A50000CFB0EF7B0EBC70072EB57720CFB08F7EC
:101A600034BFA2EBC702B2EBC70261EB5771039F11
:101A70004FEA816141EA921104EBCC044FEAD1377D
:101A80004FEA826206FB07FC42EA90124FEA80604E
:101A90004FEA1C4C0CFB0BF7D21B03FB0CF761EB62
:101AA00007010CFB0EF7B0EB074072EB17420CFB83
:101AB00008F734BFA2EB0742B2EB074261EB1741D4
:101AC0004FEA8C554FEA910704EB9C2406FB07FC78
:101AD0004FEA1C4C0CFB0BF7B0EBC74072EB5732D4
:101AE00003FB0CF734BFA2EBC742B2EBC74261EB7A
:101AF00057310CFB0EF7B0EBC70072EB57720CFBC3
:101B000008F734BFA2EBC702B2EBC70261EB577113
:101B100015EB4C254FEA816141EA92114FEA82624E
:101B20004FEAD13742EA901206FB07FC44F1000469
:101B30004FEA80604FEA1C4C0CFB0BF7D21B03FBF7
:101B40000CF761EB07010CFB0EF7B0EB074072EBF3
:101B500017420CFB08F734BFA2EB0742B2EB074277
:101B600061EB174115EB1C154FEA813141EA9241B7
:101B70004FEA823242EA90424FEA80304FEA0C76D6
:101B800044F1000448EA03434EEA0B484FF0000ECC
:101B9000B2EB080C71EB030724BF624639464EEBEB
:101BA0000E0E4FF0000B0018524149414BEB0B0B4E
:101BB000B2EB080C71EB03077BF1000B24BF62460C
:101BC00039464EEB0E0E4FF0000B001852414941C2
:101BD0004BEB0B0BB2EB080C71EB03077BF1000B2B
:101BE00024BF624639464EEB0E0E51EA020718BF7B
:101BF00046F0010616EB0E7655F1000254F1000195
:101C000003D5BDE88901BDE80088BDE88901BDE8CC
:101C10000048B619524141EB0101A3F1010370479D
:101C200080807F7E7D7C7B7A797877767675747319
:101C3000727171706F6E6E6D6C6C6B6A6A696868D8
:101C4000676666656464636362616160605F5F5E6E
:101C50005E5D5D5C5C5B5B5A5A59595858575756E4
:101C60005655555554545353525252515150505049
:101C70004F4F4F4E4E4D4D4D4C4C4C4B4B4B4A4A9B
:101C80004A494949484848474747474646464545DF
:101C90004544444444434343434242424241414118
:101CA000002B9C4630D477002BD01CB54FEA370769
:101CB00003B44FF010004FF01001BAF1000F06D03E
:101CC000BCF1000FDCBF40F0080040F008014FF00D
:101CD00000000FBCBDE810400BF1010BBBF1010F80
:101CE00008BF5FEA170722BF12F1010211F10101DB
:101CF0004FF0004143F1000300F0004043EA0000D0
:101D00007047F9D35708D0E746EA064613F1400F6B
:101D10004FEA16461FDD13F1200FDFBF16430A46B8
:101D2000002120335B42BED0C3F1200746EA0646BD
:101D300002FA07F74FEA164646EA0706C3F12007FC
:101D400022FA03F201FA07F721FA03F14FF0000338
:101D500042EA0702A7E746EA020646EA06464FEAD3
:101D6000164646EA0106BCBF46EA0646360C4FF068
:101D700000034FF000024FF0000194E72DE9804C82
:101D80009A46934670B491E8380007C831EA400C8F
:101D900048BF34EA430C03D5FFF7E6FDFFF780FFA9
:101DA000F0BCBDE8008C2DE9804C9A46934670B497
:101DB00091E8380007C810F0804F08BF13F0804F3B
:101DC00003D100F005F8FFF76BFFF0BCBDE8008C15
:101DD00020F07F4780EA030023F07F4C07EB0C03E1
:101DE000A3F57C5300F00040A3F1FE0392F0000F36
:101DF00000F0B38095F0000F00F077802DE90149E5
:101E00004FEA11404FEA144621EA004800FB06FC65
:101E100024EA064708FB06F607FB08F800FB07F76D
:101E200018EB06484CEB164C4FEA124B18EB0748E0
:101E30004FEA15464CEB174022EA0B4E0BFB06FC13
:101E400025EA06470EFB06F607FB0EFE0BFB07F71F
:101E50001EEB064E4CEB164C4FF000061EEB074EE9
:101E60004CEB174B18EB0B0840F1000018EB0E0B76
:101E700058EB000840F100008F1A4FF000013CBF02
:101E8000C943661B14BFB5EB040C00213CBFC9431A
:101E9000F61B4FEA17444EEA8E0E27EA04454FEA36
:101EA0001C4704FB07622CEA074C05FB07F70CFBF9
:101EB00005F604FB0CFC16EB074642EB174216EB4B
:101EC0000C4642EB1C421BEB060658EB020241415A
:101ED00046EA9E0601D5BDE80189B619524141EB9B
:101EE0000101A3F10103BDE801894FEA14454FEA5E
:101EF000114724EA054621EA074C05FB07F406FBD7
:101F000007F70CFB06F105FB0CFC11EB074144EB5A
:101F100017444FEA124711EB0C4144EB1C4422EAF0
:101F2000074C05FB07F206FB07F70CFB06F605FB63
:101F30000CFC16EB074642EB174216EB0C4642EB45
:101F40001C456A1854F1000148BF7047B619524148
:101F500041EB0101A3F10103704795F0000F37D069
:101F60004FEA11424FEA144721EA024624EA074C9D
:101F700002FB07F106FB07F70CFB06F402FB0CFC67
:101F800014EB074441EB17414FEA154714EB0C449F
:101F900041EB1C4125EA074C02FB07F506FB07F75E
:101FA0000CFB06F602FB0CFC16EB074645EB17454F
:101FB00016EB0C4645EB1C42121951F1000148BFCB
:101FC0007047B619524141EB0101A3F1010370477B
:101FD0004FEA14454FEA114724EA054621EA074C27
:101FE00005FB07F106FB07F70CFB06F24FF00006B6
:101FF00005FB0CFC12EB074241EB174112EB0C42C4
:1020000051EB1C4148BF7047921841EB0101A3F10D
:102010000103704755494A6822F440324A604A68D1
:1020200043681A434A600268526822F48072036867
:102030005A6002685368026943EA022203685A60E0
:102040000268526822F0407203685A60026852685F
:1020500083681A4303685A600268926822F4006237
:1020600003689A6002689268C3681A4303689A60BA
:102070003F4B826A9A4218D00268926822F07062DE
:1020800003689A6002689268836A1A4303689A60D8
:102090000268926822F0405203689A60026892686F
:1020A000C36A1A4303689A600BE00268926822F0E0
:1020B000706203689A600268926822F04052036876
:1020C0009A600268926822F0020203689A600268CD
:1020D0009368027E43EA420203689A602022125CFF
:1020E000A2B10268526842F4006203685A60026852
:1020F000526822F4604203685A6002685368426A78
:10210000521E43EA423203685A6005E00268526890
:1021100022F4006203685A600268D26A22F47002F4
:102120000368DA620268D36A828B521E43EA025263
:102130000368DA620268926822F4007203689A60A7
:102140000268936890F8302043EA422203689A605C
:102150000268926822F4806203689A600268936859
:10216000426943EA822203689A6070470023014073
:102170000100000F00BFFEE710B52948006829499B
:10218000884205D927485438006800F020001BE039
:10219000234800682449884205D9224858380068F5
:1021A00000F0200010E01E4800681F496039884296
:1021B00005D91D48B838406800F0200004E01A48EE
:1021C000B838006800F0200040B315480068154991
:1021D000884204D9202013494C39086018E010487F
:1021E00000681149884204D920200E4950390860FE
:1021F0000EE00B4800680C496039884204D9202061
:102200000949B839C86003E020200749B839886017
:102210000648006810B105480068804710BD0000FE
:10222000A004002058640240B86002405C00002016
:102230000948006800F0200060B1012007490870DB
:1022400000BF05480830006840F02000024908310E
:10225000086000BF7047000004640240590000207D
:102260007047000070B504461D460023B5F5804F49
:1022700013D154F822300C480340D1E9000640EA5B
:1022800006108E6840EA06208E8940EA06408E6974
:102290003043034344F8223003E06FF0704044F8C9
:1022A0002200002070BD00000000F0CF10B50346F2
:1022B0000022086853F8202012480240D1E90104A6
:1022C0002043CC6820430C6920434C6920438C692F
:1022D0002043CC6920430C6A20434C6A20438C6A1B
:1022E0002043CC6A2043CC6B20430C6B2043024339
:1022F0008868082801D142F04002086843F820208D
:10230000002010BD8000F0FF30B503460024501CB3
:1023100053F8204004F04044D1E9000540EA05109C
:102320008D6840EA05208D8940EA0545088A401EEF
:1023300045EA0055087D801E45EA00608D69284306
:102340000443501C43F82040002030BD38B50246FD
:102350000020009000BF92F83C00012801D102202B
:1023600038BD012082F83C0000BF0868092816D952
:102370001068C0680C780A3C04EB44050724AC40A4
:10238000A0431468E0600C780A3C04EB44048868BD
:10239000A0401468E46820431468E06013E010680B
:1023A00000690C7804EB44050724AC40A043146892
:1023B00020610C7804EB44048868A0401468246908
:1023C0002043146820614868072817D21068406BC2
:1023D0000C79641E04EB84051F24AC40A0431468F0
:1023E0006063088880B20C79641E04EB8404A0400A
:1023F0001468646B20431468606331E048680D28FA
:1024000017D21068006B0C79E41F04EB84051F24BD
:10241000AC40A04314682063088880B20C79E41FA4
:1024200004EB8404A0401468246B204314682063E8
:1024300016E01068C06A0C790D3C04EB84051F247B
:10244000AC40A0431468E062088880B20C790D3C6F
:1024500004EB8404A0401468E46A20431468E0623A
:10246000194B1A4C1068A04206D10868122803D1F3
:10247000586840F480005860144C1068A0421CD189
:102480000868102802D00868112816D1586840F44E
:1024900000005860086810280FD10D4800680D4CE6
:1024A000B0FBF4F000EB80004000009002E00098E8
:1024B000401E009000980028F9D100BF002082F84B
:1024C0003C0000BF00BF4BE700230140002001405B
:1024D0000000002040420F0001460868C06C7047B1
:1024E00070B5044600250CB9012070BD1549A06ADD
:1024F000884200D000BF206C30B9204600F024F89C
:102500000020606484F83C00206C00F0100088B962
:10251000206C20F4885040F0020020642046FFF731
:1025200079FD00206064206C20F0020040F0010082
:10253000206400E0012500BF002084F83C0000BFBB
:102540002846D2E70100000F10B586B004461B49AB
:102550002068884230D100BF00BF0020009018489A
:10256000006840F48070164908600846006800F46E
:102570008070009000BF00BF00BF00BF00BF002000
:1025800000900F481438006840F001000C491439DD
:1025900008600846006800F00100009000BF00BF1E
:1025A00000BF20200190032002900020039001A989
:1025B000044800F095F900BF06B010BD00200140AE
:1025C000443802400000024070B504460D46002623
:1025D0002068806800F48060B0F5806F11D12068B9
:1025E000806800F48070B0F5807F0AD1206C40F0E4
:1025F0002000206400BF002084F83C0000BF0120C0
:1026000070BD00F08DFA064618E0681CB0B125B127
:1026100000F086FA801BA84210D92068006800F0FC
:10262000020002280AD0206C40F00400206400BFA1
:10263000002084F83C0000BF0320E1E72068006828
:1026400000F002000228E0D16FF01200216808605B
:10265000206C40F4007020642068806800F04050D6
:10266000B8B9207EA8B92068C06A00F4700020B113
:102670002068806800F4806058B9206C20F4807075
:102680002064206C00F4805018B9206C40F00100E8
:1026900020640020B4E7000008B501460020009047
:1026A00000BF91F83C00012801D1022008BD0120A3
:1026B00081F83C0000BF0868806800F00100A0B904
:1026C0000868806840F001000B6898603F48006827
:1026D0003F4BB0FBF3F000EB4000009002E00098AD
:1026E000401E009000980028F9D10868806800F02A
:1026F0000100002860D0086C40F20163984340F468
:10270000807008640868406800F4806028B1086C34
:1027100020F4005040F480500864086C00F48050AD
:10272000B0F5805F04D1486C20F00600486401E0F9
:102730000020486400BF002081F83C0000BF254A0B
:102740006FF022000B681860506800F01F0018BB83
:10275000214B0868984213D0204B0868984204D156
:10276000101D006800F01F0050B11D4B0868984212
:102770002AD11848001D006800F01F00102823D23D
:102780000868806800F04050F0B90868806840F040
:1027900080400B68986017E00F4B0868984213D18F
:1027A0000868806800F0405070B90868806840F0A0
:1027B00080400B68986007E0086C40F010000864E7
:1027C000486C40F00100486400206FE700000020E2
:1027D00040420F0000230140002001400021014041
:1027E0000022014070B50446A56D00F099F9064637
:1027F00094F83500022808D08020606500BF0020D2
:1028000084F8340000BF012070BD2068006820F00B
:102810001600216808602068406920F08000216867
:102820004861206C08B9A06C28B12068006820F0CD
:102830000800216808602068006820F00100216815
:1028400008600FE000F06CF9801B05280AD92020F1
:10285000606500BF002084F8340000BF032084F8C6
:102860003500D1E72068006800F001000028E9D1B8
:1028700094F85C103F208840A86000BF002084F8D6
:10288000340000BF012084F835000020BCE7014679
:1028900091F83500022803D0802048650120704758
:1028A000052081F835000868006820F001000A68FA
:1028B00010600020F3E7000070B5044600F030F926
:1028C00006462546681C10B104480078054400BF40
:1028D00000F026F9801BA842FAD370BD4C000020FE
:1028E000F8B502460B460025002400200021DEE05A
:1028F000012606FA01F51E6806EA0504AC4275D108
:102900001E7906F00306012E04D01E7906F0030698
:10291000022E13D190684F000326BE40B0434F00F3
:10292000DE68BE4030439060506801268E40B04360
:102930001E79C6F300168E40304350601E7906F0B3
:102940000306032E09D0D0684F000326BE40B043D3
:102950004F009E68BE403043D0601E7906F00306EB
:10296000022E13D1CF0802F1200656F827004E0799
:10297000F70E0F26BE40B0434F07FF0E1E69BE4044
:102980003043CF0802F1200646F8270010684F00B8
:102990000326BE40B0431E7906F003064F00BE403A
:1029A000304310605E6806F08056B6F1805F7DD1DE
:1029B00000BF00260096404E366846F480463E4FE3
:1029C0003E603E46366806F48046009600BF00BF73
:1029D0003A4E8F0856F827008E07370F0F26BE4055
:1029E000B043374EB24202D1002624E05EE0354EBD
:1029F000B24201D101261EE0334EB24201D102267D
:102A000019E0324EB24201D1032614E0304EB242F8
:102A100001D104260FE02F4EB24201D105260AE073
:102A20002D4EB24201D1062605E02C4EB24201D114
:102A3000072600E008268F073F0FBE4030431F4E99
:102A40008F0846F82700264E3068A0435E6806F4DB
:102A50008036B6F5803F00D12043214E3060361DD0
:102A60003068A0435E6806F40036B6F5003F00D13A
:102A700020431B4E361D3060361D3068A0435E6813
:102A800006F48016B6F5801F00D12043144E083698
:102A90003060361D3068A0435E6806F40016B6F557
:102AA000001F00D120430E4E0C363060491C102907
:102AB000FFF41EAFF8BD0000443802400838014062
:102AC000000002400004024000080240000C0240E6
:102AD000001002400014024000180240001C024096
:102AE000003C0140024613690B400BB1012000E09D
:102AF0000020704710B5426921EA020302EA01048E
:102B000043EA0443836110BD0AB1816101E00B0413
:102B10008361704701480068000C7047002004E0A2
:102B20000148006870470000440000200348006826
:102B300003490978084401490860704744000020AF
:102B40004C00002010B50A48006840F400700849A5
:102B500008600846006840F480600860032000F0C8
:102B60007FF80F2000F006F800F02AF8002010BDD2
:102B7000003C024070B504460E4800784FF47A716C
:102B8000B1FBF0F00C490968B1FBF0F5284601F003
:102B900085FF08B1012070BD102C07D2002221460C
:102BA000501E00F01EF80548046001E00120F2E725
:102BB0000020F0E74C00002000000020480000202A
:102BC000704701460846002809DB00F01F03012278
:102BD0009A4043099B0003F1E023C3F8002100BFA2
:102BE00070472DE9F05F80460D461646002704F039
:102BF00051FA074639462A46334601F00700C0F12C
:102C0000070ABAF1040F02D94FF0040A01E0C0F13B
:102C1000070AD14600F1040ABAF1070F02D24FF0B9
:102C2000000A01E0A0F1030AD4464FF0010A0AFAB3
:102C300009FAAAF1010A0AEA020A0AFA0CFA4FF0A2
:102C4000010B0BFA0CFBABF1010B0BEA030B4AEA8D
:102C50000B042146404604F025FABDE8F09F000031
:102C600000BF00F00702064B19684FF6FF0319403A
:102C7000044B0B4343EA0221014B196000BF70472C
:102C80000CED00E00000FA0508B5012003490862D8
:102C900003480068009000BF08BD000000000E421D
:102CA00000700040F8B5044600250026207800F0AA
:102CB000010020B9207800F0040004282FD1002062
:102CC0005B498866FFF72CFF054606E0FFF728FF03
:102CD000401B022801D90320F8BD56480068C0F304
:102CE000C0600028F2D160688101207A41EA00705A
:102CF00050498431086001204D498866FFF710FF74
:102D0000054606E0FFF70CFF401B022801D903200F
:102D1000E2E748480068C0F3C0600028F2D020789D
:102D200000F0020002287DD100BF00200090414841
:102D30004030006840F080503E494031086008460D
:102D4000006800F08050009000BF00BF3A48006863
:102D500040F4807038490860FFF7E2FE054606E05F
:102D6000FFF7DEFE401B022801D90320B4E73248FA
:102D7000006800F480700028F2D02E48703000689F
:102D800000F440764EB3A08900F44070B04224D0E5
:102D900028487030006820F44076012027490860F8
:102DA00000200860234870300660006800F00100D1
:102DB00098B1FFF7B5FE054608E0FFF7B1FE401BEE
:102DC00041F28831884201D9032085E719487030E3
:102DD0000068C0F340000028EFD000BFA08900F4D5
:102DE0004070B0F5407F0CD112480830006820F4E4
:102DF000F810134AE168114008430E490831086091
:102E000007E00C480830006820F4F8100949083140
:102E10000860084870300068A189C1F30B010843BD
:102E2000044900E002E07031086000BF002053E771
:102E3000000047420038024000700040400E474208
:102E4000FFFCFF0F70B504460D460CB9012070BDA4
:102E50005848006800F00700A84209D255490D7093
:102E60000846006800F00700A84201D00120EEE704
:102E7000207800F0020002281DD1207800F0040024
:102E8000042805D14C48006840F4E0504A490860E5
:102E9000207800F00800082805D14748006840F471
:102EA0006040454908604448006820F0F000A1688F
:102EB000084341490860207800F00100A8B3606829
:102EC000012807D13C4808380068C0F34040B8B931
:102ED0000120BCE76068022802D06068032807D19F
:102EE000354808380068C0F3406048B90120AEE7B3
:102EF000314808380068C0F3400008B90120A6E74F
:102F00002D48006820F00300616808432A490860E2
:102F1000FFF706FE064609E0FFF702FE801B41F2BE
:102F20008831884202D9032091E707E022480068EF
:102F300000F00C006168B0EB810FEDD11D48006816
:102F400000F00700A84209D91A490D700846006828
:102F500000F00700A84201D0012078E7207800F0B7
:102F60000400042807D11448006820F4E050E16808
:102F7000084311490860207800F00800082808D1AB
:102F80000D48006820F46040216940EAC1000A4908
:102F9000086000F03FF808490968C1F30311074AC7
:102FA000515CC8400649086006480068FFF7E2FD2A
:102FB00000204CE7003C024008380240682E01081F
:102FC0000000002048000020014800687047000011
:102FD0000000002000B5FFF7F7FF04490968C1F3BE
:102FE0008221034A515CC84000BD000008380240FD
:102FF000782E010800B5FFF7E7FF04490968C1F31F
:103000004231034A515CC84000BD0000083802400C
:10301000782E01082DE9F047002400250026A1465E
:103020002548006800F00C0020B1042805D00828CD
:103030003AD105E0DFF8849039E0DFF8849036E09B
:103040001D48001F006800F03F041B48001F006877
:1030500000F4800078B11A481749091F0968C1F3C4
:103060008811A0FB01700146224600233846FDF777
:10307000B8F905460EE011480F49091F0968C1F368
:103080008811A0FB01700146224600233846FDF757
:10309000A8F905460848001F0068C0F30140401C1D
:1030A0004600B5FBF6F902E0DFF8109000BF00BF64
:1030B0004846BDE8F0870000083802400024F400CC
:1030C00000127A00F8B504460CB90120F8BD20784A
:1030D00000F00100002874D0F948006800F00C00EE
:1030E00004280DD0F648006800F00C00082813D121
:1030F000F348001F006800F48000B0F5800F0BD18A
:10310000EF4808380068C0F34040002859D0606894
:10311000002856D10120D9E700BF6068B0F5803F94
:1031200008D1E7480838006840F48030E44908399D
:1031300008601EE06068B0F5A02F0DD1E0480838A7
:10314000006840F48020DE490839086008460068BD
:1031500040F4803008600CE0D9480838006820F45A
:103160008030D749083908600846006820F480207C
:10317000086000BF606890B1FFF7D2FC054606E02A
:10318000FFF7CEFC401B642801D903209EE7CC4802
:1031900008380068C0F340400028F1D011E0FFF784
:1031A000BFFC054606E0FFF7BBFC401B642801D9C5
:1031B00003208BE7C24808380068C0F3404000286D
:1031C000F1D1207800F0020002285FD1BC480068ED
:1031D00000F00C0058B1BA48006800F00C00082854
:1031E0001CD1B748001F006800F48000B0B9B44893
:1031F00008380068C0F3400020B1E068012801D021
:10320000012063E7AE480838006820F0F800216923
:1032100040EAC100AA490839086037E0E06800B315
:103220000120A8490860FFF77BFC054606E0FFF790
:1032300077FC401B022801D9032047E7A048083843
:103240000068C0F340000028F1D09D4808380068AD
:1032500020F0F800216940EAC10099490839086066
:1032600014E0002097490860FFF75AFC054606E085
:10327000FFF756FC401B022801D9032026E790489F
:1032800008380068C0F340000028F1D1207800F031
:10329000080008282CD16069A8B101208A4908607B
:1032A000FFF73EFC054606E0FFF73AFC401B02280C
:1032B00001D903200AE782486C300068C0F340005F
:1032C0000028F1D014E000207F490860FFF728FCB7
:1032D000054606E0FFF724FC401B022801D9032025
:1032E000F4E677486C300068C0F340000028F1D164
:1032F000207800F00400042870D10027704838308E
:10330000006800F0805090B900BF002000906C4829
:103310003830006840F0805069493831086008460C
:10332000006800F08050009000BF00BF0127674890
:10333000006800F48070B0B96448006840F48070A0
:1033400062490860FFF7ECFB054606E0FFF7E8FB83
:10335000401B022801D90320B8E65C48006800F44D
:1033600080700028F2D000BFA068012808D154481E
:103370006830006840F001005149683108601DE084
:10338000A06805280DD14E486830006840F0040060
:103390004B49683108600846006840F00100086049
:1033A0000CE047486830006820F00100444968316B
:1033B00008600846006820F00400086000BFA068AC
:1033C000A8B1FFF7ADFB054609E0FFF7A9FB401BDD
:1033D00041F28831884202D9032077E626E0384856
:1033E00068300068C0F340000028EED013E0FFF71B
:1033F00097FB054608E0FFF793FB401B41F288313D
:10340000884201D9032061E62D4868300068C0F386
:1034100040000028EFD1012F07D12948383000683B
:1034200020F0805026493831086000BFA06900288C
:1034300045D02348006800F00C0008285DD0A06942
:10344000022845D100201F490866FFF769FB0546A1
:1034500006E0FFF765FB401B022801D9032035E693
:10346000174808380068C0F340600028F1D1D4E95B
:1034700007010843616A40EA81110122A06AC2EB98
:10348000500041EA00412C20005D41EA00600C49F7
:10349000091F086001200B490866FFF741FB05463C
:1034A00006E0FFF73DFB401B022801D903200DE693
:1034B000034808380068C0F340600028F1D049E0B4
:1034C0000838024000004742800E4742007000402A
:1034D000002021490866FFF723FB054606E0FFF7B9
:1034E0001FFB401B022801D90320EFE51B480068A1
:1034F000C0F340600028F2D12CE0A069012800D17F
:10350000E4E51648001D0668A069012820D006F4ED
:103510008001E06981421BD106F03F01206A8142AF
:1035200016D147F6C0703040616AB0EB811F0FD1F1
:1035300006F440310122A06AC2EB5000B1EB004F0B
:1035400006D106F070612C20005DB1EB006F01D058
:103550000120BBE50020B9E50000474200380240E9
:10356000704702460023106800F1500303EB81030B
:103570001868704710B50023046804F1500303EB8A
:1035800081031A6010BD000010B5044600BF4FF45F
:1035900080610248FFF7AEFA00BF10BD0014024080
:1035A00010B504462068C068C0F3802050B12046A2
:1035B000FFF7EAFF2068C06800F0800060F49060C8
:1035C0002168C8604FF480000249086001206077DC
:1035D00010BD0000143C014010B5044601A0FCF7EA
:1035E00089FF10BD414C41524D2041210D0A000080
:1035F00010B5044620688068C0F3003078B12068B8
:10360000C068C0F3002050B12046FFF7E5FF2068F6
:10361000C06800F0800060F4C0702168C860206855
:103620008068C0F3403078B12068C068C0F34020A3
:1036300050B12046FFF794FF2068C06800F080007A
:1036400060F420702168C8604FF4003002490860BF
:103650000120607710BD0000143C014070B50546A4
:103660000B4616460024286840680E4900EA01040B
:10367000200CD870C4F30420587004F03F009870F8
:10368000C4F3423018705EB9D87802F0E3F8D8700D
:10369000587802F0DFF85870987802F0DBF89870EC
:1036A000002070BD3FFFFF0070B504460B46164674
:1036B00000252068806A586020680069C0F30E0009
:1036C0009860206800680F4900EA0105C5F30540CD
:1036D0001870C5F30620587005F07F00987005F447
:1036E0008000000CD8705EB9187802F0B3F818703A
:1036F000587802F0AFF85870987802F0ABF89870EC
:10370000002070BD7F7F7F0010B504460CB90120FA
:1037100010BD607F20B900202077204600F060F8BF
:103720000220607700BFCA202168486253202168C8
:10373000486200BF204602F0A5F840B100BFFF205C
:103740002168486200BF042060770120E0E720681C
:1037500080682249084021688860216960680843C0
:103760006169084321688968084321688860216885
:10377000E068086120680169208941EA0040216809
:1037800008612068C06820F080002168C860206857
:10379000806800F0200060B9204600F09DF940B13B
:1037A00000BFFF202168486200BF0420607701202D
:1037B000AEE72068006C20F480202168086420684F
:1037C000006CA16908432168086400BFFF202168DC
:1037D000486200BF01206077002099E7BFFF8FFF9C
:1037E00030B591B00546C82401202D490860FFF787
:1037F0004BFA00BF002000902A48006840F080503B
:10380000284908600846006800F08050009000BF1A
:1038100000BF01202249086022483030006840F093
:10382000010020493031086004E0601E84B20520A8
:1038300004F078FB34B11B483030006800F002001F
:103840000028F2D0ACB90820059001200A90002091
:103850000B9005A8FFF736FC0220019000020490AF
:1038600001A8FFF71FFA45F2510100200CF082F881
:1038700014E00420059000200B900120079005A87B
:10388000FFF720FC02200190C001049001A8FFF77F
:1038900009FA45F2500100200CF06CF811B030BD6F
:1038A0003C0E4742403802402DE9F04104460D46A7
:1038B0001646002700BF207F012802D10220BDE864
:1038C000F0810120207700BF022060774EB9687830
:1038D00000F01000102804D1687800F0EF000A30E2
:1038E000687086B9E87801F0C0FF0304687801F0D9
:1038F000BCFF43EA0023A87801F0B7FF0343287810
:1039000043EA403709E0E8780004697840EA01209A
:10391000A9780843297840EA413700BFCA202168C6
:10392000486253202168486200BF204601F0AAFF88
:1039300060B100BFFF202168486200BF04206077AB
:1039400000BF0020207700BF0120B8E716483840AC
:10395000216848602068C06820F080002168C86045
:103960002068806800F0200080B9204600F0B4F89C
:1039700060B100BFFF202168486200BF042060776B
:1039800000BF0020207700BF012098E700BFFF2084
:103990002168486200BF0120607700BF00202077C7
:1039A00000BF00BF8BE700003FFFFF002DE9F041A3
:1039B00004460D461646002700BF207F012802D18D
:1039C0000220BDE8F0810120207700BF022060774F
:1039D000CEB92068806800F0400000B102E000200D
:1039E000E87000BF287801F040FF0304687801F018
:1039F0003CFF43EA0023A87801F037FF0343E8784F
:103A000043EA004712E02068806800F0400000B1FF
:103A100002E00020E87000BF28780004697840EADE
:103A20000120A9780843E97840EA014700BFCA208D
:103A30002168486253202168486200BF204601F097
:103A400021FF60B100BFFF202168486200BF042051
:103A5000607700BF0020207700BF0120B1E71D483C
:103A60003840216808602068806820F48020216840
:103A70008860D5E903010843216889680843216803
:103A800088602068C06820F080002168C8602068D5
:103A9000806800F0200080B9204600F01DF860B179
:103AA00000BFFF202168486200BF0420607700BF8C
:103AB0000020207700BF012083E700BFFF2021689E
:103AC000486200BF0120607700BF0020207700BF60
:103AD00000BF76E77F7F7F0070B504460025206831
:103AE000C06820F0A0002168C860FFF719F80546FB
:103AF00007E0FFF715F8401BB0F57A7F01D90320E6
:103B000070BD2068C06800F020000028F1D00020BF
:103B1000F6E70000F0B589B004460E460027032002
:103B200084F83400606C032820D0B6F5805F04D19F
:103B3000A06B40F08050A0631CE0B6F5006F07D189
:103B4000204602F0BBFC0546A06B2843A06311E0B1
:103B50003EB9204602F07EFC0546A06B2843A063D8
:103B600008E0A06B40F00060A06303E0A06B40F0B1
:103B70008050A063A06B38B117482168886301208A
:103B800084F83400012713E060680390A068049073
:103B9000E0680590069660690790A069089006A8FD
:103BA00007C88DE80700206803A90EC901F0B7FE19
:103BB0004FF40071206801F02DFF054635B106482D
:103BC00021688863A06B2843A0630127012084F843
:103BD0003400384609B0F0BDFF05400010B502467C
:103BE000506E800F0870506EC0F383604870506E46
:103BF000C0F301608870506E000CC870B2F86400A9
:103C0000000A087192F864004871906E000DC88037
:103C1000906EC0F3034008726820805AC0F3C03031
:103C200048726820805AC0F3803088726820805AB9
:103C3000C0F34030C8726820805AC0F30030087367
:103C400000204873506C002836D16820805A8005C7
:103C5000030DD06E43EA90700861D06EC0F3C2606D
:103C60000875D06EC0F302604875D06EC0F3425044
:103C70008875D06EC0F38240C875D06EC0F3C23074
:103C800008760869401C50650B7E506D03F00703F1
:103C90009B1C01249C4060435065087A00F00F0390
:103CA000012098409065D2E915035B0A5843D0651E
:103CB0004FF40073136621E0506C012813D1682083
:103CC000805C8006830AD06E43EA10400861086970
:103CD000401C83025365536DD3654FF400739365A5
:103CE000936D13660AE02E4813689863906B40F05A
:103CF00080509063012082F8340010BD6C20805AFF
:103D0000C0F3803001F8190F6C20805AC0F3C61040
:103D100048706C20805C00F07F008870106FC00FCE
:103D2000C870106FC0F341700871106FC0F38260EB
:103D30004871106FC0F383508871106FC0F340500A
:103D4000C87100200872106FC0F3004048727020E4
:103D5000805AC0F3C03088727020805AC0F380301F
:103D6000C8727020805AC0F3403008737020805AA7
:103D7000C0F3003048737020805AC0F381208873EC
:103D80007020805AC0F30120C8737020805CC0F39B
:103D9000460008740120487419390020ADE700007E
:103DA000FF0540000246506C0860906C4860D06C83
:103DB0008860106DC860506D0861906D4861D06D6D
:103DC0008861106EC86100207047F8B50446002075
:103DD00000906946204602F025FB054615B1A06B10
:103DE0002843A0630098C0F343263046F8BD10B5C1
:103DF00004460CB9012010BD94F8340020B900200D
:103E00002077204600F068F8032084F8340020462C
:103E100000F00CF808B10120EDE70020A06320635A
:103E2000012084F834000020E5E7000070B58AB076
:103E30000446002004900590069007900890762094
:103E4000099007A807C88DE80700206804A90EC9D3
:103E500001F065FD064616B101200AB070BD0020D4
:103E60001B490860206801F074FD01201849A03941
:103E7000C1F8A000204602F06FFA05463DB10120CE
:103E800084F83400A06B2843A0630120E5E72046B6
:103E900002F0E1F905463DB1012084F83400A06B41
:103EA0002843A0630120D8E74FF40071206801F097
:103EB000B1FD05464DB1074821688863A06B2843D2
:103EC000A063012084F83400C7E70020C5E70000A4
:103ED000A0802542FF05400010B586B0044600BF13
:103EE000002000905348006840F400605149086089
:103EF0000846006800F40060009000BF00BF00BFEB
:103F000000BF002000904B481438006840F00400C7
:103F10004849143908600846006800F00400009021
:103F200000BF00BF00BF00BF00BF002000900846D8
:103F3000006840F0040008600846006800F00400D3
:103F4000009000BF00BF00BF00BF00BF0020009076
:103F50000846006840F0040008600846006800F069
:103F60000400009000BF00BF00BF00BF00BF0020E2
:103F700000900846006840F00400086008460068A9
:103F800000F00400009000BF00BF00BF00BF00BFF2
:103F9000002000900846006840F0040008600846D1
:103FA000006800F00400009000BF00BF00BF00BF29
:103FB00000BF002000900846006840F0080008603C
:103FC0000846006800F00800009000BF00BF00BF76
:103FD0008815019002200290012003900220049095
:103FE0000C20059001A91448FEF77AFC4FF40070EC
:103FF000019001A91048FEF773FC4FF48060019016
:1040000001A90D48FEF76CFC4FF40060019001A976
:104010000948FEF765FC4FF48050019001A906485D
:10402000FEF75EFC0420019001A90448FEF758FC4D
:1040300006B010BD4438024000080240000C0240A7
:104040002DE9FF4F89B004468B469946DDF858A00C
:10405000FEF766FD02900B9800905D46BBF1000FE5
:1040600007D1A06B40F00060A06301200DB0BDE857
:10407000F08F94F8340001287ED10020A0630098CE
:1040800000EB0901E06D814205D9A06B40F00070A2
:10409000A0630120EAE7032084F8340000202168AF
:1040A000C862606C012802D00098400200904FF076
:1040B000FF3003904FEA49200490902005900220A1
:1040C0000690002007900120089003A9206801F0C5
:1040D00001FCB9F1010F07D9022020632068009983
:1040E00001F000FD804606E0012020632068009971
:1040F00001F014FD8046B8F1000F0DD0754821681D
:104100008863A06B40EA0800A063012084F83400B3
:10411000002020630120A9E7049E3AE02068406B5C
:1041200000F40040E0B1DEB10020019015E020680D
:1041300001F018FC07462F706D1C761E380A287097
:104140006D1C761E380C28706D1C761E380E28707B
:104150006D1C761E0198401C019001980828E6D33A
:10416000FEF7DEFC0299401A504502D2BAF1000F68
:104170000FD15848216800E0A6E08863A06B40F0AA
:104180000040A063012084F8340000202063032055
:104190006CE72068406B40F22A3108400028BDD00F
:1041A0002068406B00F48070D0B1B9F1010F17D9CD
:1041B000606C032814D0206801F070FD8046B8F1CF
:1041C000000F0DD0434821688863A06B40EA0800C7
:1041D000A063012084F8340000202063012045E71B
:1041E0002068406B00F0080068B13A482168886395
:1041F000A06B40F00800A063012084F83400002088
:104200002063012032E72068406B00F0020068B1B3
:10421000304821688863A06B40F00200A063012051
:1042200084F834000020206301201FE72068406BE1
:1042300000F0200068B1274821688863A06B40F037
:104240002000A063012084F83400002020630120B6
:104250000CE729E0206801F085FB07462F706D1CF4
:10426000761E380A28706D1C761E380C28706D1C5E
:10427000761E380E28706D1C761EFEF751FC0299D2
:10428000401A504502D2BAF1000F0DD111482168F1
:104290008863A06B40F00040A063012084F83400E4
:1042A000002020630120E1E62068406B00F400104C
:1042B00008B1002ECED140F23A5021688863012027
:1042C00084F834000020D1E6A06B40F00050A063D9
:1042D0000120CBE6FF0540002DE9F04F89B00446F0
:1042E000894693469846FEF71BFC0290DA464D46F7
:1042F000B9F1000F07D1A06B40F00060A06301206E
:1043000009B0BDE8F08F94F8340001287ED1002078
:10431000A0630AEB0801E06D814205D9A06B40F073
:104320000070A0630120EBE7032084F83400002034
:104330002168C862606C012801D04FEA4A2A4FF018
:10434000FF3003904FEA4820049090200590002011
:10435000069007900120089003A9206801F0BAFA9E
:10436000B8F1010F07D9202020635146206801F0E1
:10437000B3FC064606E0102020635146206801F099
:10438000C7FC064666B15F4821688863A06B30436E
:10439000A063012084F83400002020630120AFE7EF
:1043A000049F43E02068406B00F4804030B32FB39B
:1043B000002001901FE0287800906D1C7F1E287857
:1043C000009941EA002000906D1C7F1E287800991A
:1043D00041EA004000906D1C7F1E2878009941EA58
:1043E000006000906D1C7F1E6946206801F0D2FAC3
:1043F0000198401C019001980828DCD3FEF790FB3F
:104400000299411A1298814203D200E074E0129896
:1044100060B93C4821688863A06B3043A0630120E9
:1044200084F8340000202063032069E72068406B93
:1044300040F21A3108400028B4D02068406B00F4E4
:104440008070B8B1B8F1010F14D9606C032811D095
:10445000206801F023FC064666B12A48216888637B
:10446000A06B3043A063012084F834000020206357
:10447000012045E72068406B00F0080068B1214842
:1044800021688863A06B40F00800A063012084F8D5
:10449000340000202063012032E72068406B00F0E8
:1044A000020068B1174821688863A06B40F00200E1
:1044B000A063012084F834000020206301201FE75E
:1044C0002068406B00F0100068B10E4821688863D6
:1044D000A06B40F01000A063012084F8340000209D
:1044E000206301200CE740F23A50216888630120E4
:1044F00084F83400002003E7A06B40F00050A06374
:104500000120FDE6FF05400010B504460CB901206E
:1045100010BD606A38B96068B0F5827F00D105E0EF
:104520000021E16102E0002121616161A06AB0F532
:10453000005F00D100BF94F8510028B9002084F832
:104540005000204600F050F8022084F85100206806
:10455000006820F0400021680860A08800F48270A4
:10456000218901F404410843A18901F40061084351
:10457000217C01F002010843217D01F00101084383
:10458000218B01F400710843217F01F038010843B9
:104590002021095D01F080010843218D01F40051C3
:1045A0000843216808600421A06901EA104094F8DA
:1045B000241001F01001084321684860A06AB0F59A
:1045C000005F03D1A08D80B2216808612068C069B6
:1045D00020F400602168C86100206065012084F833
:1045E0005100002094E7000010B586B004462A4927
:1045F000206888424DD100BF00BF002000902748AE
:10460000006840F00200254908600846006800F094
:104610000200009000BF00BF00BF00BF00BF00202D
:1046200000900846006840F00200086008460068F4
:1046300000F00200009000BF00BF00BF00BF00BF3D
:10464000002000900846006840F00200086008461C
:10465000006800F00200009000BF00BF00BF08200B
:104660000190022002900120039002200490052076
:10467000059001A90A48FEF733F91020019001A91D
:104680000748FEF72DF92020019001A90448FEF704
:1046900027F906B010BD000000300140303802405C
:1046A000000402402DE9F04F85B00446884691464B
:1046B0001D460E9E002004900120029000200190D3
:1046C00000BF94F85000012803D1022005B0BDE8D6
:1046D000F08F012084F8500000BFFEF721FA074652
:1046E00094F851B060680390AA46BBF1010F0BD05B
:1046F0000398B0F5827F04D1A06810B9BBF1040F14
:1047000002D0022001902CE1B8F1000F03D0B9F1E2
:10471000000F00D015B90120019022E194F851005A
:10472000042802D0052084F8510000206065C4F8F8
:104730003890E587A587C4F83080E586A586206493
:104740006064A06AB0F5005F0DD100BF206800680A
:1047500020F40050216808602068006840F4005090
:104760002168086000BF2068006800F04000402811
:1047700005D02068006840F0400021680860E068CB
:10478000B0F5006F56D1606810B1BAF1010F09D1D0
:10479000206B00882168C860206B801C2063E08E3D
:1047A000401EE0863FE02068806800F0020002289A
:1047B0001CD1E08ED0B10298012817D1206B00885F
:1047C0002168C860206B801C2063E08E401EE0865C
:1047D00000200290E08E48B9A06AB0F5005F05D1D4
:1047E0002068006840F48050216808602068806874
:1047F00000F0010068B1E08F58B12068C068A16B7B
:104800000880A06B801CA063E08F401EE087012021
:104810000290FEF785F9C01BB04204D3701C10B1A2
:10482000032001909DE0E08E0028BCD1E08F00289D
:10483000B9D156E0606810B1BAF1010F09D1206B0F
:10484000007821680873206B401C2063E08E401EB6
:10485000E08640E02068806800F0020002281CD159
:10486000E08ED0B10298012817D1206B0078216822
:104870000873206B401C2063E08E401EE086002001
:104880000290E08E48B9A06AB0F5005F05D12068BB
:10489000006840F48050216808602068806800F05B
:1048A000010068B1E08F58B12068C068A16B087042
:1048B000A06B401CA063E08F401EE08701200290A7
:1048C000FEF72EF9C01BB04201D3701C00B916B917
:1048D0000320019045E0E08E0028BBD1E08F002846
:1048E000B8D1A06AB0F5005F12D13346012211465B
:1048F0002046009701F04CFE30B1606D40F00200A0
:104900006065032001902CE02068C068049000BF1F
:104910002068806800F01000102809D1606D40F018
:10492000020060654FF6EF702168886001200190F9
:104930003A463146204601F0F5FD20B101200190B4
:10494000202060650DE0A06850B900BF00200090F5
:104950002068C068009020688068009000BF00BF99
:1049600000BF012084F8510000BF002084F85000EF
:1049700000BF0198AAE670B504460E4615460CB96C
:10498000012070BD94F8490028B9002084F848003F
:10499000204600F01DF804F108012068FDF786FCB0
:1049A0003146A2682068FDF7AFFC2946236BD4E9A5
:1049B0000102FDF757FCA168206850F8210040F083
:1049C0000100A268216841F822000020D9E7000018
:1049D00010B586B0044600BF002000902248006851
:1049E00040F00100204908600846006800F001001E
:1049F000009000BF00BF00BF002000901A48083898
:104A0000006840F008001849083908600846006846
:104A100000F00800009000BF00BF00BF0020009021
:104A20000846006840F0100008600846006800F082
:104A30001000009000BF00BF4CF2037001900220F4
:104A4000029001200390022004900C20059001A9FF
:104A50000648FDF745FF4FF68070019001A9044814
:104A6000FDF73EFF06B010BD38380240000C024092
:104A700000100240042808D14FF0E021096941F0FC
:104A800004014FF0E022116107E04FF0E0210969D5
:104A900021F004014FF0E0221161704770B5044627
:104AA0002546681EB0F1807F01D301200FE0681E0B
:104AB0004FF0E02148610F214FF0FF3002F0F2FA91
:104AC00000204FF0E021886107200861002070BDC0
:104AD0007047704710B504460CB9012010BD94F81A
:104AE0003D0028B9002084F83C00204600F026F85C
:104AF000022084F83D00211D206801F059FE0120AC
:104B000084F8460000BF84F83E0001213F20015593
:104B1000402001554120015500BF00BF012084F80D
:104B2000420043200155442001554520015500BF56
:104B3000012084F83D000020D0E7000038B504468D
:104B40000F492068884219D100BF00BF00200090A3
:104B50000C48006840F010000A49086008460068E8
:104B600000F01000009000BF00BF00BF0322012131
:104B70003620FEF736F83620FEF723F838BD000061
:104B80000010004040380240014691F83D000128E5
:104B900001D001207047022081F83D000868C068FC
:104BA00040F001000B68D8601A4B086898421BD08F
:104BB0000868B0F1804F17D0174B0868984213D09F
:104BC000164B086898420FD0154B086898420BD0D6
:104BD000144B0868984207D0134B0868984203D0DA
:104BE000124B086898420CD10868806800F00702F0
:104BF000062A0CD00868006840F001000B681860B5
:104C000005E00868006840F001000B6818600020AB
:104C1000C0E7000000000140000400400008004020
:104C2000000C00400004014000400140001800401A
:104C3000704710B5044620680069C0F34000D8B141
:104C40002068C068C0F34000B0B16FF00200216876
:104C50000861012020772068806900F0030018B106
:104C60002046FFF7E5FF05E0204600F0ADF82046BE
:104C700000F0A0F90020207720680069C0F38000D0
:104C8000D8B12068C068C0F38000B0B16FF00400F4
:104C900021680861022020772068806900F4407054
:104CA00018B12046FFF7C4FF05E0204600F08CF85D
:104CB000204600F07FF90020207720680069C0F3CB
:104CC000C000D8B12068C068C0F3C000B0B16FF0B8
:104CD000080021680861042020772068C06900F07E
:104CE000030018B12046FFF7A3FF05E0204600F0BF
:104CF0006BF8204600F05EF90020207720680069FC
:104D0000C0F30010D8B12068C068C0F30010B0B183
:104D10006FF0100021680861082020772068C069C2
:104D200000F4407018B12046FFF782FF05E02046EE
:104D300000F04AF8204600F03DF900202077206876
:104D4000006900F0010058B12068C06800F001005F
:104D500030B16FF0010021680861204600F0B2F91F
:104D600020680069C0F3C01058B12068C068C0F363
:104D7000C01030B16FF08000216808612046FFF755
:104D8000A7FE20680069C0F3801058B12068C06891
:104D9000C0F3801030B16FF04000216808612046F8
:104DA00000F0C4F920680069C0F3401058B12068D1
:104DB000C068C0F3401030B16FF020002168086176
:104DC0002046FFF786FE10BD704770B504460D46BD
:104DD000164600BF94F83C00012801D1022070BDA6
:104DE000012084F83C0000BF36B1042E1BD0082EF1
:104DF00031D00C2E5ED145E02946206801F056FDE9
:104E00002068806940F00800216888612068806916
:104E100020F00400216888612068806929690843BE
:104E20002168886147E02946206801F077FD206805
:104E3000806940F40060216888612068806920F4FE
:104E400080602168886120688069296940EA0120C2
:104E5000216888612FE02946206801F09DFD2068C7
:104E6000C06940F008002168C8612068C06920F06E
:104E700004002168C8612068C06929690843216865
:104E8000C86118E02946206801F0C2FD2068C069A9
:104E900040F400602168C8612068C06920F4806027
:104EA0002168C8612068C069296940EA0120216839
:104EB000C86100E000BF00BF00BF002084F83C00D4
:104EC00000BF00BF8BE710B504460CB9012010BD30
:104ED00094F83D0028B9002084F83C00204600F0FA
:104EE00025F8022084F83D00211D206801F060FCB7
:104EF000012084F8460000BF84F83E0001213F20D5
:104F00000155402001554120015500BF00BF01203F
:104F100084F84200432001554420015545200155A5
:104F200000BF012084F83D000020D0E710B586B016
:104F300004461D492068884234D100BF00BF0020CC
:104F400000901A48006840F02000184908600846A0
:104F5000006800F02000009000BF00BF00BF00BF4D
:104F600000BF0020009011481030006840F48070AD
:104F70000E49103108600846006800F48070009007
:104F800000BF00BF00BF4815019002200290012021
:104F90000390022004900920059001A90448FDF720
:104FA0009FFC00BF06B010BD00200040303802401A
:104FB000001402407047000070B504460D4615B954
:104FC00094F83E000BE0042D02D13F20005D06E086
:104FD000082D02D14020005D01E04120005D012844
:104FE00001D0012070BD1DB9022084F83E000EE002
:104FF000042D03D102213F20015508E0082D03D1E3
:1050000002214020015502E00221412001550122E8
:105010002946206801F038FC23492068884203D0E3
:1050200022492068884201D1012000E0002028B1F7
:105030002068406C40F40040216848641A492068A8
:1050400088421BD02068B0F1804F17D018492068E3
:10505000884213D01749206888420FD0164920682B
:1050600088420BD011492068884207D01349206834
:10507000884203D01249206888420CD12068806899
:1050800000F00706062E0CD02068006840F00100F2
:105090002168086005E02068006840F00100216890
:1050A000086000209EE7000000000140000401406D
:1050B0000004004000080040000C00400040014097
:1050C0000018004010B5044614492068884224D1D5
:1050D00013480078401C12490870087800EBD07122
:1050E0004910A0EB4101C1B90E48007C00F001005D
:1050F00030B10C48007C20F001000A49087405E03A
:105100000848007C40F001000649087400BF4FF4D5
:1051100080610548FDF7EEFC00BF10BD00100040A7
:105120006200002050C30120001402407047704705
:10513000704700002DE9F84F044620680568206894
:10514000C668206847694FF00009CA4605F00F0994
:10515000B9F1000F0AD105F0200038B106F02000A7
:1051600020B1204601F0DBFCBDE8F88FB9F1000F5B
:1051700072D007F0010018B906F4907000286BD0C7
:1051800005F0010030B106F4807018B1206C40F0D9
:105190000100206405F0040030B107F0010018B1EF
:1051A000206C40F00200206405F0020030B107F0EE
:1051B000010018B1206C40F00400206405F00800E4
:1051C00048B106F0200010B907F0010018B1206CBA
:1051D00040F008002064206C70B305F0200028B176
:1051E00006F0200010B1204601F099FC20684069CB
:1051F000C0F3801A206C00F0080010B9BAF1000F5B
:1052000023D0204601F060FC2068406900F0400097
:10521000402816D12068406920F04000216848618C
:10522000A06B50B15648A16B0865A06BFDF72FFB32
:1052300010B1A06B016D88470CE02046FFF778FFA6
:1052400008E02046FFF774FF04E02046FFF770FFF8
:105250000020206488E7FFE7206B012879D105F062
:105260001000002875D006F01000002871D000BF93
:10527000002000902068006800902068406800903E
:1052800000BF00BF2068406900F04000402839D1CD
:10529000A06B006840681FFA80F8B8F1000F30D0AA
:1052A000A08D40452DDDA4F82E80A06BC069B0F51F
:1052B000807F1FD02068C06820F480702168C8609B
:1052C0002068406920F00100216848612068406939
:1052D00020F0400021684861202084F83E00002032
:1052E00020632068C06820F010002168C860A06BAF
:1052F000FDF778FAA08DE28D801A81B22046FFF783
:1053000016FF31E7A08DE18D401A1FFA80F8E08D7D
:10531000E8B1B8F1000F1AD02068C06820F490708E
:105320002168C8602068406920F001002168486158
:10533000202084F83E00002020632068C06820F010
:1053400010002168C86041462046FFF7F0FE0BE7D9
:10535000FFE705F0800030B106F0800018B120466C
:1053600001F075FD00E705F0400030B106F04000A7
:1053700018B1204601F0C3FBF6E600BFF4E60000DA
:10538000B56A000810B504460CB9012010BDA0692B
:1053900000B100E000BF94F83D0028B9002084F877
:1053A0003C00204600F028F8242084F83D002068C6
:1053B000C06820F400502168C860204601F00EFC4F
:1053C0002068006920F490402168086120684069E5
:1053D00020F02A00216848612068C06840F400502D
:1053E0002168C86000202064202084F83D0084F8F3
:1053F0003E000020CAE7000010B586B004466549AB
:105400002068884256D100BF00BF0020009062484B
:10541000006840F01000604908600846006800F02D
:105420001000009000BF00BF00BF00BF00BF002001
:10543000009059481438006840F00100564914396A
:1054400008600846006800F00100009000BF00BF3F
:1054500000BF00BF00BF002000900846006840F079
:10546000010008600846006800F00100009000BFDD
:1054700000BF00BF48150190022002900120039058
:10548000022004900720059001A94448FDF728FA5E
:105490004FF4806001900720059001A93F48FDF777
:1054A0001FFA2520FDF78DFB032211462520FDF76D
:1054B00098FB6DE03A492068884269D100BF00BF7F
:1054C0000020009034481438006840F0020032494F
:1054D000143908600846006800F00200009000BF20
:1054E00000BF00BF00BF00BF00200090084600685A
:1054F00040F0020008600846006800F002000090DA
:1055000000BF00BF00BF00BF00BF002000902248C6
:10551000001F006840F480201F49091F08600846EA
:10552000006800F48020009000BF00BF00BF081595
:105530000190022002900020039002200490072096
:10554000059001A91748FDF7CBF94FF400600190D1
:105550000220029000200390022004900720059072
:1055600001A91048FDF7BCF9002211462720FDF7DC
:1055700038FB2720FDF725FB2068C06840F020009D
:105580002168C8602068C06840F010002168C860C9
:1055900006B010BD00100140443802400000024037
:1055A00000480040000402402DE9F84F04460E4632
:1055B000174699464FF0000A94F83E0020285FD124
:1055C00006B117B90120BDE8F88F00BF94F83C0080
:1055D000012801D10220F6E7012084F83C0000BF39
:1055E00000202064222084F83E0000202063FDF784
:1055F00097FA8246A785E785A068B0F5805F04D159
:10560000206910B90025B04602E035464FF0000889
:1056100000BF002084F83C0000BF29E05346002270
:1056200020212046CDF8009001F041FC08B1032074
:10563000C9E745B920684068C0F30800A8F8000031
:1056400008F1020811E0A068B0F5805F03D0A068FF
:1056500028B9206918B920684068287004E02068DB
:10566000406800F07F0028706D1CE08D401EE085D2
:10567000E08D0028D2D1202084F83E000020A2E74F
:105680000220A0E770B504460D46164694F83E0089
:10569000202816D105B10EB9012070BD00BF94F8C5
:1056A0003C00012801D10220F7E7012084F83C00EA
:1056B00000BF0020206332462946204601F0A4FBAB
:1056C000EBE70220E9E7000010B504462049206816
:1056D00088423BD11F48008800F4004088BB1D4829
:1056E000008800F4804070B11B4800780A2803D07D
:1056F00000201849088024E01648008840F4004043
:10570000144908801DE0144800780D2806D111487E
:10571000008840F480400F49088012E00E4800786D
:105720000C490988C1F30D010C4A505409480088FE
:10573000401C0849088008460088C72801DD002071
:105740000880012204490648FFF79CFF10BD0000B5
:105750000010014040000020420000204C010020C9
:10576000140200202DE9F84F04460E4617469946CC
:105770004FF0000A94F83D0020285AD106B117B91D
:105780000120BDE8F88F00BF94F83C00012801D14A
:105790000220F6E7012084F83C0000BF00202064CE
:1057A000212084F83D00FDF7BBF98246A784E784F9
:1057B000A068B0F5805F04D1206910B90025B0461B
:1057C00002E035464FF0000800BF002084F83C009E
:1057D00000BF1BE05346002280212046CDF80090F8
:1057E00001F065FB08B10320CBE745B9B8F800002C
:1057F000C0F308002168486008F1020803E0287837
:10580000216848606D1CE08C401EE084E08C00281C
:10581000E0D15346002240212046CDF8009001F00F
:1058200046FB08B10320ACE7202084F83D000020AF
:10583000A7E70220A5E7704700BFFEE700BFFEE72D
:105840007047000010B50248FDF7D2FE10BD000001
:1058500000150020014600BF080900EB800042004F
:1058600001F00F001044C0B270470146002203E06F
:10587000521CA1F10A00C1B20A29F9D2100741EA6B
:105880001060704770B5044600252068C06800F0BD
:105890004000A0B9681E2168C860FDF741F90546BF
:1058A00007E0FDF73DF9401BB0F57A7F01D90320F1
:1058B00070BD2068C06800F040000028F1D00020D2
:1058C000F6E7000010B50248FDF76AFE10BD0000C3
:1058D0000015002010B50246002308685062486891
:1058E0009062D1E9020420430C6920434C692043B3
:1058F0000343D06A20F0F7001843D062002010BDA7
:1059000001460869C0B270470146086800F003000C
:105910007047024602F114004318186870470FB42C
:1059200010B504460021DDE903021043059A104337
:10593000069A1043079A1043089A1043014360687F
:1059400047F6FF62904308436060002010BC5DF89A
:1059500014FB10B50446032020600220FCF7ACFFC6
:10596000002010BD0146D1F88000704710B50246F6
:10597000002308689060D1E901042043CC682043EB
:105980000C6920430343D0686FF30B001843D060C9
:10599000002010BD02460868C2F880000020704751
:1059A00070B586B005460C46019437200290402021
:1059B0000390002004904FF48060059001A92846D0
:1059C000FFF7D4FF41F288323721284600F0DCF996
:1059D0000646304606B070BD70B586B005460C462A
:1059E0000B48204301902920029040200390002082
:1059F00004904FF48060059001A92846FFF7B6FF98
:105A0000284600F0C9FA0646304606B070BD0000D0
:105A10000000108070B586B005460C460194102039
:105A2000029040200390002004904FF48060059085
:105A300001A92846FFF79AFF41F288321021284633
:105A400000F0A2F90646304606B070BD70B586B0CB
:105A500005460C4601940620029040200390002049
:105A600004904FF48060059001A92846FFF77EFF5F
:105A700041F288320621284600F086F90646304673
:105A800006B070BD30B585B004460020009001908E
:105A9000029003904FF48060049069462046FFF71F
:105AA00065FF204600F050F90546284605B030BD98
:105AB00030B585B004464FF4D570009008200190B1
:105AC00040200290002003904FF4806004906946CB
:105AD0002046FFF74BFF204600F0E6FA0546284631
