:020000040800F2
:10000000C8C70120FD020008D7410008CF41000801
:10001000D3410008C10C0008755900080000000019
:100020000000000000000000000000003D02000889
:10003000AD0D00080000000099020008DB50000828
:100040002103000821030008210300085942000889
:1000500021030008210300082103000821030008F0
:1000600021030008210300082103000821030008E0
:10007000210300082103000821030008C50C000823
:1000800021030008210300082103000821030008C0
:1000900021030008210300082103000821030008B0
:1000A00021030008210300082103000821030008A0
:1000B000210300080551000821030008210300085E
:1000C0002103000821030008210300082103000880
:1000D0002103000861580008210300087158000836
:1000E00021030008D941000821030008210300086A
:1000F0002103000821030008210300082103000850
:10010000210300082103000821030008210300083F
:1001100021030008210300083551000821030008CD
:10012000210300082103000821030008210300081F
:100130007D0D0008210300082103000821030008A9
:1001400021030008210300082103000821030008FF
:1001500021030008210300082103000821030008EF
:1001600021030008210300082103000821030008DF
:1001700021030008210300082103000800000000FB
:10018000210300082103000800F002F800F047F8FE
:100190000AA090E8000C82448344AAF10107DA45E2
:1001A00001D100F03CF8AFF2090EBAE80F0013F0ED
:1001B000010F18BFFB1A43F0010318476CDE030060
:1001C0008CDE0300103A24BF78C878C1FAD85207F1
:1001D00024BF30C830C144BF04680C6070470000C1
:1001E0000023002400250026103A28BF78C1FBD840
:1001F000520728BF30C148BF0B607047642900F028
:100200008D81782900F0F181732900F05C84002051
:1002100070471FB510F001F91FBD10B510BD00F0FB
:100220006DFC1146FFF7F5FF0BF0C2FC00F08BFCF4
:1002300003B4FFF7F2FF03BC05F0D9FB2C4B1968A0
:100240000868B0E8F04F80F30988BFF36F8F4FF074
:10025000000080F311887047000000000848006823
:10026000006880F308884FF0000080F3148862B6BD
:1002700061B6BFF34F8FBFF36F8F00DF00BF00BFCA
:1002800008ED00E0DFF80C00016841F47001016046
:10029000704700BF88ED00E0EFF30980BFF36F8F78
:1002A000134B1A681EF0100F08BF20ED108A20E9CA
:1002B000F04F106009B44FF0500080F31188BFF385
:1002C0004F8FBFF36F8F0EF0FDFC4FF0000080F3F7
:1002D000118809BC19680868B0E8F04F1EF0100FCB
:1002E00008BFB0EC108A80F30988BFF36F8F7047A6
:1002F00080000020EFF30580704700000C48016883
:1003000041F4700101600B4880470B480047FEE74D
:10031000FEE7FEE7FEE7FEE7FEE7FEE7FEE7FEE7B5
:10032000FEE7000005480649044A064B70470000F6
:1003300088ED00E0F150000889010008C8C30120E1
:10034000C8C70120C8C30120704753EA020C00F05F
:1003500069802DE9F04B4FF00006002B1FBFB3FA68
:1003600083F503FA05F424FA05F65E4012BF16433E
:10037000B2FA82F502FA05F4C5F120051EBF22FA91
:1003800005FC44EA0C04203556EA044C4FEA1444B8
:1003900018BF641C4FF000084FF00009904271EB49
:1003A000030C39D3002919BFB1FA81F701FA07F616
:1003B000B0FA80F700FA07F6C7F120071EBF20FA4F
:1003C00007FC46EA0C062037B6FBF4FCA7EB050752
:1003D000103F07F01F0BCBF120060CFA0BFB2CFA99
:1003E00006F644BFB3460026202FA4BF5E464FF05A
:1003F000000B5BEA060C08BF4FF0010B19EB0B0971
:10040000ABFB027C48EB0608C01B06FB02CC0BFBD7
:1004100003CC71EB0C01C1E70B460246414648464E
:10042000BDE8F08B13B54FF000004FF00001AFF3C3
:100430000080BDE81C4070470FB4044910B503AA02
:10044000029800F045FB10BC5DF814FB340000205E
:100450000FB41CB5084B06AA7B446946009005986A
:1004600000F007FB04460020694600F015FB20461B
:100470001CBC5DF814FB00003D06000070B504468E
:1004800085690068C10601D5302600E02026C00736
:1004900007D070BDD4E9012130469047206A401C46
:1004A00020626D1EF6D570BD70B504468569007872
:1004B000C00707D170BDD4E9012120209047206AF0
:1004C000401C20626D1EF6D570BD70B50C46054609
:1004D000012A05D02878800600D5EA69002302E0C9
:1004E000012305E05B1C934202D2E05C0028F9D1B5
:1004F000A869E618C01AA861286A18442862284624
:10050000FFF7BCFF04E0D5E9012114F8010B904787
:10051000B442F8D32846FFF7C7FF70BD2DE9F0417C
:100520000646002410687529314616A510D0AFF391
:100530000080002802DA404213A507E031688A07EC
:1005400001D512A502E0490704D511A5012401E057
:10055000AFF3008000210A2206F1240709E0B0FB76
:10056000F2FCB0FBF2F302FB1C003030785418466A
:10057000491C0028F3D123462A463046BDE8F04105
:1005800000F018BA000000002D0000002B00000051
:1005900020000000F0B40D460188090502D5214C69
:1005A0007C4402E01F4C7C440E34002100F1240600
:1005B00008E002F00F071209E75D42EA03721B0927
:1005C0007754491C52EA0307F3D10278002312073B
:1005D00004D5702D06D009B1022311342246F0BC97
:1005E00000F0E8B901231034F8E770B504460D4671
:1005F00021461068AFF30080024629462046BDE838
:1006000070400023C6E7D21D22F00703D3E9002380
:10061000C0E70368126843F0200303600823C36146
:100620000023B7E74ADA03002DE9F05F8946044664
:100630004FF0000ADFF874B1FB44C0F820A0204658
:10064000E1688847002874D0252806D0D4E9012124
:100650009047206A401C2062F1E700265F46204652
:10066000E16888472028054607DB312D05D2781937
:1006700010F8200C08B10643F1E7B00701D526F0C9
:100680000406C4F81CA00027C4F818A02A2D09D01D
:10069000284605F0A5F938B304EB8708303DC8F8C3
:1006A000185019E059F8041B204604EB87029161A9
:1006B000E1688847012F054618D1E069002820DA53
:1006C00026F020061DE0D8F8180000EB800005EBAE
:1006D00040003038C8F818002046E16888470546D1
:1006E00005F07EF90028EED1012F0AD02E2D08D179
:1006F0002046E16888477F1C0546022F46F0200609
:10070000C4DBA069002803DA404246F00106A0617C
:10071000F00701D026F010066C2D0BD0682D09D003
:100720004C2D39D06A2D35D0742D35D07A2D33D05B
:1007300016E038E0E1682F4620468847B842054673
:1007400009D16C2F26D04FF48060E1680643204623
:100750008847054604E06C2F1AD04FF4807006439A
:100760000DB3A5F14100192802D8203546F40066E2
:100770004A462946204626604E46FFF73FFD80B197
:1007800001280BD0F61D26F0070000F1080956E7F6
:100790004020E4E78020D8E70020D6E706F10409EE
:1007A0004DE7284652E7206ABDE8F09FDAD90300FA
:1007B000401ECAB210F8011F8A4202D00029F9D1A6
:1007C0000020704740EA010310B59B070FD1042AAF
:1007D0000DD310C808C9121F9C42F8D020BA19BA0C
:1007E000884201D9012010BD4FF0FF3010BD1AB171
:1007F000D30703D0521C07E0002010BD10F8013BC6
:1008000011F8014B1B1B07D110F8013B11F8014BEC
:100810001B1B01D1921EF1D1184610BD032A40F2D4
:10082000308010F0030C00F0158011F8013BBCF192
:10083000020F624498BF11F801CB00F8013B38BFAA
:1008400011F8013BA2F1040298BF00F801CB38BFB8
:1008500000F8013B11F0030300F02580083AC0F0D6
:10086000088051F8043B083A51F804CBA0E808107E
:10087000F5E7121D5CBF51F8043B40F8043BAFF3B1
:100880000080D20724BF11F8013B11F801CB48BF0B
:1008900011F8012B24BF00F8013B00F801CB48BF41
:1008A00000F8012B704710B5203AC0F00B80B1E87A
:1008B0001850203AA0E81850B1E81850A0E8185095
:1008C000BFF4F5AF5FEA027C24BFB1E81850A0E89E
:1008D000185044BF18C918C0BDE810405FEA827CB8
:1008E00024BF51F8043B40F8043B08BF7047D207CF
:1008F00028BF31F8023B48BF11F8012B28BF20F870
:10090000023B48BF00F8012B704702F0FF0343EAA7
:10091000032242EA024200F002B84FF0000204292A
:10092000C0F0128010F0030C00F01B80CCF1040C1E
:10093000BCF1020F18BF00F8012BA8BF20F8022B52
:10094000A1EB0C0100F00DB85FEAC17C24BF00F8F8
:10095000012B00F8012B48BF00F8012B70474FF026
:10096000000200B5134694469646203922BFA0E8FF
:100970000C50A0E80C50B1F12001BFF4F7AF09070B
:1009800028BFA0E80C5048BF0CC05DF804EB8900FC
:1009900028BF40F8042B08BF704748BF20F8022B3F
:1009A00011F0804F18BF00F8012B70477047704757
:1009B000704770472DE9F0470D4699469246044628
:1009C00000F124080168880604D5E06921F01001CF
:1009D000216000E00120A84201DD471B00E0002764
:1009E000A1697A1902EB0900081AA0612078C006F3
:1009F00002D42046FFF742FD002608E0D4E9012199
:100A00001AF806009047206A401C761C20624E456A
:100A1000F4DB2078C0060AD52046FFF72FFD06E05C
:100A2000D4E9012130209047206A401C2062381E02
:100A3000A7F10107F4DC07E0D4E9012118F805006B
:100A40009047206A401C2062281EA5F10105F3DCB6
:100A50002046FFF729FD2078000602D50220BDE8D8
:100A6000F0870120FBE7000001694A1C0261087859
:100A7000704700B58FB0CDE90131002105910549DE
:100A80007944CDE9031011466846FFF7CDFD0FB05C
:100A900000BD0000E5FFFFFF0A6802F8010B0A60D5
:100AA000704710B5436913B1AFF3008001E0FFF761
:100AB0000CFD012010BD127800F124010A70002203
:100AC0004A700122EDE711684FF0FF32E9E70000BC
:100AD000074B70B50D467B44FFF7CBFF0446284615
:100AE00000F008F810B14FF0FF3070BD204670BD27
:100AF00033720000007B00F080007047754600F004
:100B00002BF8AE4605006946534620F0070085469F
:100B100018B020B5FFF706FCBDE820404FF00006F6
:100B20004FF000074FF000084FF0000B21F00701D5
:100B3000AC46ACE8C009ACE8C009ACE8C009ACE818
:100B4000C0098D46704710B50446AFF300802046BB
:100B5000BDE81040FFF76CBB0048704764C301203C
:100B600055494A6822F440324A604A6843681A4349
:100B70004A600268526822F4807203685A60026810
:100B80005368026943EA022203685A6002685268A5
:100B900022F0407203685A600268526883681A4300
:100BA00003685A600268926822F4006203689A60DF
:100BB00002689268C3681A4303689A603F4B826A6E
:100BC0009A4218D00268926822F0706203689A60B4
:100BD00002689268836A1A4303689A60026892689E
:100BE00022F0405203689A6002689268C36A1A430E
:100BF00003689A600BE00268926822F070620368F2
:100C00009A600268926822F0405203689A60026813
:100C1000926822F0020203689A6002689368027E7A
:100C200043EA420203689A602022125CA2B1026881
:100C3000526842F4006203685A600268526822F403
:100C4000604203685A6002685368426A521E43EA6F
:100C5000423203685A6005E00268526822F400627A
:100C600003685A600268D26A22F470020368DA628A
:100C70000268D36A828B521E43EA02520368DA6228
:100C80000268926822F4007203689A6002689368AE
:100C900090F8302043EA422203689A600268926822
:100CA00022F4806203689A6002689368426943EAAA
:100CB000822203689A607047002301400100000F00
:100CC00000BFFEE710B5294800682949884205D9C8
:100CD00027485438006800F020001BE023480068D3
:100CE0002449884205D922485838006800F020007D
:100CF00010E01E4800681F496039884205D91D4828
:100D0000B838406800F0200004E01A48B83800689D
:100D100000F0200040B3154800681549884204D906
:100D2000202013494C39086018E010480068114928
:100D3000884204D920200E49503908600EE00B4843
:100D400000680C496039884204D920200949B83923
:100D5000C86003E020200749B83988600648006869
:100D600010B105480068804710BD000098040020BD
:100D700058640240B86002405400002009480068EE
:100D800000F0200060B101200749087000BF05484D
:100D90000830006840F0200002490831086000BFB8
:100DA00070470000046402405000002070470000BB
:100DB00070B504461D460023B5F5804F13D154F895
:100DC00022300C480340D1E9000640EA06108E6844
:100DD00040EA06208E8940EA06408E69304303438C
:100DE00044F8223003E06FF0704044F82200002005
:100DF00070BD00000000F0CF10B503460022086867
:100E000053F8202012480240D1E901042043CC6865
:100E100020430C6920434C6920438C692043CC69F2
:100E200020430C6A20434C6A20438C6A2043CC6ADE
:100E30002043CC6B20430C6B204302438868082876
:100E400001D142F04002086843F82020002010BD84
:100E50008000F0FF30B503460024501C53F82040BA
:100E600004F04044D1E9000540EA05108D6840EAED
:100E700005208D8940EA0545088A401E45EA00554F
:100E8000087D801E45EA00608D6928430443501C9C
:100E900043F82040002030BD38B5024600200090C5
:100EA00000BF92F83C00012801D1022038BD01208A
:100EB00082F83C0000BF0868092816D91068C0688D
:100EC0000C780A3C04EB44050724AC40A0431468AA
:100ED000E0600C780A3C04EB44048868A040146885
:100EE000E46820431468E06013E0106800690C783F
:100EF00004EB44050724AC40A043146820610C783F
:100F000004EB44048868A0401468246920431468F2
:100F100020614868072817D21068406B0C79641E5E
:100F200004EB84051F24AC40A04314686063088868
:100F300080B20C79641E04EB8404A0401468646BD6
:100F400020431468606331E048680D2817D21068A8
:100F5000006B0C79E41F04EB84051F24AC40A04314
:100F600014682063088880B20C79E41F04EB8404C1
:100F7000A0401468246B20431468206316E01068B6
:100F8000C06A0C790D3C04EB84051F24AC40A043DF
:100F90001468E062088880B20C790D3C04EB84048C
:100FA000A0401468E46A20431468E062194B1A4CAC
:100FB0001068A04206D10868122803D1586840F48E
:100FC00080005860144C1068A0421CD1086810289A
:100FD00002D00868112816D1586840F40000586003
:100FE000086810280FD10D4800680D4CB0FBF4F0D4
:100FF00000EB80004000009002E00098401E00904E
:1010000000980028F9D100BF002082F83C0000BF02
:1010100000BF4BE7002301400020014000000020FA
:1010200040420F0001460868C06C704770B5044626
:1010300000250CB9012070BD1549A06A884200D076
:1010400000BF206C30B9204600F024F80020606416
:1010500084F83C00206C00F0100088B9206C20F46B
:10106000885040F0020020642046FFF779FD002000
:101070006064206C20F0020040F00100206400E079
:10108000012500BF002084F83C0000BF2846D2E7BD
:101090000100000F10B586B004461B492068884245
:1010A00030D100BF00BF002000901848006840F415
:1010B0008070164908600846006800F4807000904F
:1010C00000BF00BF00BF00BF00BF002000900F485E
:1010D0001438006840F001000C49143908600846D3
:1010E000006800F00100009000BF00BF00BF20209A
:1010F0000190032002900020039001A9044800F011
:1011000095F900BF06B010BD0020014044380240F0
:101110000000024070B504460D4600262068806835
:1011200000F48060B0F5806F11D12068806800F411
:101130008070B0F5807F0AD1206C40F020002064E0
:1011400000BF002084F83C0000BF012070BD00F00B
:101150008DFA064618E0681CB0B125B100F086FA99
:10116000801BA84210D92068006800F00200022805
:101170000AD0206C40F00400206400BF002084F8F6
:101180003C0000BF0320E1E72068006800F0020097
:101190000228E0D16FF0120021680860206C40F452
:1011A000007020642068806800F04050B8B9207E4C
:1011B000A8B92068C06A00F4700020B12068806877
:1011C00000F4806058B9206C20F480702064206C9A
:1011D00000F4805018B9206C40F001002064002019
:1011E000B4E7000008B501460020009000BF91F868
:1011F0003C00012801D1022008BD012081F83C00FB
:1012000000BF0868806800F00100A0B90868806825
:1012100040F001000B6898603F4800683F4BB0FB0E
:10122000F3F000EB4000009002E00098401E0090B8
:1012300000980028F9D10868806800F001000028B3
:1012400060D0086C40F20163984340F480700864F9
:101250000868406800F4806028B1086C20F40050F1
:1012600040F480500864086C00F48050B0F5805F52
:1012700004D1486C20F00600486401E00020486476
:1012800000BF002081F83C0000BF254A6FF022001B
:101290000B681860506800F01F0018BB214B0868ED
:1012A000984213D0204B0868984204D1101D006862
:1012B00000F01F0050B11D4B086898422AD1184811
:1012C000001D006800F01F00102823D20868806805
:1012D00000F04050F0B90868806840F080400B682A
:1012E000986017E00F4B0868984213D1086880682F
:1012F00000F0405070B90868806840F080400B688A
:10130000986007E0086C40F010000864486C40F0FA
:101310000100486400206FE70000002040420F00F9
:101320000023014000200140002101400022014033
:1013300070B50446A56D00F099F9064694F835009D
:10134000022808D08020606500BF002084F83400A7
:1013500000BF012070BD2068006820F016002168E1
:1013600008602068406920F0800021684861206C96
:1013700008B9A06C28B12068006820F00800216836
:1013800008602068006820F00100216808600FE014
:1013900000F06CF9801B05280AD92020606500BF89
:1013A000002084F8340000BF032084F83500D1E722
:1013B0002068006800F001000028E9D194F85C1072
:1013C0003F208840A86000BF002084F8340000BFA0
:1013D000012084F835000020BCE7014691F8350073
:1013E000022803D08020486501207047052081F83D
:1013F00035000868006820F001000A6810600020CD
:10140000F3E7000070B5044600F030F906462546C3
:10141000681C10B104480078054400BF00F026F9AC
:10142000801BA842FAD370BD44000020F8B50246E4
:101430000B460025002400200021DEE0012606FAEC
:1014400001F51E6806EA0504AC4275D11E7906F066
:101450000306012E04D01E7906F00306022E13D1D6
:1014600090684F000326BE40B0434F00DE68BE4088
:1014700030439060506801268E40B0431E79C6F319
:1014800000168E40304350601E7906F00306032E8E
:1014900009D0D0684F000326BE40B0434F009E687D
:1014A000BE403043D0601E7906F00306022E13D1F1
:1014B000CF0802F1200656F827004E07F70E0F2638
:1014C000BE40B0434F07FF0E1E69BE403043CF08F9
:1014D00002F1200646F8270010684F000326BE40A0
:1014E000B0431E7906F003064F00BE403043106043
:1014F0005E6806F08056B6F1805F7DD100BF0026A1
:101500000096404E366846F480463E4F3E603E466A
:10151000366806F48046009600BF00BF3A4E8F083A
:1015200056F827008E07370F0F26BE40B043374EC0
:10153000B24202D1002624E05EE0354EB24201D133
:1015400001261EE0334EB24201D1022619E0324E8E
:10155000B24201D1032614E0304EB24201D104263A
:101560000FE02F4EB24201D105260AE02D4EB242C5
:1015700001D1062605E02C4EB24201D1072600E03B
:1015800008268F073F0FBE4030431F4E8F0846F896
:101590002700264E3068A0435E6806F48036B6F514
:1015A000803F00D12043214E3060361D3068A0437B
:1015B0005E6806F40036B6F5003F00D120431B4EAE
:1015C000361D3060361D3068A0435E6806F4801614
:1015D000B6F5801F00D12043144E08363060361D0A
:1015E0003068A0435E6806F40016B6F5001F00D10F
:1015F00020430E4E0C363060491C1029FFF41EAFFC
:10160000F8BD0000443802400838014000000240A4
:101610000004024000080240000C0240001002409A
:101620000014024000180240001C0240003C01402F
:10163000024613690B400BB1012000E00020704707
:1016400010B5426921EA020302EA010443EA0443B5
:10165000836110BD0AB1816101E00B0483617047B1
:1016600001480068000C7047002004E00148006851
:10167000704700003C0000200348006803490978D7
:1016800008440149086070473C00002044000020E5
:1016900010B50A48006840F4007008490860084620
:1016A000006840F480600860032000F07FF80F209D
:1016B00000F006F800F02AF8002010BD003C0240BF
:1016C00070B504460E4800784FF47A71B1FBF0F023
:1016D0000C490968B1FBF0F5284601F085FF08B117
:1016E000012070BD102C07D200222146501E00F0B0
:1016F0001EF80548046001E00120F2E70020F0E751
:1017000044000020000000204000002070470146F7
:101710000846002809DB00F01F0301229A40430914
:101720009B0003F1E023C3F8002100BF70472DE9BF
:10173000F05F80460D461646002704F035F907464F
:1017400039462A46334601F00700C0F1070ABAF1CC
:10175000040F02D94FF0040A01E0C0F1070AD14694
:1017600000F1040ABAF1070F02D24FF0000A01E0BB
:10177000A0F1030AD4464FF0010A0AFA09FAAAF1C5
:10178000010A0AEA020A0AFA0CFA4FF0010B0BFAF4
:101790000CFBABF1010B0BEA030B4AEA0B042146ED
:1017A000404604F009F9BDE8F09F000000BF00F0DA
:1017B0000702064B19684FF6FF031940044B0B4311
:1017C00043EA0221014B196000BF70470CED00E0B5
:1017D0000000FA0508B501200349086203480068C3
:1017E000009000BF08BD000000000E4200700040E5
:1017F000F8B5044600250026207800F0010020B945
:10180000207800F0040004282FD100205B4988666E
:10181000FFF72CFF054606E0FFF728FF401B0228D4
:1018200001D90320F8BD56480068C0F3C060002805
:10183000F2D160688101207A41EA00705049843118
:10184000086001204D498866FFF710FF054606E055
:10185000FFF70CFF401B022801D90320E2E74848AC
:101860000068C0F3C0600028F2D0207800F00200C9
:1018700002287DD100BF0020009041484030006820
:1018800040F080503E49403108600846006800F052
:101890008050009000BF00BF3A48006840F480705C
:1018A00038490860FFF7E2FE054606E0FFF7DEFE76
:1018B000401B022801D90320B4E73248006800F435
:1018C00080700028F2D02E487030006800F4407616
:1018D0004EB3A08900F44070B04224D02848703044
:1018E000006820F440760120274908600020086045
:1018F000234870300660006800F0010098B1FFF7DF
:10190000B5FE054608E0FFF7B1FE401B41F2883105
:10191000884201D9032085E7194870300068C0F378
:1019200040000028EFD000BFA08900F44070B0F55F
:10193000407F0CD112480830006820F4F810134A98
:10194000E168114008430E490831086007E00C487F
:101950000830006820F4F810094908310860084888
:1019600070300068A189C1F30B010843044900E00D
:1019700002E07031086000BF002053E700004742DA
:101980000038024000700040400E4742FFFCFF0F4D
:1019900070B504460D460CB9012070BD584800686A
:1019A00000F00700A84209D255490D7008460068AA
:1019B00000F00700A84201D00120EEE7207800F0F7
:1019C000020002281DD1207800F00400042805D16F
:1019D0004C48006840F4E0504A490860207800F024
:1019E0000800082805D14748006840F46040454990
:1019F00008604448006820F0F000A16808434149AD
:101A00000860207800F00100A8B36068012807D1C1
:101A10003C4808380068C0F34040B8B90120BCE732
:101A20006068022802D06068032807D1354808386A
:101A30000068C0F3406048B90120AEE7314808387B
:101A40000068C0F3400008B90120A6E72D480068EF
:101A500020F00300616808432A490860FFF706FE8A
:101A6000064609E0FFF702FE801B41F288318842FA
:101A700002D9032091E707E02248006800F00C003B
:101A80006168B0EB810FEDD11D48006800F00700E0
:101A9000A84209D91A490D700846006800F00700ED
:101AA000A84201D0012078E7207800F00400042843
:101AB00007D11448006820F4E050E1680843114958
:101AC0000860207800F00800082808D10D48006858
:101AD00020F46040216940EAC1000A49086000F032
:101AE0003FF808490968C1F30311074A515CC8402F
:101AF0000649086006480068FFF7E2FD00204CE751
:101B0000003C024008380240240401080000002084
:101B100040000020014800687047000000000020DD
:101B200000B5FFF7F7FF04490968C1F38221034AB2
:101B3000515CC84000BD0000083802403404010870
:101B400000B5FFF7E7FF04490968C1F34231034AD2
:101B5000515CC84000BD0000083802403404010850
:101B60002DE9F047002400250026A14625480068FD
:101B700000F00C0020B1042805D008283AD105E077
:101B8000DFF8849039E0DFF8849036E01D48001FCC
:101B9000006800F03F041B48001F006800F480004C
:101BA00078B11A481749091F0968C1F38811A0FBC9
:101BB00001700146224600233846FEF7C6FB054663
:101BC0000EE011480F49091F0968C1F38811A0FBF5
:101BD00001700146224600233846FEF7B6FB054653
:101BE0000848001F0068C0F30140401C4600B5FBD8
:101BF000F6F902E0DFF8109000BF00BF4846BDE8EC
:101C0000F0870000083802400024F40000127A0037
:101C1000F8B504460CB90120F8BD207800F00100A9
:101C2000002874D0F948006800F00C0004280DD09A
:101C3000F648006800F00C00082813D1F348001F94
:101C4000006800F48000B0F5800F0BD1EF48083831
:101C50000068C0F34040002859D06068002856D181
:101C60000120D9E700BF6068B0F5803F08D1E748A0
:101C70000838006840F48030E449083908601EE004
:101C80006068B0F5A02F0DD1E0480838006840F436
:101C90008020DE49083908600846006840F480303A
:101CA00008600CE0D9480838006820F48030D74933
:101CB000083908600846006820F48020086000BFEA
:101CC000606890B1FFF7D2FC054606E0FFF7CEFC56
:101CD000401B642801D903209EE7CC4808380068DF
:101CE000C0F340400028F1D011E0FFF7BFFC0546EB
:101CF00006E0FFF7BBFC401B642801D903208BE7FB
:101D0000C24808380068C0F340400028F1D120786C
:101D100000F0020002285FD1BC48006800F00C000F
:101D200058B1BA48006800F00C0008281CD1B74828
:101D3000001F006800F48000B0B9B448083800689B
:101D4000C0F3400020B1E068012801D0012063E722
:101D5000AE480838006820F0F800216940EAC10068
:101D6000AA490839086037E0E06800B30120A849B3
:101D70000860FFF77BFC054606E0FFF777FC401B99
:101D8000022801D9032047E7A04808380068C0F3BB
:101D900040000028F1D09D480838006820F0F80085
:101DA000216940EAC10099490839086014E000201F
:101DB00097490860FFF75AFC054606E0FFF756FC16
:101DC000401B022801D9032026E790480838006804
:101DD000C0F340000028F1D1207800F00800082866
:101DE0002CD16069A8B101208A490860FFF73EFC48
:101DF000054606E0FFF73AFC401B022801D9032004
:101E00000AE782486C300068C0F340000028F1D037
:101E100014E000207F490860FFF728FC054606E033
:101E2000FFF724FC401B022801D90320F4E6774881
:101E30006C300068C0F340000028F1D1207800F039
:101E40000400042870D1002770483830006800F082
:101E5000805090B900BF002000906C483830006876
:101E600040F080506949383108600846006800F049
:101E70008050009000BF00BF01276748006800F451
:101E80008070B0B96448006840F4807062490860AE
:101E9000FFF7ECFB054606E0FFF7E8FB401B0228D6
:101EA00001D90320B8E65C48006800F4807000287F
:101EB000F2D000BFA068012808D1544868300068FB
:101EC00040F001005149683108601DE0A068052814
:101ED0000DD14E486830006840F004004B4968312D
:101EE00008600846006840F0010008600CE04748C0
:101EF0006830006820F001004449683108600846F5
:101F0000006820F00400086000BFA068A8B1FFF7D7
:101F1000ADFB054609E0FFF7A9FB401B41F2883104
:101F2000884202D9032077E626E038486830006806
:101F3000C0F340000028EED013E0FFF797FB054602
:101F400008E0FFF793FB401B41F28831884201D93A
:101F5000032061E62D4868300068C0F34000002887
:101F6000EFD1012F07D129483830006820F0805088
:101F700026493831086000BFA069002845D02348B1
:101F8000006800F00C0008285DD0A069022845D147
:101F900000201F490866FFF769FB054606E0FFF7CA
:101FA00065FB401B022801D9032035E61748083895
:101FB0000068C0F340600028F1D1D4E9070108436C
:101FC000616A40EA81110122A06AC2EB500041EA35
:101FD00000412C20005D41EA00600C49091F0860A7
:101FE00001200B490866FFF741FB054606E0FFF7B5
:101FF0003DFB401B022801D903200DE603480838A9
:102000000068C0F340600028F1D049E00838024081
:1020100000004742800E47420070004000202149E6
:102020000866FFF723FB054606E0FFF71FFB401B92
:10203000022801D90320EFE51B480068C0F3406087
:102040000028F2D12CE0A069012800D1E4E516486F
:10205000001D0668A069012820D006F48001E0690F
:1020600081421BD106F03F01206A814216D147F61A
:10207000C0703040616AB0EB811F0FD106F440316F
:102080000122A06AC2EB5000B1EB004F06D106F06E
:1020900070612C20005DB1EB006F01D00120BBE529
:1020A0000020B9E500004742003802407047024670
:1020B0000023106800F1500303EB81031868704798
:1020C00010B50023046804F1500303EB81031A6088
:1020D00010BD000010B5044600BF4FF480610248F7
:1020E000FFF7AEFA00BF10BD0014024010B5044661
:1020F0002068C068C0F3802050B12046FFF7EAFF97
:102100002068C06800F0800060F490602168C860BA
:102110004FF48000024908600120607710BD000084
:10212000143C014010B5044601A0FEF785F910BD2E
:10213000414C41524D2041210D0A000010B504468A
:1021400020688068C0F3003078B12068C068C0F3B0
:10215000002050B12046FFF7E5FF2068C06800F07E
:10216000800060F4C0702168C86020688068C0F397
:10217000403078B12068C068C0F3402050B120469C
:10218000FFF794FF2068C06800F0800060F42070C2
:102190002168C8604FF40030024908600120607770
:1021A00010BD0000143C014070B505460B461646B4
:1021B0000024286840680E4900EA0104200CD87009
:1021C000C4F30420587004F03F009870C4F3423008
:1021D00018705EB9D87802F007F8D870587802F015
:1021E00003F85870987801F0FFFF9870002070BDD8
:1021F0003FFFFF0070B504460B46164600252068D9
:10220000806A586020680069C0F30E0098602068FA
:1022100000680F4900EA0105C5F305401870C5F3D1
:102220000620587005F07F00987005F48000000CBF
:10223000D8705EB9187801F0D7FF1870587801F09F
:10224000D3FF5870987801F0CFFF9870002070BDD0
:102250007F7F7F0010B504460CB9012010BD607F60
:1022600020B900202077204600F060F80220607737
:1022700000BFCA202168486253202168486200BF1D
:10228000204601F0C9FF40B100BFFF20216848622D
:1022900000BF042060770120E0E7206880682249C1
:1022A00008402168886021696068084361690843C3
:1022B000216889680843216888602168E0680861AE
:1022C00020680169208941EA00402168086120688E
:1022D000C06820F080002168C8602068806800F035
:1022E000200060B9204600F09DF940B100BFFF20FA
:1022F0002168486200BF042060770120AEE72068B3
:10230000006C20F48020216808642068006CA169BA
:1023100008432168086400BFFF202168486200BFAD
:1023200001206077002099E7BFFF8FFF30B591B0A3
:102330000546C82401202D490860FFF74BFA00BF6D
:10234000002000902A48006840F08050284908602A
:102350000846006800F08050009000BF00BF0120D8
:102360002249086022483030006840F001002049CE
:102370003031086004E0601E84B2052003F042FFA3
:1023800034B11B483030006800F002000028F2D061
:10239000ACB90820059001200A9000200B9005A8F8
:1023A000FFF736FC022001900002049001A8FFF71D
:1023B0001FFA45F2510100200BF03EFA14E0042010
:1023C000059000200B900120079005A8FFF720FC46
:1023D00002200190C001049001A8FFF709FA45F21C
:1023E000500100200BF028FA11B030BD3C0E4742DE
:1023F000403802402DE9F04104460D4616460027BC
:1024000000BF207F012802D10220BDE8F081012019
:10241000207700BF022060774EB9687800F0100086
:10242000102804D1687800F0EF000A30687086B98F
:10243000E87801F0E4FE0304687801F0E0FE43EA86
:102440000023A87801F0DBFE0343287843EA4037F5
:1024500009E0E8780004697840EA0120A978084397
:10246000297840EA413700BFCA20216848625320DA
:102470002168486200BF204601F0CEFE60B100BF77
:10248000FF202168486200BF0420607700BF002061
:10249000207700BF0120B8E716483840216848601F
:1024A0002068C06820F080002168C86020688068CB
:1024B00000F0200080B9204600F0B4F860B100BF01
:1024C000FF202168486200BF0420607700BF002021
:1024D000207700BF012098E700BFFF2021684862F5
:1024E00000BF0120607700BF0020207700BF00BF41
:1024F0008BE700003FFFFF002DE9F04104460D4649
:102500001646002700BF207F012802D10220BDE827
:10251000F0810120207700BF02206077CEB92068CB
:10252000806800F0400000B102E00020E87000BFC9
:10253000287801F064FE0304687801F060FE43EA45
:102540000023A87801F05BFE0343E87843EA0047E4
:1025500012E02068806800F0400000B102E0002036
:10256000E87000BF28780004697840EA0120A97863
:102570000843E97840EA014700BFCA202168486261
:1025800053202168486200BF204601F045FE60B13B
:1025900000BFFF202168486200BF0420607700BFB1
:1025A0000020207700BF0120B1E71D483840216896
:1025B00008602068806820F4802021688860D5E960
:1025C00003010843216889680843216888602068FE
:1025D000C06820F080002168C8602068806800F032
:1025E000200080B9204600F01DF860B100BFFF2038
:1025F0002168486200BF0420607700BF0020207778
:1026000000BF012083E700BFFF202168486200BFB0
:102610000120607700BF0020207700BF00BF76E771
:102620007F7F7F0070B5044600252068C06820F0D9
:10263000A0002168C860FFF719F8054607E0FFF71A
:1026400015F8401BB0F57A7F01D9032070BD2068D2
:10265000C06800F020000028F1D00020F6E700005C
:10266000F0B589B004460E460027032084F83400F4
:10267000606C032820D0B6F5805F04D1A06B40F0D9
:102680008050A0631CE0B6F5006F07D1204602F031
:10269000DFFB0546A06B2843A06311E03EB920464E
:1026A00002F0A2FB0546A06B2843A06308E0A06BE4
:1026B00040F00060A06303E0A06B40F08050A06396
:1026C000A06B38B1174821688863012084F8340072
:1026D000012713E060680390A0680490E06805900B
:1026E000069660690790A069089006A807C88DE85B
:1026F0000700206803A90EC901F0DBFD4FF400714B
:10270000206801F051FE054635B10648216888630E
:10271000A06B2843A0630127012084F834003846C9
:1027200009B0F0BDFF05400010B50246506E800FA5
:102730000870506EC0F383604870506EC0F3016043
:102740008870506E000CC870B2F86400000A0871FE
:1027500092F864004871906E000DC880906EC0F3CE
:10276000034008726820805AC0F3C0304872682065
:10277000805AC0F3803088726820805AC0F340309D
:10278000C8726820805AC0F3003008730020487374
:10279000506C002836D16820805A8005030DD06E19
:1027A00043EA90700861D06EC0F3C2600875D06EC5
:1027B000C0F302604875D06EC0F342508875D06E89
:1027C000C0F38240C875D06EC0F3C2300876086985
:1027D000401C50650B7E506D03F007039B1C0124C9
:1027E0009C4060435065087A00F00F030120984038
:1027F0009065D2E915035B0A5843D0654FF4007326
:10280000136621E0506C012813D16820805C80069B
:10281000830AD06E43EA104008610869401C8302B5
:102820005365536DD3654FF400739365936D1366D1
:102830000AE02E4813689863906B40F080509063D4
:10284000012082F8340010BD6C20805AC0F3803023
:1028500001F8190F6C20805AC0F3C61048706C2024
:10286000805C00F07F008870106FC00FC870106F20
:10287000C0F341700871106FC0F382604871106F2F
:10288000C0F383508871106FC0F34050C8710020AE
:102890000872106FC0F3004048727020805AC0F375
:1028A000C03088727020805AC0F38030C8727020A7
:1028B000805AC0F3403008737020805AC0F3003053
:1028C00048737020805AC0F3812088737020805A2A
:1028D000C0F30120C8737020805CC0F34600087408
:1028E0000120487419390020ADE70000FF054000C1
:1028F0000246506C0860906C4860D06C8860106D27
:10290000C860506D0861906D4861D06D8861106E2F
:10291000C86100207047F8B5044600200090694661
:10292000204602F049FA054615B1A06B2843A06382
:102930000098C0F343263046F8BD10B504460CB9E4
:10294000012010BD94F8340020B9002020772046E3
:1029500000F068F8032084F83400204600F00CF8FA
:1029600008B10120EDE70020A0632063012084F876
:1029700034000020E5E7000070B58AB0044600206E
:10298000049005900690079008907620099007A87B
:1029900007C88DE80700206804A90EC901F089FC6A
:1029A000064616B101200AB070BD00201B49086020
:1029B000206801F098FC01201849A039C1F8A00056
:1029C000204602F093F905463DB1012084F8340019
:1029D000A06B2843A0630120E5E7204602F005F93B
:1029E00005463DB1012084F83400A06B2843A06364
:1029F0000120D8E74FF40071206801F0D5FC0546AE
:102A00004DB1074821688863A06B2843A06301206B
:102A100084F83400C7E70020C5E70000A080254205
:102A2000FF05400010B586B0044600BF00200090AE
:102A30005348006840F40060514908600846006847
:102A400000F40060009000BF00BF00BF00BF002086
:102A500000904B481438006840F00400484914398D
:102A600008600846006800F00400009000BF00BF46
:102A700000BF00BF00BF002000900846006840F083
:102A8000040008600846006800F00400009000BFE1
:102A900000BF00BF00BF00BF0020009008460068D4
:102AA00040F0040008600846006800F00400009050
:102AB00000BF00BF00BF00BF00BF0020009008465D
:102AC000006840F0040008600846006800F0040058
:102AD000009000BF00BF00BF00BF00BF00200090FB
:102AE0000846006840F0040008600846006800F0EE
:102AF0000400009000BF00BF00BF00BF00BF002067
:102B000000900846006840F0080008600846006829
:102B100000F00800009000BF00BF00BF88150190C2
:102B20000220029001200390022004900C200590C6
:102B300001A91448FEF77AFC4FF40070019001A936
:102B40001048FEF773FC4FF48060019001A90D4816
:102B5000FEF76CFC4FF40060019001A90948FEF7F4
:102B600065FC4FF48050019001A90648FEF75EFC19
:102B70000420019001A90448FEF758FC06B010BDDE
:102B80004438024000080240000C02402DE9FF4F8B
:102B900089B004468B469946DDF858A0FEF766FDDD
:102BA00002900B9800905D46BBF1000F07D1A06B1F
:102BB00040F00060A06301200DB0BDE8F08F94F8F4
:102BC000340001287ED10020A063009800EB0901A9
:102BD000E06D814205D9A06B40F00070A063012038
:102BE000EAE7032084F8340000202168C862606CA2
:102BF000012802D00098400200904FF0FF3003906F
:102C00004FEA492004909020059002200690002071
:102C100007900120089003A9206801F025FBB9F175
:102C2000010F07D9022020632068009901F024FCDD
:102C3000804606E0012020632068009901F038FCFE
:102C40008046B8F1000F0DD0754821688863A06BED
:102C500040EA0800A063012084F8340000202063CB
:102C60000120A9E7049E3AE02068406B00F4004090
:102C7000E0B1DEB10020019015E0206801F03CFBDE
:102C800007462F706D1C761E380A28706D1C761E44
:102C9000380C28706D1C761E380E28706D1C761E40
:102CA0000198401C019001980828E6D3FEF7DEFC4D
:102CB0000299401A504502D2BAF1000F0FD158487C
:102CC000216800E0A6E08863A06B40F00040A063AC
:102CD000012084F834000020206303206CE7206882
:102CE000406B40F22A3108400028BDD02068406B7C
:102CF00000F48070D0B1B9F1010F17D9606C0328CE
:102D000014D0206801F094FC8046B8F1000F0DD07B
:102D1000434821688863A06B40EA0800A063012053
:102D200084F8340000202063012045E72068406BD0
:102D300000F0080068B13A4821688863A06B40F051
:102D40000800A063012084F83400002020630120E3
:102D500032E72068406B00F0020068B1304821681B
:102D60008863A06B40F00200A063012084F8340067
:102D70000020206301201FE72068406B00F0200046
:102D800068B1274821688863A06B40F02000A063E9
:102D9000012084F834000020206301200CE729E0A2
:102DA000206801F0A9FA07462F706D1C761E380ABC
:102DB00028706D1C761E380C28706D1C761E380E1F
:102DC00028706D1C761EFEF751FC0299401A504582
:102DD00002D2BAF1000F0DD1114821688863A06BAF
:102DE00040F00040A063012084F8340000202063FC
:102DF0000120E1E62068406B00F4001008B1002ECD
:102E0000CED140F23A5021688863012084F8340022
:102E10000020D1E6A06B40F00050A0630120CBE67B
:102E2000FF0540002DE9F04F89B0044689469346DE
:102E30009846FEF71BFC0290DA464D46B9F1000FAA
:102E400007D1A06B40F00060A063012009B0BDE88D
:102E5000F08F94F8340001287ED10020A0630AEBA3
:102E60000801E06D814205D9A06B40F00070A063BD
:102E70000120EBE7032084F8340000202168C862B9
:102E8000606C012801D04FEA4A2A4FF0FF300390CE
:102E90004FEA48200490902005900020069007906B
:102EA0000120089003A9206801F0DEF9B8F1010FB4
:102EB00007D9202020635146206801F0D7FB064641
:102EC00006E0102020635146206801F0EBFB064627
:102ED00066B15F4821688863A06B3043A06301201E
:102EE00084F83400002020630120AFE7049F43E012
:102EF0002068406B00F4804030B32FB30020019075
:102F00001FE0287800906D1C7F1E2878009941EA08
:102F1000002000906D1C7F1E2878009941EA004037
:102F200000906D1C7F1E2878009941EA0060009097
:102F30006D1C7F1E6946206801F0F6F90198401C5F
:102F4000019001980828DCD3FEF790FB0299411A02
:102F50001298814203D200E074E0129860B93C48B4
:102F600021688863A06B3043A063012084F834009B
:102F700000202063032069E72068406B40F21A318B
:102F800008400028B4D02068406B00F48070B8B1CD
:102F9000B8F1010F14D9606C032811D0206801F03A
:102FA00047FB064666B12A4821688863A06B304318
:102FB000A063012084F8340000202063012045E74D
:102FC0002068406B00F0080068B1214821688863E0
:102FD000A06B40F00800A063012084F834000020BA
:102FE0002063012032E72068406B00F0020068B1E6
:102FF000174821688863A06B40F00200A06301209D
:1030000084F834000020206301201FE72068406B13
:1030100000F0100068B10E4821688863A06B40F092
:103020001000A063012084F83400002020630120F8
:103030000CE740F23A5021688863012084F834009C
:10304000002003E7A06B40F00050A0630120FDE6E4
:10305000FF05400010B504460CB9012010BD606AA0
:1030600038B96068B0F5827F00D105E00021E161E8
:1030700002E0002121616161A06AB0F5005F00D12A
:1030800000BF94F8510028B9002084F85000204671
:1030900000F050F8022084F851002068006820F009
:1030A000400021680860A08800F48270218901F442
:1030B00004410843A18901F400610843217C01F027
:1030C00002010843217D01F001010843218B01F435
:1030D00000710843217F01F0380108432021095D78
:1030E00001F080010843218D01F40051084321685B
:1030F00008600421A06901EA104094F8241001F04E
:103100001001084321684860A06AB0F5005F03D150
:10311000A08D80B2216808612068C06920F4006039
:103120002168C86100206065012084F851000020FA
:1031300094E7000010B586B004462A49206888420A
:103140004DD100BF00BF002000902748006840F02C
:103150000200254908600846006800F0020000905F
:1031600000BF00BF00BF00BF00BF002000900846A6
:10317000006840F0020008600846006800F00200A5
:10318000009000BF00BF00BF00BF00BF0020009044
:103190000846006840F0020008600846006800F039
:1031A0000200009000BF00BF00BF08200190022075
:1031B000029001200390022004900520059001A9AF
:1031C0000A48FEF733F91020019001A90748FEF7DD
:1031D0002DF92020019001A90448FEF727F906B037
:1031E00010BD0000003001403038024000040240B1
:1031F0002DE9F04F85B00446884691461D460E9E47
:1032000000200490012002900020019000BF94F85B
:103210005000012803D1022005B0BDE8F08F012045
:1032200084F8500000BFFEF721FA074694F851B029
:1032300060680390AA46BBF1010F0BD00398B0F56C
:10324000827F04D1A06810B9BBF1040F02D0022024
:1032500001902CE1B8F1000F03D0B9F1000F00D0BC
:1032600015B90120019022E194F85100042802D000
:10327000052084F8510000206065C4F83890E58787
:10328000A587C4F83080E586A58620646064A06ABE
:10329000B0F5005F0DD100BF2068006820F4005039
:1032A000216808602068006840F4005021680860C8
:1032B00000BF2068006800F04000402805D020686A
:1032C000006840F0400021680860E068B0F5006FD9
:1032D00056D1606810B1BAF1010F09D1206B008896
:1032E0002168C860206B801C2063E08E401EE08651
:1032F0003FE02068806800F0020002281CD1E08EC8
:10330000D0B10298012817D1206B00882168C860CD
:10331000206B801C2063E08E401EE086002002901F
:10332000E08E48B9A06AB0F5005F05D1206800685A
:1033300040F48050216808602068806800F0010037
:1033400068B1E08F58B12068C068A16B0880A06B9D
:10335000801CA063E08F401EE08701200290FEF7F2
:1033600085F9C01BB04204D3701C10B1032001903A
:103370009DE0E08E0028BCD1E08F0028B9D156E056
:10338000606810B1BAF1010F09D1206B0078216893
:103390000873206B401C2063E08E401EE08640E0F6
:1033A0002068806800F0020002281CD1E08ED0B1B5
:1033B0000298012817D1206B007821680873206BD0
:1033C000401C2063E08E401EE08600200290E08ECC
:1033D00048B9A06AB0F5005F05D12068006840F4E4
:1033E0008050216808602068806800F0010068B1A2
:1033F000E08F58B12068C068A16B0870A06B401CBA
:10340000A063E08F401EE08701200290FEF72EF9B6
:10341000C01BB04201D3701C00B916B90320019043
:1034200045E0E08E0028BBD1E08F0028B8D1A06A2B
:10343000B0F5005F12D133460122114620460097B5
:1034400001F070FD30B1606D40F002006065032056
:1034500001902CE02068C068049000BF206880685C
:1034600000F01000102809D1606D40F00200606586
:103470004FF6EF7021688860012001903A4631468E
:10348000204601F019FD20B1012001902020606547
:103490000DE0A06850B900BF002000902068C0680F
:1034A000009020688068009000BF00BF00BF01202E
:1034B00084F8510000BF002084F8500000BF01983C
:1034C000AAE670B504460E4615460CB9012070BD3B
:1034D00094F8490028B9002084F84800204600F0FC
:1034E0001DF804F108012068FDF786FC3146A2684A
:1034F0002068FDF7AFFC2946236BD4E90102FDF7F4
:1035000057FCA168206850F8210040F00100A26833
:10351000216841F822000020D9E7000010B586B0EC
:10352000044600BF002000902248006840F00100DF
:10353000204908600846006800F00100009000BFC4
:1035400000BF00BF002000901A480838006840F013
:1035500008001849083908600846006800F00800AB
:10356000009000BF00BF00BF002000900846006828
:1035700040F0100008600846006800F0100000905D
:1035800000BF00BF4CF203700190022002900120A6
:103590000390022004900C20059001A90648FDF735
:1035A00045FF4FF68070019001A90448FDF73EFFEA
:1035B00006B010BD38380240000C02400010024036
:1035C000042808D14FF0E021096941F004014FF0CF
:1035D000E022116107E04FF0E021096921F00401C8
:1035E0004FF0E0221161704770B504462546681E11
:1035F000B0F1807F01D301200FE0681E4FF0E02181
:1036000048610F214FF0FF3002F0D6F900204FF053
:10361000E021886107200861002070BD7047704775
:1036200010B504460CB9012010BD94F83D0028B92E
:10363000002084F83C00204600F026F8022084F8A0
:103640003D00211D206801F07DFD012084F8460029
:1036500000BF84F83E0001213F2001554020015564
:103660004120015500BF00BF012084F842004320E3
:103670000155442001554520015500BF012084F823
:103680003D000020D0E7000038B504460F4920680F
:10369000884219D100BF00BF002000900C4800688C
:1036A00040F010000A4908600846006800F0100069
:1036B000009000BF00BF00BF032201213620FEF7AB
:1036C00036F83620FEF723F838BD00000010004021
:1036D00040380240014691F83D00012801D0012008
:1036E0007047022081F83D000868C06840F0010082
:1036F0000B68D8601A4B086898421BD00868B0F174
:10370000804F17D0174B0868984213D0164B0868A3
:1037100098420FD0154B086898420BD0144B08689C
:10372000984207D0134B0868984203D0124B0868A0
:1037300098420CD10868806800F00702062A0CD075
:103740000868006840F001000B68186005E0086830
:10375000006840F001000B6818600020C0E700001E
:10376000000001400004004000080040000C004040
:10377000000401400040014000180040704710B5AF
:10378000044620680069C0F34000D8B12068C068D2
:10379000C0F34000B0B16FF0020021680861012061
:1037A00020772068806900F0030018B12046FFF7F9
:1037B000E5FF05E0204600F0ADF8204600F0A0F956
:1037C0000020207720680069C0F38000D8B120680D
:1037D000C068C0F38000B0B16FF0040021680861D8
:1037E000022020772068806900F4407018B12046DC
:1037F000FFF7C4FF05E0204600F08CF8204600F0FB
:103800007FF90020207720680069C0F3C000D8B19C
:103810002068C068C0F3C000B0B16FF00800216834
:103820000861042020772068C06900F0030018B107
:103830002046FFF7A3FF05E0204600F06BF8204686
:1038400000F05EF90020207720680069C0F30010C6
:10385000D8B12068C068C0F30010B0B16FF010009C
:1038600021680861082020772068C06900F4407052
:1038700018B12046FFF782FF05E0204600F04AF825
:10388000204600F03DF9002020772068006900F014
:10389000010058B12068C06800F0010030B16FF03D
:1038A000010021680861204600F0B2F92068006933
:1038B000C0F3C01058B12068C068C0F3C01030B168
:1038C0006FF08000216808612046FFF7A7FE20689E
:1038D0000069C0F3801058B12068C068C0F3801040
:1038E00030B16FF0400021680861204600F0C4F953
:1038F00020680069C0F3401058B12068C068C0F368
:10390000401030B16FF02000216808612046FFF7B9
:1039100086FE10BD704770B504460D46164600BFC2
:1039200094F83C00012801D1022070BD012084F8E8
:103930003C0000BF36B1042E1BD0082E31D00C2E17
:103940005ED145E02946206801F07AFC2068806954
:1039500040F00800216888612068806920F0040038
:103960002168886120688069296908432168886125
:1039700047E02946206801F09BFC2068806940F4FC
:103980000060216888612068806920F48060216877
:10399000886120688069296940EA0120216888617E
:1039A0002FE02946206801F0C1FC2068C06940F082
:1039B00008002168C8612068C06920F004002168FF
:1039C000C8612068C069296908432168C86118E096
:1039D0002946206801F0E6FC2068C06940F40060D8
:1039E0002168C8612068C06920F480602168C861CE
:1039F0002068C069296940EA01202168C86100E0A7
:103A000000BF00BF00BF002084F83C0000BF00BF23
:103A10008BE710B504460CB9012010BD94F83D00A9
:103A200028B9002084F83C00204600F025F8022048
:103A300084F83D00211D206801F084FB012084F8FA
:103A4000460000BF84F83E0001213F200155402080
:103A500001554120015500BF00BF012084F84200FC
:103A600043200155442001554520015500BF012048
:103A700084F83D000020D0E710B586B004461D490B
:103A80002068884234D100BF00BF002000901A484F
:103A9000006840F02000184908600846006800F0FF
:103AA0002000009000BF00BF00BF00BF00BF00208B
:103AB000009011481030006840F480700E491031B9
:103AC00008600846006800F48070009000BF00BFE6
:103AD00000BF4815019002200290012003900220AF
:103AE00004900920059001A90448FDF79FFC00BF40
:103AF00006B010BD002000403038024000140240E3
:103B00007047000070B504460D4615B994F83E00A4
:103B10000BE0042D02D13F20005D06E0082D02D10C
:103B20004020005D01E04120005D012801D001201E
:103B300070BD1DB9022084F83E000EE0042D03D1B3
:103B400002213F20015508E0082D03D10221402029
:103B5000015502E002214120015501222946206839
:103B600001F05CFB23492068884203D02249206889
:103B7000884201D1012000E0002028B12068406C7B
:103B800040F40040216848641A49206888421BD0EC
:103B90002068B0F1804F17D018492068884213D0B0
:103BA0001749206888420FD01649206888420BD0F8
:103BB00011492068884207D013492068884203D001
:103BC0001249206888420CD12068806800F00706FE
:103BD000062E0CD02068006840F0010021680860C3
:103BE00005E02068006840F00100216808600020BE
:103BF0009EE7000000000140000401400004004076
:103C000000080040000C0040004001400018004047
:103C100010B5044614492068884224D1134800781E
:103C2000401C12490870087800EBD0714910A0EBD5
:103C30004101C1B90E48007C00F0010030B10C48D0
:103C4000007C20F001000A49087405E00848007C67
:103C500040F001000649087400BF4FF48061054838
:103C6000FDF7EEFC00BF10BD001000405A00002020
:103C700050C3012000140240704770477047000095
:103C80002DE9F84F0446206805682068C66820685A
:103C900047694FF00009CA4605F00F09B9F1000F56
:103CA0000AD105F0200038B106F0200020B12046EE
:103CB00001F0D7FBBDE8F88FB9F1000F72D007F023
:103CC000010018B906F4907000286BD005F00100CF
:103CD00030B106F4807018B1206C40F0010020640F
:103CE00005F0040030B107F0010018B1206C40F07D
:103CF0000200206405F0020030B107F0010018B1A5
:103D0000206C40F00400206405F0080048B106F083
:103D1000200010B907F0010018B1206C40F0080035
:103D20002064206C70B305F0200028B106F020005C
:103D300010B1204601F095FB20684069C0F3801A5D
:103D4000206C00F0080010B9BAF1000F23D0204613
:103D500001F05CFB2068406900F04000402816D16B
:103D60002068406920F0400021684861A06B50B194
:103D70005648A16B0865A06BFDF72FFB10B1A06B37
:103D8000016D88470CE02046FFF778FF08E02046E9
:103D9000FFF774FF04E02046FFF770FF0020206467
:103DA00088E7FFE7206B012879D105F01000002893
:103DB00075D006F01000002871D000BF00200090E0
:103DC00020680068009020684068009000BF00BF35
:103DD0002068406900F04000402839D1A06B00689D
:103DE00040681FFA80F8B8F1000F30D0A08D404530
:103DF0002DDDA4F82E80A06BC069B0F5807F1FD0A8
:103E00002068C06820F480702168C860206840691C
:103E100020F00100216848612068406920F04000DE
:103E200021684861202084F83E000020206320683B
:103E3000C06820F010002168C860A06BFDF778FA18
:103E4000A08DE28D801A81B22046FFF716FF31E780
:103E5000A08DE18D401A1FFA80F8E08DE8B1B8F12D
:103E6000000F1AD02068C06820F490702168C860E4
:103E70002068406920F0010021684861202084F812
:103E80003E00002020632068C06820F010002168F8
:103E9000C86041462046FFF7F0FE0BE7FFE705F05C
:103EA000800030B106F0800018B1204601F071FCAE
:103EB00000E705F0400030B106F0400018B12046A0
:103EC00001F0BFFAF6E600BFF4E60000F95300087F
:103ED00010B504460CB9012010BDA06900B100E086
:103EE00000BF94F83D0028B9002084F83C0020462B
:103EF00000F028F8242084F83D002068C06820F4F1
:103F000000502168C860204601F00AFB2068006963
:103F100020F49040216808612068406920F02A0060
:103F2000216848612068C06840F400502168C8607A
:103F300000202064202084F83D0084F83E0000200A
:103F4000CAE7000010B586B004462E4920688842B2
:103F500055D100BF00BF002000902B48006840F002
:103F60001000294908600846006800F01000009021
:103F700000BF00BF00BF00BF00BF0020009022486C
:103F80001438006840F001001F49143908600846E1
:103F9000006800F00100009000BF00BF00BF00BF3C
:103FA00000BF002000900846006840F00100086053
:103FB0000846006800F00100009000BF00BF00BF8D
:103FC00048150190022002900120039002200490E5
:103FD0000720059001A90D48FDF728FA4FF48060ED
:103FE00001900720059001A90848FDF71FFA252038
:103FF000FDF78DFB032211462520FDF798FB06B047
:1040000010BD000000100140443802400000024092
:104010002DE9F84F04460E46174699464FF0000A20
:1040200094F83E0020285FD106B117B90120BDE801
:10403000F88F00BF94F83C00012801D10220F6E778
:10404000012084F83C0000BF00202064222084F876
:104050003E0000202063FDF709FB8246A785E78527
:10406000A068B0F5805F04D1206910B90025B04682
:1040700002E035464FF0000800BF002084F83C0005
:1040800000BF29E05346002220212046CDF80090B1
:1040900001F0AFFB08B10320C9E745B920684068CB
:1040A000C0F30800A8F8000008F1020811E0A068B9
:1040B000B0F5805F03D0A06828B9206918B92068DE
:1040C0004068287004E02068406800F07F00287095
:1040D0006D1CE08D401EE085E08D0028D2D12020AF
:1040E00084F83E000020A2E70220A0E770B5044655
:1040F0000D46164694F83E00202816D105B10EB99B
:10410000012070BD00BF94F83C00012801D10220BD
:10411000F7E7012084F83C0000BF0020206332460E
:104120002946204601F012FBEBE70220E9E70000F8
:1041300010B504462049206888423BD11F480088BA
:1041400000F4004088BB1D48008800F4804070B136
:104150001B4800780A2803D000201849088024E072
:104160001648008840F40040144908801DE01448B7
:1041700000780D2806D11148008840F480400F498E
:10418000088012E00E4800780C490988C1F30D013F
:104190000C4A505409480088401C084908800846C9
:1041A0000088C72801DD0020088001220449064854
:1041B000FFF79CFF10BD00000010014038000020F8
:1041C0003A000020440100200C020020704700BF8C
:1041D000FEE700BFFEE7704710B50248FDF7AEFFEF
:1041E00010BD0000F8140020014600BF080900EBD4
:1041F0008000420001F00F001044C0B27047014639
:10420000002203E0521CA1F10A00C1B20A29F9D22E
:10421000100741EA1060704770B504460025206819
:10422000C06800F04000A0B9681E2168C860FDF7B2
:104230001DFA054607E0FDF719FA401BB0F57A7F35
:1042400001D9032070BD2068C06800F0400000283C
:10425000F1D00020F6E7000010B50248FDF746FF58
:1042600010BD0000F814002010B5024600230868B5
:10427000506248689062D1E9020420430C692043EF
:104280004C6920430343D06A20F0F7001843D06202
:10429000002010BD01460869C0B270470146086899
:1042A00000F003007047024602F11400431818683A
:1042B00070470FB410B504460021DDE90302104336
:1042C000059A1043069A1043079A1043089A104320
:1042D0000143606847F6FF62904308436060002036
:1042E00010BC5DF814FB10B50446032020600220CA
:1042F000FDF788F8002010BD0146D1F88000704716
:1043000010B50246002308689060D1E901042043FB
:10431000CC6820430C6920430343D0686FF30B0043
:104320001843D060002010BD02460868C2F8800023
:104330000020704770B586B005460C4601943720C2
:10434000029040200390002004904FF4806005907C
:1043500001A92846FFF7D4FF41F2883237212846C9
:1043600000F0DCF90646304606B070BD70B586B088
:1043700005460C460B48204301902920029040201E
:104380000390002004904FF48060059001A9284616
:10439000FFF7B6FF284600F0C9FA0646304606B0D9
:1043A00070BD00000000108070B586B005460C4658
:1043B00001941020029040200390002004904FF4BC
:1043C0008060059001A92846FFF79AFF41F28832E4
:1043D0001021284600F0A2F90646304606B070BD0E
:1043E00070B586B005460C46019406200290402028
:1043F0000390002004904FF48060059001A92846A6
:10440000FFF77EFF41F288320621284600F086F948
:104410000646304606B070BD30B585B00446002073
:1044200000900190029003904FF4806004906946E0
:104430002046FFF765FF204600F050F90546284664
:1044400005B030BD30B585B004464FF4D57000904E
:104450000820019040200290002003904FF48060DB
:10446000049069462046FFF74BFF204600F0E6FA2D
:104470000546284605B030BD70B586B005460C46E9
:1044800001941220029040200390002004904FF4E9
:104490008060059001A92846FFF732FF41F288327B
:1044A0001221284600F03AF90646304606B070BDA3
:1044B00070B586B005460C4601941120029040204C
:1044C0000390002004904FF48060059001A92846D5
:1044D000FFF716FF41F288321121284600F01EF93D
:1044E0000646304606B070BDF0B585B006461446A7
:1044F0001D46009407200190402002900020039068
:104500004FF48060049069463046FFF7F9FE41F2AF
:1045100088320721304600F001F90746384605B0D9
:10452000F0BD30B585B00446002000900220019017
:10453000C0200290002003904FF4806004906946F0
:104540002046FFF7DDFE204600F0BEF9054628466E
:1045500005B030BD70B586B005460C460194092003
:104560000290C0200390002004904FF480600590DA
:1045700001A92846FFF7C4FE284600F0A5F9064623
:10458000304606B070BD30B585B0044600200090BE
:104590003320019040200290002003904FF480606F
:1045A000049069462046FFF7ABFE41F28832332182
:1045B000204600F0B3F80546284605B030BD70B57A
:1045C00086B005460C4601940D20029040200390D1
:1045D000002004904FF48060059001A92846FFF761
:1045E0008FFE41F288320D21284600F097F80646EA
:1045F000304606B070BD70B586B005460C4600204A
:1046000001900320029040200390002004904FF47A
:104610008060059001A92846FFF772FE224603211B
:10462000284600F0AFF90646304606B070BD0000DF
:1046300030B585B00446002000900C200190402049
:104640000290002003904FF4806004906946204659
:10465000FFF756FE044A0C21204600F05FF805469D
:10466000284605B030BD000000E1F50570B586B004
:1046700005460C460194192002904020039000202A
:1046800004904FF48060059001A92846FFF738FE9A
:1046900041F288321921284600F040F8064630469B
:1046A00006B070BD70B586B005460C460194182062
:1046B000029040200390002004904FF48060059009
:1046C00001A92846FFF71CFE41F28832182128462E
:1046D00000F024F80646304606B070BD01460E488C
:1046E0000068C0084FF47A73B0FBF3F041F28833EE
:1046F00000FB03F200BF101EA2F1010202D14FF035
:1047000000407047486B00F080000028F3D0C520BF
:1047100088630020F5E70000000000202DE9F04349
:1047200005460F46904666480068C0084FF47A7107
:10473000B0FBF1F000FB08F900BFB9F10000A9F1EE
:10474000010903D14FF00040BDE8F0836E6B06F025
:1047500045000028F1D006F400600028EDD1686B18
:1047600000F0040010B10420A863EDE7686B00F0CE
:10477000010010B10120A863E6E7C520A863284620
:10478000FFF788FDB84201D00120DDE7002128466F
:10479000FFF789FD04464B48204008B90020D3E7C5
:1047A00004F00040B0F1004F02D14FF00070CBE7B1
:1047B00004F08040B0F1804F01D14020C4E704F004
:1047C0000050B0F1005F01D18020BDE704F08050BF
:1047D000B0F1805F02D14FF48070B5E704F0006063
:1047E000B0F1006F02D14FF40070ADE704F08060CB
:1047F000B0F1806F02D14FF48060A5E704F08070C3
:10480000B0F1807F02D14FF400609DE704F4000016
:10481000B0F5000F02D14FF4805095E704F480000A
:10482000B0F5800F02D14FF400508DE704F4001072
:10483000B0F5001F02D14FF4804085E704F48010EA
:10484000B0F5801F02D14FF400407DE704F48020D2
:10485000B0F5802F02D14FF4003075E704F400303A
:10486000B0F5003F02D14FF480206DE704F48030B2
:10487000B0F5803F02D14FF4002065E704F400401A
:10488000B0F5004F02D14FF480105DE704F4804092
:10489000B0F5804F02D14FF4001055E704F40050FA
:1048A000B0F5005F02D14FF480004DE704F008003E
:1048B000082801D1000547E74FF4803044E70000A5
:1048C0000000002008E0FFFD10B501461648006812
:1048D000C0084FF47A74B0FBF4F041F2883400FB66
:1048E00004F300BF181EA3F1010302D14FF00040F2
:1048F00010BD4A6B02F045000028F3D002F40060BE
:104900000028EFD1486B00F0040010B10420886348
:10491000EEE7486B00F0010010B101208863E7E783
:10492000C52088630020E3E70000002010B50146A1
:1049300013480068C0084FF47A74B0FBF4F041F2F9
:10494000883400FB04F300BF181EA3F1010302D159
:104950004FF0004010BD4A6B02F045000028F3D034
:1049600002F400600028EFD1486B00F0040010B1A1
:1049700004208863EEE7C52088630020EAE7000092
:10498000000000202DE9F04304460F4690462A48D7
:104990000068C0084FF47A71B0FBF1F041F2883141
:1049A00000FB01F900BFB9F10000A9F1010903D131
:1049B0004FF00040BDE8F083666B06F0450000282C
:1049C000F1D006F400600028EDD1606B00F0040027
:1049D00010B10420A063EDE7606B00F0010010B19E
:1049E0000120A063E6E72046FFF754FCB84201D05F
:1049F0000120DFE7C520A06300212046FFF753FC1C
:104A0000054605F4604020B9280CA8F800000020F5
:104A1000D0E705F48040B0F5804F02D14FF400504C
:104A2000C8E705F40040B0F5004F02D14FF48050C4
:104A3000C0E74FF48030BDE70000002010B501460C
:104A400018480068C0084FF47A74B0FBF4F041F2E3
:104A5000883400FB04F300BF181EA3F1010302D148
:104A60004FF0004010BD4A6B02F045000028F3D023
:104A700002F400600028EFD1486B00F0040010B190
:104A800004208863EEE7486B00F0010010B10120BC
:104A90008863E7E7486B00F0400008B14020886376
:104AA0000020DFE7000000202DE9F04389B0044634
:104AB0000F46FCF7DBFD81464FF000080020019017
:104AC00002903E4608212068FFF76EFC05461DB1A6
:104AD000284609B0BDE8F0835022125B110420681B
:104AE000FFF728FC05460DB12846F2E74FF0FF30EE
:104AF00003900820049030200590022006900020AA
:104B000007900120089003A92068FFF7ADFB2068FB
:104B1000FFF739FD05460DB12846DAE71CE02068AD
:104B2000406B00F4001040B12068FFF7E5FB01A9DD
:104B300041F8280008F1010805E02068406B00F406
:104B4000005000B90EE0FCF791FDA0EB0900401CFD
:104B500010B94FF00040BCE72068406B00F02A001D
:104B60000028DCD000BF2068406B00F0080018B1BE
:104B7000082021688863ACE72068406B00F00200E1
:104B800018B1022021688863A3E72068406B00F019
:104B9000200018B12020216888639AE740F23A503B
:104BA0002168886302980006029901F47F4140EA77
:104BB0000120029901F47F0140EA1120029940EAA4
:104BC00011603060361D01980006019901F47F41A3
:104BD00040EA0120019901F47F0140EA1120019986
:104BE00040EA11603060002073E730B58FB00446B2
:104BF000012003902068FFF751FB18B94FF0806047
:104C00000FB030BD606C03281BD02068FFF789FC13
:104C100005460DB12846F3E700212068FFF743FB66
:104C2000606704212068FFF73EFBA0670821206829
:104C3000FFF739FBE0670C212068FFF734FB802188
:104C40000851606C032807D003A92068FFF7D3FC44
:104C500005460DB12846D3E7606C032820D0BDF887
:104C60000C1021655022125B11042068FFF772FCC2
:104C700005460DB12846C3E700212068FFF713FB66
:104C8000606604212068FFF70EFBA06608212068FB
:104C9000FFF709FBE0660C212068FFF704FB2067A3
:104CA00004212068FFF7FFFA010DE16404A9204602
:104CB000FDF73AFD10B14FF08050A1E75020005BA6
:104CC00001040A4600232068FFF70EFC05460DB1DB
:104CD000284695E7D4E90412A069CDE900120290B4
:104CE00094E80F00FFF7E5FA002089E7F8B50446DD
:104CF00000200090002600272068FFF78DFB054666
:104D00000DB12846F8BD2068FFF79CFB054645B16C
:104D10000021A1642068FFF77FFB05461DB12846EE
:104D2000F0E70121A164A06C012808D100212068CE
:104D3000FFF700FB054615B14FF08050E2E71DE09C
:104D400000212068FFF7F6FA05460DB12846D9E79D
:104D500018492068FFF70AFB054615B14FF080504F
:104D6000D0E700212068FFF79EFA0646012080EA7E
:104D7000D67080F001070098401C00904FF6FF713C
:104D80000098884201D2002FDAD04FF6FF710098C8
:104D9000884202D34FF08070B4E706F08040B0F153
:104DA000804F02D10120606401E000206064002097
:104DB000A8E70000000010C170B504460D4615B903
:104DC0004FF0006070BD5022125B11042068FFF7A5
:104DD000F6FB06460EB13046F4E700212068FFF7E7
:104DE00062FA28600020EDE77CB5044600200090C0
:104DF000019000212068FFF756FA00F00070B0F132
:104E0000007F02D14FF400607CBD69462046FFF769
:104E10004BFE05460DB12846F6E7019800F48030B8
:104E200098B15022125B11042068FFF783FA0546FF
:104E30000DB12846E8E700212068FFF7D1FA0546C2
:104E40000DB12846E0E70020DEE74FF08060DBE7A9
:104E50007CB5044600200090019000212068FFF7F7
:104E600022FA00F00070B0F1007F02D14FF4006030
:104E70007CBD69462046FFF717FE05460DB1284662
:104E8000F6E7019800F4802098B15022125B1104DB
:104E90002068FFF74FFA05460DB12846E8E70221E2
:104EA0002068FFF79DFA05460DB12846E0E700208F
:104EB000DEE74FF08060DBE77CB504460D46164622
:104EC000164800681821B0FBF1F01549B0FBF1F06D
:104ED0004FF47A71484301906068B0F5827F0DD13C
:104EE0002B46002280212046009600F01BF898B146
:104EF000606D40F02000606503207CBD00BF01981C
:104F000000B908E00198401E019020688068C0F355
:104F1000C0100028F3D100BF0020EEE70000002001
:104F200040420F002DE9F84F04460D4690461E46BC
:104F3000DDF82890FCF79AFBA0EB0900371AFCF784
:104F400095FB82462C480068C0F3CB307843009034
:104F500045E0701C002842D0FCF788FBA0EB0A005B
:104F6000B84200D2A7BB2068406820F0E00021686A
:104F700048606068B0F5827F0DD1A068B0F5004F41
:104F800003D0A068B0F5806F05D12068006820F0DC
:104F9000400021680860A06AB0F5005F0DD100BF35
:104FA0002068006820F400502168086020680068CC
:104FB00040F400502168086000BF012084F85100CF
:104FC00000BF002084F8500000BF0320BDE8F88F28
:104FD000FFE7009800B900270098401E0090206865
:104FE00080682840A84201D1012000E0002040450F
:104FF000AFD10020EAE70000000000202DE9F047D3
:105000000C46DDE90867002100258C4600BF60E002
:105010004FF0010808FA01F504EA050CAC4557D138
:10502000D0F800804FEA410A4FF0030909FA0AF963
:1050300028EA0908C0F80080D0F800804FEA41094A
:1050400002FA09F948EA0908C0F80080012A01D0EB
:10505000022A27D1D0F808804FEA410A4FF003090D
:1050600009FA0AF928EA0908C0F80880D0F8088087
:105070004FEA410906FA09F948EA0908C0F8088028
:10508000D0F804904FF0010808FA01F829EA08095D
:10509000C0F80490D0F8048003FA01F948EA09083E
:1050A000C0F80480D0F80C804FEA410A4FF00309A1
:1050B00009FA0AF928EA0908C0F80C80D0F80C802F
:1050C0004FEA410907FA09F948EA0908C0F80C80D3
:1050D000491C10299CD3BDE8F08710B5FCF7CCFA29
:1050E0000AF058F9012801D009F01EFF10BD000098
:1050F0000348006840F470000149086070470000F0
:1051000088ED00E010B509480068006900F0010072
:1051100058B100BF4FF480610548FCF791FA00BF19
:105120006FF0010001490968086110BD14160020E4
:105130000014024010B50248FEF721FB10BD00002C
:10514000A416002010B50268294B98420ED0B0F189
:10515000804F0BD0274B984208D0274B984205D060
:10516000264B984202D0264B984203D122F070027F
:105170004B681A431E4B984220D0B0F1804F1DD08F
:105180001C4B98421AD01C4B984217D01B4B98428C
:1051900014D01B4B984211D01A4B98420ED01A4B88
:1051A00098420BD0194B984208D0194B984205D021
:1051B000184B984202D0184B984203D122F4407207
:1051C000CB681A4322F080034C6943EA0402026070
:1051D0008B68C3620B688362054B984202D0084B10
:1051E000984201D10B6903630123436110BD0000A4
:1051F000000001400004004000080040000C004096
:1052000000040140004001400044014000480140CA
:1052100000180040001C00400020004030B501F0A4
:105220001F05012404FA05F3046A9C430462046A1E
:1052300001F01F0502FA05F52C43046230BD0000A1
:1052400030B5056A25F001050562026A4368846984
:1052500024F0700424F003040D682C4322F00202B1
:105260008D682A43104DA84200D103E00F4DA8429B
:1052700006D100BF22F00802CD682A4322F00402C2
:10528000094DA84202D0094DA84207D123F48073EA
:1052900023F400734D692B438D692B434360846174
:1052A0004D684563026230BD0000014000040140CA
:1052B00030B5056A25F010050562026A4368846905
:1052C00024F4E04424F440740D6844EA052422F0F8
:1052D00020028D6842EA0512124DA84200D103E077
:1052E000114DA84207D100BF22F08002CD6842EAEA
:1052F000051222F040020B4DA84202D00A4DA842EE
:1053000009D123F4806323F400634D6943EA8503E4
:105310008D6943EA8503436084614D688563026259
:1053200030BD0000000001400004014030B5056AB6
:1053300025F480750562026A4368C46924F070042C
:1053400024F003040D682C4322F400728D6842EAB5
:105350000522124DA84200D103E0114DA84207D109
:1053600000BF22F40062CD6842EA052222F4806286
:105370000A4DA84202D00A4DA84209D123F4805315
:1053800023F400534D6943EA05138D6943EA05137D
:105390004360C4614D68C563026230BD00000140D6
:1053A0000004014030B5056A25F480550562036AA2
:1053B0004468C26922F4E04222F440720D6842EA75
:1053C000052223F400538D6843EA0533084DA842B3
:1053D00002D0084DA84204D124F480444D6944EA27
:1053E00085144460C2614D680564036230BD0000ED
:1053F000000001400004014070B50546AC6B002080
:10540000E085E0842046FEF739FC70BD0168C9687C
:1054100021F490710268D1600168496921F00101AD
:1054200002685161016B012905D10168C96821F049
:1054300010010268D160202180F83E100021016334
:10544000704710B504462068C06820F0400021680D
:10545000C860202084F83D002046FEF7B7FE0020FB
:1054600010BD70B5044694F83E00222856D1A068BD
:10547000B0F5805F0CD1206950B90025A66A20687C
:105480004068C0F308003080A06A801CA06215E06C
:10549000A56A0026A068B0F5805F03D0A06828B98F
:1054A000206918B920684068287004E020684068C6
:1054B00000F07F002870A06A401CA062E08D401EB2
:1054C00080B2E08540BB2068C06820F020002168E1
:1054D000C8602068C06820F480702168C8602068B7
:1054E000406920F0010021684861202084F83E00D6
:1054F000206B01280AD12068C06820F010002168C4
:10550000C860A18D2046FEF7B8FB02E02046FEF7FA
:105510000FFE0020206370BD0020FCE70220FAE7A8
:105520002DE9F84F04462068006920F44050E168F6
:105530000843216808612169A0680843616908433C
:10554000E169084300902068C06849F20C61884313
:10555000009908432168C8602068406920F44070C1
:10556000A16908432168486176492068884203D0D0
:1055700075492068884203D1FCF7E2FA814602E0CF
:10558000FCF7CEFA8146E069B0F5004F6CD10220FD
:105590006168A0FB015003461920A9FB0070014679
:1055A0002A463846FAF7D1FE6421B0FBF1F04FEA03
:1055B000001A02206168A0FB01510B461920A9FBCB
:1055C00000712A463846FAF7C0FE83460220616819
:1055D000A0FB015003461920A9FB00712A4638465A
:1055E000FAF7B3FE6421B0FBF1F000EBC00101EB70
:1055F0000010ABEB8000322101EBC0006421B0FB56
:10560000F1F000F0F8000AEB400A02206168A0FB0C
:10561000015003461920A9FB007001462A4638466E
:10562000FAF793FE834602206168A0FB015003460F
:105630001920A9FB00712A463846FAF786FE642134
:10564000B0FBF1F000EBC00101EB0010ABEB800010
:10565000322101EBC0006421B0FBF1F000F0070043
:105660005044216888606AE004206168A0FB015012
:1056700003461920A9FB007001462A463846FAF76E
:1056800064FE824604206168A0FB01500346192095
:10569000A9FB007001462A463846FAF756FE6421F7
:1056A000B0FBF1F000EBC00101EB0010AAEB8000B1
:1056B000322101EB00106421B0FBF1F000F0F00AA0
:1056C00004206168A0FB017003461920A9FB00516A
:1056D0003A462846FAF739FE6421B0FBF1F00AEBAE
:1056E000001A04206168A0FB01510B461920A9FB98
:1056F00000712A463846FAF728FE8346042061687E
:10570000A0FB015003461920A9FB007001462A4660
:105710003846FAF71AFE6421B0FBF1F000EBC00145
:1057200001EB0010ABEB8000322101EB0010642193
:10573000B0FBF1F000F00F00504421688860BDE834
:10574000F88F0000001001400014014010B503461E
:1057500099629A85DA8500201864222083F83E0039
:1057600000BF002083F83C0000BF1868C06840F408
:1057700080701C68E0601868406940F001001C6897
:1057800060611868C06840F020001C68E06000207C
:1057900010BD014691F83D00212828D18868B0F558
:1057A000805F0BD1086948B90A6A1088C0F3080005
:1057B0000B685860086A801C086205E00B6A581C78
:1057C000086218780B685860C88C401E80B2C88484
:1057D00058B90868C06820F080000B68D860086875
:1057E000C06840F040000B68D8600020704702207D
:1057F000FCE72DE9F04104460D4617469846069E03
:1058000021E0701CF8B12EB1FBF730FFA0EB0800CF
:10581000B04218D92068C06820F4D0702168C860F0
:105820002068406920F0010021684861202084F848
:105830003D0084F83E0000BF002084F83C0000BF1B
:105840000320BDE8F081206800682840A84201D10B
:10585000012000E00020B842D3D00020F1E7000092
:1058600010B50248FEF70CFA10BD00000C02002033
:105870001CB53E4800680068C0F3C00090B100BF8E
:1058800000200090394800680068009037480068A0
:105890004068009000BF00BF34480068006833488B
:1058A00000684068314800680068C0F3401010B3D9
:1058B0004FF0FF33012201A92C48FEF7A9FB2C4829
:1058C000B0F88000C0F30E007F2815DA9DF80400C0
:1058D0002749B1F88010C1F30E01254A50541046F3
:1058E000B0F88000401C1146B1F8801060F30E0142
:1058F0001046A0F880101BE01D48B0F880006FF340
:105900000E001B49A1F880009DF80400B1F880103A
:10591000C1F30E01164A50541046B0F88000401CE6
:105920001146B1F8801060F30E011046A0F8801007
:105930000E4800680068C0F30010B0B10C48B0F821
:10594000800020F4004000F500400949A1F88000E3
:1059500000BF0020009005480068006800900348E0
:1059600000684068009000BF00BF1CBDEC1600201E
:105970003017002000BFFEE770B50621302008F088
:1059800091FA302008F09EF90546062D03D0062135
:10599000302008F087FA002403E00AF060F8601C69
:1059A00084B2C82CF9DB70BD02480068C0F3022045
:1059B000704700000CED00E010B5002804DB0A077A
:1059C000130E054A135406E00A07140E034A00F0AA
:1059D0000F031B1FD45410BD00E400E018ED00E0DD
:1059E00030380A2801D2012070470020704700BFDC
:1059F00070472DE9FF4107460C4615461E460094A8
:105A00000195029669463846FBF746FABDE8FF81E4
:105A100010B504460723012221460748FFF7E9FF96
:105A20000548FBF7DFFB0A210348FBF773FB02483D
:105A3000FBF7F8FA80B210BD000300202DE9F04119
:105A400007460C460025002608E03846FFF7E0FF31
:105A50000544052000F0D6FB701CC6B2A642F4DB5C
:105A6000B5FBF4F0BDE8F08110B52DED088B0A21EF
:105A70001020FFF7E3FF08EE100AB8EE480A10EE18
:105A8000100A0AF059FC41EC1A0B9FED1A0B53EC6B
:105A9000102B0AF069FA41EC190B9FED180B53EC2F
:105AA000102B51EC190B0AF05DFB41EC1B0B9FED29
:105AB000150B53EC102B0AF08FF841EC1A0B9FEDED
:105AC000130B53EC102B09F0DFFF41EC190B9FED8A
:105AD000110B53EC102B51EC190B0AF045FA41EC69
